{"src/contracts/Genesis.sol":{"Genesis":{"abi":[{"inputs":[{"internalType":"uint256","name":"_projectTax","type":"uint256"}],"stateMutability":"nonpayable","type":"constructor"},{"anonymous":false,"inputs":[{"indexed":false,"internalType":"uint256","name":"id","type":"uint256"},{"indexed":false,"internalType":"string","name":"actionType","type":"string"},{"indexed":true,"internalType":"address","name":"executor","type":"address"},{"indexed":false,"internalType":"uint256","name":"timestamp","type":"uint256"}],"name":"Action","type":"event"},{"inputs":[{"internalType":"uint256","name":"id","type":"uint256"}],"name":"backProject","outputs":[{"internalType":"bool","name":"","type":"bool"}],"stateMutability":"payable","type":"function"},{"inputs":[],"name":"balance","outputs":[{"internalType":"uint256","name":"","type":"uint256"}],"stateMutability":"view","type":"function"},{"inputs":[{"internalType":"uint256","name":"_taxPct","type":"uint256"}],"name":"changeTax","outputs":[],"stateMutability":"nonpayable","type":"function"},{"inputs":[{"internalType":"string","name":"title","type":"string"},{"internalType":"string","name":"description","type":"string"},{"internalType":"string","name":"imageURL","type":"string"},{"internalType":"uint256","name":"cost","type":"uint256"},{"internalType":"uint256","name":"expiresAt","type":"uint256"},{"internalType":"string","name":"Syarat","type":"string"}],"name":"createProject","outputs":[{"internalType":"bool","name":"","type":"bool"}],"stateMutability":"nonpayable","type":"function"},{"inputs":[{"internalType":"uint256","name":"id","type":"uint256"}],"name":"deleteProject","outputs":[{"internalType":"bool","name":"","type":"bool"}],"stateMutability":"nonpayable","type":"function"},{"inputs":[{"internalType":"uint256","name":"id","type":"uint256"}],"name":"getBackers","outputs":[{"components":[{"internalType":"address","name":"owner","type":"address"},{"internalType":"uint256","name":"contribution","type":"uint256"},{"internalType":"uint256","name":"timestamp","type":"uint256"},{"internalType":"bool","name":"refunded","type":"bool"}],"internalType":"struct Genesis.backerStruct[]","name":"","type":"tuple[]"}],"stateMutability":"view","type":"function"},{"inputs":[{"internalType":"uint256","name":"id","type":"uint256"}],"name":"getProject","outputs":[{"components":[{"internalType":"uint256","name":"id","type":"uint256"},{"internalType":"address","name":"owner","type":"address"},{"internalType":"string","name":"title","type":"string"},{"internalType":"string","name":"description","type":"string"},{"internalType":"string","name":"imageURL","type":"string"},{"internalType":"uint256","name":"cost","type":"uint256"},{"internalType":"uint256","name":"raised","type":"uint256"},{"internalType":"uint256","name":"timestamp","type":"uint256"},{"internalType":"uint256","name":"expiresAt","type":"uint256"},{"internalType":"uint256","name":"backers","type":"uint256"},{"internalType":"enum Genesis.statusEnum","name":"status","type":"uint8"},{"internalType":"string","name":"Syarat","type":"string"}],"internalType":"struct Genesis.projectStruct","name":"","type":"tuple"}],"stateMutability":"view","type":"function"},{"inputs":[],"name":"getProjects","outputs":[{"components":[{"internalType":"uint256","name":"id","type":"uint256"},{"internalType":"address","name":"owner","type":"address"},{"internalType":"string","name":"title","type":"string"},{"internalType":"string","name":"description","type":"string"},{"internalType":"string","name":"imageURL","type":"string"},{"internalType":"uint256","name":"cost","type":"uint256"},{"internalType":"uint256","name":"raised","type":"uint256"},{"internalType":"uint256","name":"timestamp","type":"uint256"},{"internalType":"uint256","name":"expiresAt","type":"uint256"},{"internalType":"uint256","name":"backers","type":"uint256"},{"internalType":"enum Genesis.statusEnum","name":"status","type":"uint8"},{"internalType":"string","name":"Syarat","type":"string"}],"internalType":"struct Genesis.projectStruct[]","name":"","type":"tuple[]"}],"stateMutability":"view","type":"function"},{"inputs":[],"name":"owner","outputs":[{"internalType":"address","name":"","type":"address"}],"stateMutability":"view","type":"function"},{"inputs":[{"internalType":"uint256","name":"id","type":"uint256"}],"name":"payOutProject","outputs":[{"internalType":"bool","name":"","type":"bool"}],"stateMutability":"nonpayable","type":"function"},{"inputs":[],"name":"projectCount","outputs":[{"internalType":"uint256","name":"","type":"uint256"}],"stateMutability":"view","type":"function"},{"inputs":[{"internalType":"uint256","name":"","type":"uint256"}],"name":"projectExist","outputs":[{"internalType":"bool","name":"","type":"bool"}],"stateMutability":"view","type":"function"},{"inputs":[],"name":"projectTax","outputs":[{"internalType":"uint256","name":"","type":"uint256"}],"stateMutability":"view","type":"function"},{"inputs":[{"internalType":"uint256","name":"id","type":"uint256"}],"name":"requestRefund","outputs":[{"internalType":"bool","name":"","type":"bool"}],"stateMutability":"nonpayable","type":"function"},{"inputs":[],"name":"stats","outputs":[{"internalType":"uint256","name":"totalProjects","type":"uint256"},{"internalType":"uint256","name":"totalBacking","type":"uint256"},{"internalType":"uint256","name":"totalDonations","type":"uint256"}],"stateMutability":"view","type":"function"},{"inputs":[{"internalType":"uint256","name":"id","type":"uint256"},{"internalType":"string","name":"title","type":"string"},{"internalType":"string","name":"description","type":"string"},{"internalType":"string","name":"imageURL","type":"string"},{"internalType":"uint256","name":"expiresAt","type":"uint256"},{"internalType":"string","name":"Syarat","type":"string"}],"name":"updateProject","outputs":[{"internalType":"bool","name":"","type":"bool"}],"stateMutability":"nonpayable","type":"function"}],"evm":{"bytecode":{"linkReferences":{},"object":"608060405234801561001057600080fd5b506040516124f13803806124f183398101604081905261002f91610049565b600080546001600160a01b03191633179055600155610062565b60006020828403121561005b57600080fd5b5051919050565b612480806100716000396000f3fe6080604052600436106100f35760003560e01c8063a4b2409e1161008a578063d24cd3ec11610059578063d24cd3ec146102b1578063d80528ae146102c7578063dcc6012814610301578063f0f3f2c81461032357600080fd5b8063a4b2409e1461022e578063b531dcba1461024e578063b69ef8a81461026e578063c9168b721461028457600080fd5b806350fc6d76116100c657806350fc6d76146101935780638593054b146101b35780638da5cb5b146101e35780639f39a1941461021b57600080fd5b80631fb49712146100f857806336fbad261461012d5780633e45c8af146101515780634cd0cb2814610173575b600080fd5b34801561010457600080fd5b50610118610113366004611f3f565b610350565b60405190151581526020015b60405180910390f35b34801561013957600080fd5b5061014360025481565b604051908152602001610124565b34801561015d57600080fd5b5061017161016c366004611ffe565b61084d565b005b34801561017f57600080fd5b5061011861018e366004611ffe565b6108a2565b34801561019f57600080fd5b506101186101ae366004612017565b610a1e565b3480156101bf57600080fd5b506101186101ce366004611ffe565b600a6020526000908152604090205460ff1681565b3480156101ef57600080fd5b50600054610203906001600160a01b031681565b6040516001600160a01b039091168152602001610124565b610118610229366004611ffe565b610d08565b34801561023a57600080fd5b50610118610249366004611ffe565b611115565b34801561025a57600080fd5b50610118610269366004611ffe565b61120c565b34801561027a57600080fd5b5061014360035481565b34801561029057600080fd5b506102a461029f366004611ffe565b6112fb565b60405161012491906120bc565b3480156102bd57600080fd5b5061014360015481565b3480156102d357600080fd5b506004546005546006546102e692919083565b60408051938452602084019290925290820152606001610124565b34801561030d57600080fd5b5061031661139d565b604051610124919061228f565b34801561032f57600080fd5b5061034361033e366004611ffe565b6116ca565b60405161012491906122f1565b60008087511161039f5760405162461bcd60e51b81526020600482015260156024820152745469746c652063616e6e6f7420626520656d70747960581b60448201526064015b60405180910390fd5b60008651116103f05760405162461bcd60e51b815260206004820152601b60248201527f4465736372697074696f6e2063616e6e6f7420626520656d70747900000000006044820152606401610396565b600085511161043c5760405162461bcd60e51b8152602060048201526018602482015277496d61676555524c2063616e6e6f7420626520656d70747960401b6044820152606401610396565b600084116104825760405162461bcd60e51b8152602060048201526013602482015272436f73742063616e6e6f74206265207a65726f60681b6044820152606401610396565b60008251116104d35760405162461bcd60e51b815260206004820152601a60248201527f5379617261742055524c2063616e6e6f7420626520656d7074790000000000006044820152606401610396565b6104db611d88565b6002548152336020808301918252604083018a8152606084018a90526080840189905260a084018890524260e0850152610100840187905261016084018690526007805460018101825560009190915284517fa66cc928b5edb82af9bd49922954155ab7b0942694bea4ce44661d9a8736c688600c90920291820190815593517fa66cc928b5edb82af9bd49922954155ab7b0942694bea4ce44661d9a8736c689820180546001600160a01b0319166001600160a01b03909216919091179055905180518594936105d0937fa66cc928b5edb82af9bd49922954155ab7b0942694bea4ce44661d9a8736c68a01920190611e03565b50606082015180516105ec916003840191602090910190611e03565b5060808201518051610608916004840191602090910190611e03565b5060a0820151600582015560c0820151600682015560e0820151600782015561010082015160088201556101208201516009820155610140820151600a8201805460ff1916600183600481111561066157610661612178565b0217905550610160820151805161068291600b840191602090910190611e03565b5050600280546000908152600a602090815260408083208054600160ff1990911681179091553384526008835281842080548083018255908552938390208751600c909502019384558683015190840180546001600160a01b0319166001600160a01b039092169190911790558501518051869550929361070b93908501929190910190611e03565b5060608201518051610727916003840191602090910190611e03565b5060808201518051610743916004840191602090910190611e03565b5060a0820151600582015560c0820151600682015560e0820151600782015561010082015160088201556101208201516009820155610140820151600a8201805460ff1916600183600481111561079c5761079c612178565b021790555061016082015180516107bd91600b840191602090910190611e03565b5050506001600460000160008282546107d69190612321565b909155505060028054339160008051602061242b833981519152919060006107fd83612339565b9091555060408051918252606060208301819052600f908301526e141493d29150d50810d49150551151608a1b6080830152429082015260a00160405180910390a2506001979650505050505050565b6000546001600160a01b0316331461089d5760405162461bcd60e51b81526020600482015260136024820152724f776e6572207265736572766564206f6e6c7960681b6044820152606401610396565b600155565b600080600783815481106108b8576108b8612354565b60009182526020909120600a600c90920201015460ff1660048111156108e0576108e0612178565b146109285760405162461bcd60e51b8152602060048201526018602482015277141c9bda9958dd081b9bc81b1bdb99d95c881bdc195b995960421b6044820152606401610396565b6007828154811061093b5761093b612354565b60009182526020909120600c90910201600101546001600160a01b031633146109765760405162461bcd60e51b81526004016103969061236a565b60036007838154811061098b5761098b612354565b60009182526020909120600a600c9092020101805460ff191660018360048111156109b8576109b8612178565b02179055506109c682611a3e565b60408051838152606060208201819052600f908201526e141493d29150d50811115311551151608a1b608082015242818301529051339160008051602061242b833981519152919081900360a00190a2506001919050565b600060078781548110610a3357610a33612354565b60009182526020909120600c90910201600101546001600160a01b03163314610a6e5760405162461bcd60e51b81526004016103969061236a565b6000865111610ab75760405162461bcd60e51b81526020600482015260156024820152745469746c652063616e6e6f7420626520656d70747960581b6044820152606401610396565b6000855111610b085760405162461bcd60e51b815260206004820152601b60248201527f4465736372697074696f6e2063616e6e6f7420626520656d70747900000000006044820152606401610396565b6000845111610b545760405162461bcd60e51b8152602060048201526018602482015277496d61676555524c2063616e6e6f7420626520656d70747960401b6044820152606401610396565b6000825111610b9e5760405162461bcd60e51b81526020600482015260166024820152755379617261742063616e6e6f7420626520656d70747960501b6044820152606401610396565b8560078881548110610bb257610bb2612354565b90600052602060002090600c02016002019080519060200190610bd6929190611e03565b508460078881548110610beb57610beb612354565b90600052602060002090600c02016003019080519060200190610c0f929190611e03565b508360078881548110610c2457610c24612354565b90600052602060002090600c02016004019080519060200190610c48929190611e03565b508260078881548110610c5d57610c5d612354565b90600052602060002090600c0201600801819055508160078881548110610c8657610c86612354565b90600052602060002090600c0201600b019080519060200190610caa929190611e03565b5060408051888152606060208201819052600f908201526e141493d29150d50815541110551151608a1b608082015242818301529051339160008051602061242b833981519152919081900360a00190a25060019695505050505050565b6000803411610d595760405162461bcd60e51b815260206004820152601f60248201527f4574686572206d7573742062652067726561746572207468616e207a65726f006044820152606401610396565b6000828152600a602052604090205460ff16610dab5760405162461bcd60e51b8152602060048201526011602482015270141c9bda9958dd081b9bdd08199bdd5b99607a1b6044820152606401610396565b600060078381548110610dc057610dc0612354565b60009182526020909120600a600c90920201015460ff166004811115610de857610de8612178565b14610e305760405162461bcd60e51b8152602060048201526018602482015277141c9bda9958dd081b9bc81b1bdb99d95c881bdc195b995960421b6044820152606401610396565b600160046001016000828254610e469190612321565b909155505060068054349190600090610e60908490612321565b925050819055503460078381548110610e7b57610e7b612354565b90600052602060002090600c02016006016000828254610e9b9190612321565b92505081905550600160078381548110610eb757610eb7612354565b90600052602060002090600c02016009016000828254610ed79190612321565b9091555050600082815260096020908152604080832081516080808201845233808352348387019081524284870181815260608087018b8152885460018082018b55998d529b8b902097516004909c0290970180546001600160a01b0319166001600160a01b03909c169b909b178b559251968a01969096559451600289015592516003909701805460ff1916971515979097179096558351888152948501829052600e918501919091526d141493d29150d508109050d2d15160921b908401529082015260008051602061242b8339815191529060a00160405180910390a260078281548110610fca57610fca612354565b90600052602060002090600c02016005015460078381548110610fef57610fef612354565b90600052602060002090600c0201600601541061109a5760016007838154811061101b5761101b612354565b60009182526020909120600a600c9092020101805460ff1916600183600481111561104857611048612178565b02179055506007828154811061106057611060612354565b90600052602060002090600c020160060154600360008282546110839190612321565b90915550611092905082611bac565b506001919050565b600782815481106110ad576110ad612354565b90600052602060002090600c0201600801544210611092576002600783815481106110da576110da612354565b60009182526020909120600a600c9092020101805460ff1916600183600481111561110757611107612178565b021790555061109282611a3e565b600060026007838154811061112c5761112c612354565b60009182526020909120600a600c90920201015460ff16600481111561115457611154612178565b14158061119c575060036007838154811061117157611171612354565b60009182526020909120600a600c90920201015460ff16600481111561119957611199612178565b14155b6111f75760405162461bcd60e51b815260206004820152602660248201527f50726f6a656374206e6f74206d61726b656420617320726576657274206f722060448201526564656c65746560d01b6064820152608401610396565b6002600783815481106110da576110da612354565b600060016007838154811061122357611223612354565b60009182526020909120600a600c90920201015460ff16600481111561124b5761124b612178565b1461128f5760405162461bcd60e51b8152602060048201526014602482015273141c9bda9958dd081b9bdd081054141493d5915160621b6044820152606401610396565b600782815481106112a2576112a2612354565b60009182526020909120600c90910201600101546001600160a01b03163314806112d657506000546001600160a01b031633145b6112f25760405162461bcd60e51b81526004016103969061236a565b61109282611bac565b606060096000838152602001908152602001600020805480602002602001604051908101604052809291908181526020016000905b82821015611392576000848152602090819020604080516080810182526004860290920180546001600160a01b03168352600180820154848601526002820154928401929092526003015460ff16151560608301529083529092019101611330565b505050509050919050565b60606007805480602002602001604051908101604052809291908181526020016000905b828210156116c15760008481526020908190206040805161018081018252600c86029092018054835260018101546001600160a01b0316938301939093526002830180549293929184019161141590612397565b80601f016020809104026020016040519081016040528092919081815260200182805461144190612397565b801561148e5780601f106114635761010080835404028352916020019161148e565b820191906000526020600020905b81548152906001019060200180831161147157829003601f168201915b505050505081526020016003820180546114a790612397565b80601f01602080910402602001604051908101604052809291908181526020018280546114d390612397565b80156115205780601f106114f557610100808354040283529160200191611520565b820191906000526020600020905b81548152906001019060200180831161150357829003601f168201915b5050505050815260200160048201805461153990612397565b80601f016020809104026020016040519081016040528092919081815260200182805461156590612397565b80156115b25780601f10611587576101008083540402835291602001916115b2565b820191906000526020600020905b81548152906001019060200180831161159557829003601f168201915b505050918352505060058201546020820152600682015460408201526007820154606082015260088201546080820152600982015460a0820152600a82015460c09091019060ff16600481111561160b5761160b612178565b600481111561161c5761161c612178565b8152602001600b8201805461163090612397565b80601f016020809104026020016040519081016040528092919081815260200182805461165c90612397565b80156116a95780601f1061167e576101008083540402835291602001916116a9565b820191906000526020600020905b81548152906001019060200180831161168c57829003601f168201915b505050505081525050815260200190600101906113c1565b50505050905090565b6116d2611d88565b6000828152600a602052604090205460ff166117245760405162461bcd60e51b8152602060048201526011602482015270141c9bda9958dd081b9bdd08199bdd5b99607a1b6044820152606401610396565b6007828154811061173757611737612354565b90600052602060002090600c020160405180610180016040529081600082015481526020016001820160009054906101000a90046001600160a01b03166001600160a01b03166001600160a01b0316815260200160028201805461179a90612397565b80601f01602080910402602001604051908101604052809291908181526020018280546117c690612397565b80156118135780601f106117e857610100808354040283529160200191611813565b820191906000526020600020905b8154815290600101906020018083116117f657829003601f168201915b5050505050815260200160038201805461182c90612397565b80601f016020809104026020016040519081016040528092919081815260200182805461185890612397565b80156118a55780601f1061187a576101008083540402835291602001916118a5565b820191906000526020600020905b81548152906001019060200180831161188857829003601f168201915b505050505081526020016004820180546118be90612397565b80601f01602080910402602001604051908101604052809291908181526020018280546118ea90612397565b80156119375780601f1061190c57610100808354040283529160200191611937565b820191906000526020600020905b81548152906001019060200180831161191a57829003601f168201915b505050918352505060058201546020820152600682015460408201526007820154606082015260088201546080820152600982015460a0820152600a82015460c09091019060ff16600481111561199057611990612178565b60048111156119a1576119a1612178565b8152602001600b820180546119b590612397565b80601f01602080910402602001604051908101604052809291908181526020018280546119e190612397565b8015611a2e5780601f10611a0357610100808354040283529160200191611a2e565b820191906000526020600020905b815481529060010190602001808311611a1157829003601f168201915b5050505050815250509050919050565b60005b600082815260096020526040902054811015611ba8576000828152600960205260408120805483908110611a7757611a77612354565b6000918252602080832060049092029091015485835260099091526040822080546001600160a01b0390921693509084908110611ab657611ab6612354565b90600052602060002090600402016001015490506001600960008681526020019081526020016000208481548110611af057611af0612354565b906000526020600020906004020160030160006101000a81548160ff02191690831515021790555042600960008681526020019081526020016000208481548110611b3d57611b3d612354565b906000526020600020906004020160020181905550611b5c8282611d23565b600160046001016000828254611b7291906123d2565b909155505060068054829190600090611b8c9084906123d2565b9250508190555050508080611ba090612339565b915050611a41565b5050565b600060078281548110611bc157611bc1612354565b90600052602060002090600c02016006015490506000606460015483611be791906123e9565b611bf19190612408565b9050600460078481548110611c0857611c08612354565b60009182526020909120600a600c9092020101805460ff19166001836004811115611c3557611c35612178565b0217905550611c7c60078481548110611c5057611c50612354565b600091825260209091206001600c9092020101546001600160a01b0316611c7783856123d2565b611d23565b600054611c92906001600160a01b031682611d23565b60078381548110611ca557611ca5612354565b90600052602060002090600c02016006015460036000828254611cc891906123d2565b9091555050604080518481526060602082018190526010908201526f141493d29150d508141052510813d55560821b608082015242818301529051339160008051602061242b833981519152919081900360a00190a2505050565b6000826001600160a01b03168260405160006040518083038185875af1925050503d8060008114611d70576040519150601f19603f3d011682016040523d82523d6000602084013e611d75565b606091505b5050905080611d8357600080fd5b505050565b6040518061018001604052806000815260200160006001600160a01b03168152602001606081526020016060815260200160608152602001600081526020016000815260200160008152602001600081526020016000815260200160006004811115611df657611df6612178565b8152602001606081525090565b828054611e0f90612397565b90600052602060002090601f016020900481019282611e315760008555611e77565b82601f10611e4a57805160ff1916838001178555611e77565b82800160010185558215611e77579182015b82811115611e77578251825591602001919060010190611e5c565b50611e83929150611e87565b5090565b5b80821115611e835760008155600101611e88565b634e487b7160e01b600052604160045260246000fd5b600082601f830112611ec357600080fd5b813567ffffffffffffffff80821115611ede57611ede611e9c565b604051601f8301601f19908116603f01168101908282118183101715611f0657611f06611e9c565b81604052838152866020858801011115611f1f57600080fd5b836020870160208301376000602085830101528094505050505092915050565b60008060008060008060c08789031215611f5857600080fd5b863567ffffffffffffffff80821115611f7057600080fd5b611f7c8a838b01611eb2565b97506020890135915080821115611f9257600080fd5b611f9e8a838b01611eb2565b96506040890135915080821115611fb457600080fd5b611fc08a838b01611eb2565b9550606089013594506080890135935060a0890135915080821115611fe457600080fd5b50611ff189828a01611eb2565b9150509295509295509295565b60006020828403121561201057600080fd5b5035919050565b60008060008060008060c0878903121561203057600080fd5b86359550602087013567ffffffffffffffff8082111561204f57600080fd5b61205b8a838b01611eb2565b9650604089013591508082111561207157600080fd5b61207d8a838b01611eb2565b9550606089013591508082111561209357600080fd5b61209f8a838b01611eb2565b94506080890135935060a0890135915080821115611fe457600080fd5b602080825282518282018190526000919060409081850190868401855b8281101561211e57815180516001600160a01b0316855286810151878601528581015186860152606090810151151590850152608090930192908501906001016120d9565b5091979650505050505050565b6000815180845260005b8181101561215157602081850181015186830182015201612135565b81811115612163576000602083870101525b50601f01601f19169290920160200192915050565b634e487b7160e01b600052602160045260246000fd5b600581106121ac57634e487b7160e01b600052602160045260246000fd5b9052565b60006101808251845260208301516121d360208601826001600160a01b03169052565b5060408301518160408601526121eb8286018261212b565b91505060608301518482036060860152612205828261212b565b9150506080830151848203608086015261221f828261212b565b91505060a083015160a085015260c083015160c085015260e083015160e08501526101008084015181860152506101208084015181860152506101408084015161226b8287018261218e565b50506101608084015185830382870152612285838261212b565b9695505050505050565b6000602080830181845280855180835260408601915060408160051b870101925083870160005b828110156122e457603f198886030184526122d28583516121b0565b945092850192908501906001016122b6565b5092979650505050505050565b60208152600061230460208301846121b0565b9392505050565b634e487b7160e01b600052601160045260246000fd5b600082198211156123345761233461230b565b500190565b600060001982141561234d5761234d61230b565b5060010190565b634e487b7160e01b600052603260045260246000fd5b602080825260139082015272556e617574686f72697a656420456e7469747960681b604082015260600190565b600181811c908216806123ab57607f821691505b602082108114156123cc57634e487b7160e01b600052602260045260246000fd5b50919050565b6000828210156123e4576123e461230b565b500390565b60008160001904831182151516156124035761240361230b565b500290565b60008261242557634e487b7160e01b600052601260045260246000fd5b50049056feaee8e5d3bbb2f71a951b5632cee20f7ac487b9f8ab4f66a236f7694b13af7c6aa26469706673582212205897c85ca0215eea1a71bace7394fbe570ac3b839b4f1d196fa9be946962554e64736f6c634300080b0033","opcodes":"PUSH1 0x80 PUSH1 0x40 MSTORE CALLVALUE DUP1 ISZERO PUSH2 0x10 JUMPI PUSH1 0x0 DUP1 REVERT JUMPDEST POP PUSH1 0x40 MLOAD PUSH2 0x24F1 CODESIZE SUB DUP1 PUSH2 0x24F1 DUP4 CODECOPY DUP2 ADD PUSH1 0x40 DUP2 SWAP1 MSTORE PUSH2 0x2F SWAP2 PUSH2 0x49 JUMP JUMPDEST PUSH1 0x0 DUP1 SLOAD PUSH1 0x1 PUSH1 0x1 PUSH1 0xA0 SHL SUB NOT AND CALLER OR SWAP1 SSTORE PUSH1 0x1 SSTORE PUSH2 0x62 JUMP JUMPDEST PUSH1 0x0 PUSH1 0x20 DUP3 DUP5 SUB SLT ISZERO PUSH2 0x5B JUMPI PUSH1 0x0 DUP1 REVERT JUMPDEST POP MLOAD SWAP2 SWAP1 POP JUMP JUMPDEST PUSH2 0x2480 DUP1 PUSH2 0x71 PUSH1 0x0 CODECOPY PUSH1 0x0 RETURN INVALID PUSH1 0x80 PUSH1 0x40 MSTORE PUSH1 0x4 CALLDATASIZE LT PUSH2 0xF3 JUMPI PUSH1 0x0 CALLDATALOAD PUSH1 0xE0 SHR DUP1 PUSH4 0xA4B2409E GT PUSH2 0x8A JUMPI DUP1 PUSH4 0xD24CD3EC GT PUSH2 0x59 JUMPI DUP1 PUSH4 0xD24CD3EC EQ PUSH2 0x2B1 JUMPI DUP1 PUSH4 0xD80528AE EQ PUSH2 0x2C7 JUMPI DUP1 PUSH4 0xDCC60128 EQ PUSH2 0x301 JUMPI DUP1 PUSH4 0xF0F3F2C8 EQ PUSH2 0x323 JUMPI PUSH1 0x0 DUP1 REVERT JUMPDEST DUP1 PUSH4 0xA4B2409E EQ PUSH2 0x22E JUMPI DUP1 PUSH4 0xB531DCBA EQ PUSH2 0x24E JUMPI DUP1 PUSH4 0xB69EF8A8 EQ PUSH2 0x26E JUMPI DUP1 PUSH4 0xC9168B72 EQ PUSH2 0x284 JUMPI PUSH1 0x0 DUP1 REVERT JUMPDEST DUP1 PUSH4 0x50FC6D76 GT PUSH2 0xC6 JUMPI DUP1 PUSH4 0x50FC6D76 EQ PUSH2 0x193 JUMPI DUP1 PUSH4 0x8593054B EQ PUSH2 0x1B3 JUMPI DUP1 PUSH4 0x8DA5CB5B EQ PUSH2 0x1E3 JUMPI DUP1 PUSH4 0x9F39A194 EQ PUSH2 0x21B JUMPI PUSH1 0x0 DUP1 REVERT JUMPDEST DUP1 PUSH4 0x1FB49712 EQ PUSH2 0xF8 JUMPI DUP1 PUSH4 0x36FBAD26 EQ PUSH2 0x12D JUMPI DUP1 PUSH4 0x3E45C8AF EQ PUSH2 0x151 JUMPI DUP1 PUSH4 0x4CD0CB28 EQ PUSH2 0x173 JUMPI JUMPDEST PUSH1 0x0 DUP1 REVERT JUMPDEST CALLVALUE DUP1 ISZERO PUSH2 0x104 JUMPI PUSH1 0x0 DUP1 REVERT JUMPDEST POP PUSH2 0x118 PUSH2 0x113 CALLDATASIZE PUSH1 0x4 PUSH2 0x1F3F JUMP JUMPDEST PUSH2 0x350 JUMP JUMPDEST PUSH1 0x40 MLOAD SWAP1 ISZERO ISZERO DUP2 MSTORE PUSH1 0x20 ADD JUMPDEST PUSH1 0x40 MLOAD DUP1 SWAP2 SUB SWAP1 RETURN JUMPDEST CALLVALUE DUP1 ISZERO PUSH2 0x139 JUMPI PUSH1 0x0 DUP1 REVERT JUMPDEST POP PUSH2 0x143 PUSH1 0x2 SLOAD DUP2 JUMP JUMPDEST PUSH1 0x40 MLOAD SWAP1 DUP2 MSTORE PUSH1 0x20 ADD PUSH2 0x124 JUMP JUMPDEST CALLVALUE DUP1 ISZERO PUSH2 0x15D JUMPI PUSH1 0x0 DUP1 REVERT JUMPDEST POP PUSH2 0x171 PUSH2 0x16C CALLDATASIZE PUSH1 0x4 PUSH2 0x1FFE JUMP JUMPDEST PUSH2 0x84D JUMP JUMPDEST STOP JUMPDEST CALLVALUE DUP1 ISZERO PUSH2 0x17F JUMPI PUSH1 0x0 DUP1 REVERT JUMPDEST POP PUSH2 0x118 PUSH2 0x18E CALLDATASIZE PUSH1 0x4 PUSH2 0x1FFE JUMP JUMPDEST PUSH2 0x8A2 JUMP JUMPDEST CALLVALUE DUP1 ISZERO PUSH2 0x19F JUMPI PUSH1 0x0 DUP1 REVERT JUMPDEST POP PUSH2 0x118 PUSH2 0x1AE CALLDATASIZE PUSH1 0x4 PUSH2 0x2017 JUMP JUMPDEST PUSH2 0xA1E JUMP JUMPDEST CALLVALUE DUP1 ISZERO PUSH2 0x1BF JUMPI PUSH1 0x0 DUP1 REVERT JUMPDEST POP PUSH2 0x118 PUSH2 0x1CE CALLDATASIZE PUSH1 0x4 PUSH2 0x1FFE JUMP JUMPDEST PUSH1 0xA PUSH1 0x20 MSTORE PUSH1 0x0 SWAP1 DUP2 MSTORE PUSH1 0x40 SWAP1 KECCAK256 SLOAD PUSH1 0xFF AND DUP2 JUMP JUMPDEST CALLVALUE DUP1 ISZERO PUSH2 0x1EF JUMPI PUSH1 0x0 DUP1 REVERT JUMPDEST POP PUSH1 0x0 SLOAD PUSH2 0x203 SWAP1 PUSH1 0x1 PUSH1 0x1 PUSH1 0xA0 SHL SUB AND DUP2 JUMP JUMPDEST PUSH1 0x40 MLOAD PUSH1 0x1 PUSH1 0x1 PUSH1 0xA0 SHL SUB SWAP1 SWAP2 AND DUP2 MSTORE PUSH1 0x20 ADD PUSH2 0x124 JUMP JUMPDEST PUSH2 0x118 PUSH2 0x229 CALLDATASIZE PUSH1 0x4 PUSH2 0x1FFE JUMP JUMPDEST PUSH2 0xD08 JUMP JUMPDEST CALLVALUE DUP1 ISZERO PUSH2 0x23A JUMPI PUSH1 0x0 DUP1 REVERT JUMPDEST POP PUSH2 0x118 PUSH2 0x249 CALLDATASIZE PUSH1 0x4 PUSH2 0x1FFE JUMP JUMPDEST PUSH2 0x1115 JUMP JUMPDEST CALLVALUE DUP1 ISZERO PUSH2 0x25A JUMPI PUSH1 0x0 DUP1 REVERT JUMPDEST POP PUSH2 0x118 PUSH2 0x269 CALLDATASIZE PUSH1 0x4 PUSH2 0x1FFE JUMP JUMPDEST PUSH2 0x120C JUMP JUMPDEST CALLVALUE DUP1 ISZERO PUSH2 0x27A JUMPI PUSH1 0x0 DUP1 REVERT JUMPDEST POP PUSH2 0x143 PUSH1 0x3 SLOAD DUP2 JUMP JUMPDEST CALLVALUE DUP1 ISZERO PUSH2 0x290 JUMPI PUSH1 0x0 DUP1 REVERT JUMPDEST POP PUSH2 0x2A4 PUSH2 0x29F CALLDATASIZE PUSH1 0x4 PUSH2 0x1FFE JUMP JUMPDEST PUSH2 0x12FB JUMP JUMPDEST PUSH1 0x40 MLOAD PUSH2 0x124 SWAP2 SWAP1 PUSH2 0x20BC JUMP JUMPDEST CALLVALUE DUP1 ISZERO PUSH2 0x2BD JUMPI PUSH1 0x0 DUP1 REVERT JUMPDEST POP PUSH2 0x143 PUSH1 0x1 SLOAD DUP2 JUMP JUMPDEST CALLVALUE DUP1 ISZERO PUSH2 0x2D3 JUMPI PUSH1 0x0 DUP1 REVERT JUMPDEST POP PUSH1 0x4 SLOAD PUSH1 0x5 SLOAD PUSH1 0x6 SLOAD PUSH2 0x2E6 SWAP3 SWAP2 SWAP1 DUP4 JUMP JUMPDEST PUSH1 0x40 DUP1 MLOAD SWAP4 DUP5 MSTORE PUSH1 0x20 DUP5 ADD SWAP3 SWAP1 SWAP3 MSTORE SWAP1 DUP3 ADD MSTORE PUSH1 0x60 ADD PUSH2 0x124 JUMP JUMPDEST CALLVALUE DUP1 ISZERO PUSH2 0x30D JUMPI PUSH1 0x0 DUP1 REVERT JUMPDEST POP PUSH2 0x316 PUSH2 0x139D JUMP JUMPDEST PUSH1 0x40 MLOAD PUSH2 0x124 SWAP2 SWAP1 PUSH2 0x228F JUMP JUMPDEST CALLVALUE DUP1 ISZERO PUSH2 0x32F JUMPI PUSH1 0x0 DUP1 REVERT JUMPDEST POP PUSH2 0x343 PUSH2 0x33E CALLDATASIZE PUSH1 0x4 PUSH2 0x1FFE JUMP JUMPDEST PUSH2 0x16CA JUMP JUMPDEST PUSH1 0x40 MLOAD PUSH2 0x124 SWAP2 SWAP1 PUSH2 0x22F1 JUMP JUMPDEST PUSH1 0x0 DUP1 DUP8 MLOAD GT PUSH2 0x39F JUMPI PUSH1 0x40 MLOAD PUSH3 0x461BCD PUSH1 0xE5 SHL DUP2 MSTORE PUSH1 0x20 PUSH1 0x4 DUP3 ADD MSTORE PUSH1 0x15 PUSH1 0x24 DUP3 ADD MSTORE PUSH21 0x5469746C652063616E6E6F7420626520656D707479 PUSH1 0x58 SHL PUSH1 0x44 DUP3 ADD MSTORE PUSH1 0x64 ADD JUMPDEST PUSH1 0x40 MLOAD DUP1 SWAP2 SUB SWAP1 REVERT JUMPDEST PUSH1 0x0 DUP7 MLOAD GT PUSH2 0x3F0 JUMPI PUSH1 0x40 MLOAD PUSH3 0x461BCD PUSH1 0xE5 SHL DUP2 MSTORE PUSH1 0x20 PUSH1 0x4 DUP3 ADD MSTORE PUSH1 0x1B PUSH1 0x24 DUP3 ADD MSTORE PUSH32 0x4465736372697074696F6E2063616E6E6F7420626520656D7074790000000000 PUSH1 0x44 DUP3 ADD MSTORE PUSH1 0x64 ADD PUSH2 0x396 JUMP JUMPDEST PUSH1 0x0 DUP6 MLOAD GT PUSH2 0x43C JUMPI PUSH1 0x40 MLOAD PUSH3 0x461BCD PUSH1 0xE5 SHL DUP2 MSTORE PUSH1 0x20 PUSH1 0x4 DUP3 ADD MSTORE PUSH1 0x18 PUSH1 0x24 DUP3 ADD MSTORE PUSH24 0x496D61676555524C2063616E6E6F7420626520656D707479 PUSH1 0x40 SHL PUSH1 0x44 DUP3 ADD MSTORE PUSH1 0x64 ADD PUSH2 0x396 JUMP JUMPDEST PUSH1 0x0 DUP5 GT PUSH2 0x482 JUMPI PUSH1 0x40 MLOAD PUSH3 0x461BCD PUSH1 0xE5 SHL DUP2 MSTORE PUSH1 0x20 PUSH1 0x4 DUP3 ADD MSTORE PUSH1 0x13 PUSH1 0x24 DUP3 ADD MSTORE PUSH19 0x436F73742063616E6E6F74206265207A65726F PUSH1 0x68 SHL PUSH1 0x44 DUP3 ADD MSTORE PUSH1 0x64 ADD PUSH2 0x396 JUMP JUMPDEST PUSH1 0x0 DUP3 MLOAD GT PUSH2 0x4D3 JUMPI PUSH1 0x40 MLOAD PUSH3 0x461BCD PUSH1 0xE5 SHL DUP2 MSTORE PUSH1 0x20 PUSH1 0x4 DUP3 ADD MSTORE PUSH1 0x1A PUSH1 0x24 DUP3 ADD MSTORE PUSH32 0x5379617261742055524C2063616E6E6F7420626520656D707479000000000000 PUSH1 0x44 DUP3 ADD MSTORE PUSH1 0x64 ADD PUSH2 0x396 JUMP JUMPDEST PUSH2 0x4DB PUSH2 0x1D88 JUMP JUMPDEST PUSH1 0x2 SLOAD DUP2 MSTORE CALLER PUSH1 0x20 DUP1 DUP4 ADD SWAP2 DUP3 MSTORE PUSH1 0x40 DUP4 ADD DUP11 DUP2 MSTORE PUSH1 0x60 DUP5 ADD DUP11 SWAP1 MSTORE PUSH1 0x80 DUP5 ADD DUP10 SWAP1 MSTORE PUSH1 0xA0 DUP5 ADD DUP9 SWAP1 MSTORE TIMESTAMP PUSH1 0xE0 DUP6 ADD MSTORE PUSH2 0x100 DUP5 ADD DUP8 SWAP1 MSTORE PUSH2 0x160 DUP5 ADD DUP7 SWAP1 MSTORE PUSH1 0x7 DUP1 SLOAD PUSH1 0x1 DUP2 ADD DUP3 SSTORE PUSH1 0x0 SWAP2 SWAP1 SWAP2 MSTORE DUP5 MLOAD PUSH32 0xA66CC928B5EDB82AF9BD49922954155AB7B0942694BEA4CE44661D9A8736C688 PUSH1 0xC SWAP1 SWAP3 MUL SWAP2 DUP3 ADD SWAP1 DUP2 SSTORE SWAP4 MLOAD PUSH32 0xA66CC928B5EDB82AF9BD49922954155AB7B0942694BEA4CE44661D9A8736C689 DUP3 ADD DUP1 SLOAD PUSH1 0x1 PUSH1 0x1 PUSH1 0xA0 SHL SUB NOT AND PUSH1 0x1 PUSH1 0x1 PUSH1 0xA0 SHL SUB SWAP1 SWAP3 AND SWAP2 SWAP1 SWAP2 OR SWAP1 SSTORE SWAP1 MLOAD DUP1 MLOAD DUP6 SWAP5 SWAP4 PUSH2 0x5D0 SWAP4 PUSH32 0xA66CC928B5EDB82AF9BD49922954155AB7B0942694BEA4CE44661D9A8736C68A ADD SWAP3 ADD SWAP1 PUSH2 0x1E03 JUMP JUMPDEST POP PUSH1 0x60 DUP3 ADD MLOAD DUP1 MLOAD PUSH2 0x5EC SWAP2 PUSH1 0x3 DUP5 ADD SWAP2 PUSH1 0x20 SWAP1 SWAP2 ADD SWAP1 PUSH2 0x1E03 JUMP JUMPDEST POP PUSH1 0x80 DUP3 ADD MLOAD DUP1 MLOAD PUSH2 0x608 SWAP2 PUSH1 0x4 DUP5 ADD SWAP2 PUSH1 0x20 SWAP1 SWAP2 ADD SWAP1 PUSH2 0x1E03 JUMP JUMPDEST POP PUSH1 0xA0 DUP3 ADD MLOAD PUSH1 0x5 DUP3 ADD SSTORE PUSH1 0xC0 DUP3 ADD MLOAD PUSH1 0x6 DUP3 ADD SSTORE PUSH1 0xE0 DUP3 ADD MLOAD PUSH1 0x7 DUP3 ADD SSTORE PUSH2 0x100 DUP3 ADD MLOAD PUSH1 0x8 DUP3 ADD SSTORE PUSH2 0x120 DUP3 ADD MLOAD PUSH1 0x9 DUP3 ADD SSTORE PUSH2 0x140 DUP3 ADD MLOAD PUSH1 0xA DUP3 ADD DUP1 SLOAD PUSH1 0xFF NOT AND PUSH1 0x1 DUP4 PUSH1 0x4 DUP2 GT ISZERO PUSH2 0x661 JUMPI PUSH2 0x661 PUSH2 0x2178 JUMP JUMPDEST MUL OR SWAP1 SSTORE POP PUSH2 0x160 DUP3 ADD MLOAD DUP1 MLOAD PUSH2 0x682 SWAP2 PUSH1 0xB DUP5 ADD SWAP2 PUSH1 0x20 SWAP1 SWAP2 ADD SWAP1 PUSH2 0x1E03 JUMP JUMPDEST POP POP PUSH1 0x2 DUP1 SLOAD PUSH1 0x0 SWAP1 DUP2 MSTORE PUSH1 0xA PUSH1 0x20 SWAP1 DUP2 MSTORE PUSH1 0x40 DUP1 DUP4 KECCAK256 DUP1 SLOAD PUSH1 0x1 PUSH1 0xFF NOT SWAP1 SWAP2 AND DUP2 OR SWAP1 SWAP2 SSTORE CALLER DUP5 MSTORE PUSH1 0x8 DUP4 MSTORE DUP2 DUP5 KECCAK256 DUP1 SLOAD DUP1 DUP4 ADD DUP3 SSTORE SWAP1 DUP6 MSTORE SWAP4 DUP4 SWAP1 KECCAK256 DUP8 MLOAD PUSH1 0xC SWAP1 SWAP6 MUL ADD SWAP4 DUP5 SSTORE DUP7 DUP4 ADD MLOAD SWAP1 DUP5 ADD DUP1 SLOAD PUSH1 0x1 PUSH1 0x1 PUSH1 0xA0 SHL SUB NOT AND PUSH1 0x1 PUSH1 0x1 PUSH1 0xA0 SHL SUB SWAP1 SWAP3 AND SWAP2 SWAP1 SWAP2 OR SWAP1 SSTORE DUP6 ADD MLOAD DUP1 MLOAD DUP7 SWAP6 POP SWAP3 SWAP4 PUSH2 0x70B SWAP4 SWAP1 DUP6 ADD SWAP3 SWAP2 SWAP1 SWAP2 ADD SWAP1 PUSH2 0x1E03 JUMP JUMPDEST POP PUSH1 0x60 DUP3 ADD MLOAD DUP1 MLOAD PUSH2 0x727 SWAP2 PUSH1 0x3 DUP5 ADD SWAP2 PUSH1 0x20 SWAP1 SWAP2 ADD SWAP1 PUSH2 0x1E03 JUMP JUMPDEST POP PUSH1 0x80 DUP3 ADD MLOAD DUP1 MLOAD PUSH2 0x743 SWAP2 PUSH1 0x4 DUP5 ADD SWAP2 PUSH1 0x20 SWAP1 SWAP2 ADD SWAP1 PUSH2 0x1E03 JUMP JUMPDEST POP PUSH1 0xA0 DUP3 ADD MLOAD PUSH1 0x5 DUP3 ADD SSTORE PUSH1 0xC0 DUP3 ADD MLOAD PUSH1 0x6 DUP3 ADD SSTORE PUSH1 0xE0 DUP3 ADD MLOAD PUSH1 0x7 DUP3 ADD SSTORE PUSH2 0x100 DUP3 ADD MLOAD PUSH1 0x8 DUP3 ADD SSTORE PUSH2 0x120 DUP3 ADD MLOAD PUSH1 0x9 DUP3 ADD SSTORE PUSH2 0x140 DUP3 ADD MLOAD PUSH1 0xA DUP3 ADD DUP1 SLOAD PUSH1 0xFF NOT AND PUSH1 0x1 DUP4 PUSH1 0x4 DUP2 GT ISZERO PUSH2 0x79C JUMPI PUSH2 0x79C PUSH2 0x2178 JUMP JUMPDEST MUL OR SWAP1 SSTORE POP PUSH2 0x160 DUP3 ADD MLOAD DUP1 MLOAD PUSH2 0x7BD SWAP2 PUSH1 0xB DUP5 ADD SWAP2 PUSH1 0x20 SWAP1 SWAP2 ADD SWAP1 PUSH2 0x1E03 JUMP JUMPDEST POP POP POP PUSH1 0x1 PUSH1 0x4 PUSH1 0x0 ADD PUSH1 0x0 DUP3 DUP3 SLOAD PUSH2 0x7D6 SWAP2 SWAP1 PUSH2 0x2321 JUMP JUMPDEST SWAP1 SWAP2 SSTORE POP POP PUSH1 0x2 DUP1 SLOAD CALLER SWAP2 PUSH1 0x0 DUP1 MLOAD PUSH1 0x20 PUSH2 0x242B DUP4 CODECOPY DUP2 MLOAD SWAP2 MSTORE SWAP2 SWAP1 PUSH1 0x0 PUSH2 0x7FD DUP4 PUSH2 0x2339 JUMP JUMPDEST SWAP1 SWAP2 SSTORE POP PUSH1 0x40 DUP1 MLOAD SWAP2 DUP3 MSTORE PUSH1 0x60 PUSH1 0x20 DUP4 ADD DUP2 SWAP1 MSTORE PUSH1 0xF SWAP1 DUP4 ADD MSTORE PUSH15 0x141493D29150D50810D49150551151 PUSH1 0x8A SHL PUSH1 0x80 DUP4 ADD MSTORE TIMESTAMP SWAP1 DUP3 ADD MSTORE PUSH1 0xA0 ADD PUSH1 0x40 MLOAD DUP1 SWAP2 SUB SWAP1 LOG2 POP PUSH1 0x1 SWAP8 SWAP7 POP POP POP POP POP POP POP JUMP JUMPDEST PUSH1 0x0 SLOAD PUSH1 0x1 PUSH1 0x1 PUSH1 0xA0 SHL SUB AND CALLER EQ PUSH2 0x89D JUMPI PUSH1 0x40 MLOAD PUSH3 0x461BCD PUSH1 0xE5 SHL DUP2 MSTORE PUSH1 0x20 PUSH1 0x4 DUP3 ADD MSTORE PUSH1 0x13 PUSH1 0x24 DUP3 ADD MSTORE PUSH19 0x4F776E6572207265736572766564206F6E6C79 PUSH1 0x68 SHL PUSH1 0x44 DUP3 ADD MSTORE PUSH1 0x64 ADD PUSH2 0x396 JUMP JUMPDEST PUSH1 0x1 SSTORE JUMP JUMPDEST PUSH1 0x0 DUP1 PUSH1 0x7 DUP4 DUP2 SLOAD DUP2 LT PUSH2 0x8B8 JUMPI PUSH2 0x8B8 PUSH2 0x2354 JUMP JUMPDEST PUSH1 0x0 SWAP2 DUP3 MSTORE PUSH1 0x20 SWAP1 SWAP2 KECCAK256 PUSH1 0xA PUSH1 0xC SWAP1 SWAP3 MUL ADD ADD SLOAD PUSH1 0xFF AND PUSH1 0x4 DUP2 GT ISZERO PUSH2 0x8E0 JUMPI PUSH2 0x8E0 PUSH2 0x2178 JUMP JUMPDEST EQ PUSH2 0x928 JUMPI PUSH1 0x40 MLOAD PUSH3 0x461BCD PUSH1 0xE5 SHL DUP2 MSTORE PUSH1 0x20 PUSH1 0x4 DUP3 ADD MSTORE PUSH1 0x18 PUSH1 0x24 DUP3 ADD MSTORE PUSH24 0x141C9BDA9958DD081B9BC81B1BDB99D95C881BDC195B9959 PUSH1 0x42 SHL PUSH1 0x44 DUP3 ADD MSTORE PUSH1 0x64 ADD PUSH2 0x396 JUMP JUMPDEST PUSH1 0x7 DUP3 DUP2 SLOAD DUP2 LT PUSH2 0x93B JUMPI PUSH2 0x93B PUSH2 0x2354 JUMP JUMPDEST PUSH1 0x0 SWAP2 DUP3 MSTORE PUSH1 0x20 SWAP1 SWAP2 KECCAK256 PUSH1 0xC SWAP1 SWAP2 MUL ADD PUSH1 0x1 ADD SLOAD PUSH1 0x1 PUSH1 0x1 PUSH1 0xA0 SHL SUB AND CALLER EQ PUSH2 0x976 JUMPI PUSH1 0x40 MLOAD PUSH3 0x461BCD PUSH1 0xE5 SHL DUP2 MSTORE PUSH1 0x4 ADD PUSH2 0x396 SWAP1 PUSH2 0x236A JUMP JUMPDEST PUSH1 0x3 PUSH1 0x7 DUP4 DUP2 SLOAD DUP2 LT PUSH2 0x98B JUMPI PUSH2 0x98B PUSH2 0x2354 JUMP JUMPDEST PUSH1 0x0 SWAP2 DUP3 MSTORE PUSH1 0x20 SWAP1 SWAP2 KECCAK256 PUSH1 0xA PUSH1 0xC SWAP1 SWAP3 MUL ADD ADD DUP1 SLOAD PUSH1 0xFF NOT AND PUSH1 0x1 DUP4 PUSH1 0x4 DUP2 GT ISZERO PUSH2 0x9B8 JUMPI PUSH2 0x9B8 PUSH2 0x2178 JUMP JUMPDEST MUL OR SWAP1 SSTORE POP PUSH2 0x9C6 DUP3 PUSH2 0x1A3E JUMP JUMPDEST PUSH1 0x40 DUP1 MLOAD DUP4 DUP2 MSTORE PUSH1 0x60 PUSH1 0x20 DUP3 ADD DUP2 SWAP1 MSTORE PUSH1 0xF SWAP1 DUP3 ADD MSTORE PUSH15 0x141493D29150D50811115311551151 PUSH1 0x8A SHL PUSH1 0x80 DUP3 ADD MSTORE TIMESTAMP DUP2 DUP4 ADD MSTORE SWAP1 MLOAD CALLER SWAP2 PUSH1 0x0 DUP1 MLOAD PUSH1 0x20 PUSH2 0x242B DUP4 CODECOPY DUP2 MLOAD SWAP2 MSTORE SWAP2 SWAP1 DUP2 SWAP1 SUB PUSH1 0xA0 ADD SWAP1 LOG2 POP PUSH1 0x1 SWAP2 SWAP1 POP JUMP JUMPDEST PUSH1 0x0 PUSH1 0x7 DUP8 DUP2 SLOAD DUP2 LT PUSH2 0xA33 JUMPI PUSH2 0xA33 PUSH2 0x2354 JUMP JUMPDEST PUSH1 0x0 SWAP2 DUP3 MSTORE PUSH1 0x20 SWAP1 SWAP2 KECCAK256 PUSH1 0xC SWAP1 SWAP2 MUL ADD PUSH1 0x1 ADD SLOAD PUSH1 0x1 PUSH1 0x1 PUSH1 0xA0 SHL SUB AND CALLER EQ PUSH2 0xA6E JUMPI PUSH1 0x40 MLOAD PUSH3 0x461BCD PUSH1 0xE5 SHL DUP2 MSTORE PUSH1 0x4 ADD PUSH2 0x396 SWAP1 PUSH2 0x236A JUMP JUMPDEST PUSH1 0x0 DUP7 MLOAD GT PUSH2 0xAB7 JUMPI PUSH1 0x40 MLOAD PUSH3 0x461BCD PUSH1 0xE5 SHL DUP2 MSTORE PUSH1 0x20 PUSH1 0x4 DUP3 ADD MSTORE PUSH1 0x15 PUSH1 0x24 DUP3 ADD MSTORE PUSH21 0x5469746C652063616E6E6F7420626520656D707479 PUSH1 0x58 SHL PUSH1 0x44 DUP3 ADD MSTORE PUSH1 0x64 ADD PUSH2 0x396 JUMP JUMPDEST PUSH1 0x0 DUP6 MLOAD GT PUSH2 0xB08 JUMPI PUSH1 0x40 MLOAD PUSH3 0x461BCD PUSH1 0xE5 SHL DUP2 MSTORE PUSH1 0x20 PUSH1 0x4 DUP3 ADD MSTORE PUSH1 0x1B PUSH1 0x24 DUP3 ADD MSTORE PUSH32 0x4465736372697074696F6E2063616E6E6F7420626520656D7074790000000000 PUSH1 0x44 DUP3 ADD MSTORE PUSH1 0x64 ADD PUSH2 0x396 JUMP JUMPDEST PUSH1 0x0 DUP5 MLOAD GT PUSH2 0xB54 JUMPI PUSH1 0x40 MLOAD PUSH3 0x461BCD PUSH1 0xE5 SHL DUP2 MSTORE PUSH1 0x20 PUSH1 0x4 DUP3 ADD MSTORE PUSH1 0x18 PUSH1 0x24 DUP3 ADD MSTORE PUSH24 0x496D61676555524C2063616E6E6F7420626520656D707479 PUSH1 0x40 SHL PUSH1 0x44 DUP3 ADD MSTORE PUSH1 0x64 ADD PUSH2 0x396 JUMP JUMPDEST PUSH1 0x0 DUP3 MLOAD GT PUSH2 0xB9E JUMPI PUSH1 0x40 MLOAD PUSH3 0x461BCD PUSH1 0xE5 SHL DUP2 MSTORE PUSH1 0x20 PUSH1 0x4 DUP3 ADD MSTORE PUSH1 0x16 PUSH1 0x24 DUP3 ADD MSTORE PUSH22 0x5379617261742063616E6E6F7420626520656D707479 PUSH1 0x50 SHL PUSH1 0x44 DUP3 ADD MSTORE PUSH1 0x64 ADD PUSH2 0x396 JUMP JUMPDEST DUP6 PUSH1 0x7 DUP9 DUP2 SLOAD DUP2 LT PUSH2 0xBB2 JUMPI PUSH2 0xBB2 PUSH2 0x2354 JUMP JUMPDEST SWAP1 PUSH1 0x0 MSTORE PUSH1 0x20 PUSH1 0x0 KECCAK256 SWAP1 PUSH1 0xC MUL ADD PUSH1 0x2 ADD SWAP1 DUP1 MLOAD SWAP1 PUSH1 0x20 ADD SWAP1 PUSH2 0xBD6 SWAP3 SWAP2 SWAP1 PUSH2 0x1E03 JUMP JUMPDEST POP DUP5 PUSH1 0x7 DUP9 DUP2 SLOAD DUP2 LT PUSH2 0xBEB JUMPI PUSH2 0xBEB PUSH2 0x2354 JUMP JUMPDEST SWAP1 PUSH1 0x0 MSTORE PUSH1 0x20 PUSH1 0x0 KECCAK256 SWAP1 PUSH1 0xC MUL ADD PUSH1 0x3 ADD SWAP1 DUP1 MLOAD SWAP1 PUSH1 0x20 ADD SWAP1 PUSH2 0xC0F SWAP3 SWAP2 SWAP1 PUSH2 0x1E03 JUMP JUMPDEST POP DUP4 PUSH1 0x7 DUP9 DUP2 SLOAD DUP2 LT PUSH2 0xC24 JUMPI PUSH2 0xC24 PUSH2 0x2354 JUMP JUMPDEST SWAP1 PUSH1 0x0 MSTORE PUSH1 0x20 PUSH1 0x0 KECCAK256 SWAP1 PUSH1 0xC MUL ADD PUSH1 0x4 ADD SWAP1 DUP1 MLOAD SWAP1 PUSH1 0x20 ADD SWAP1 PUSH2 0xC48 SWAP3 SWAP2 SWAP1 PUSH2 0x1E03 JUMP JUMPDEST POP DUP3 PUSH1 0x7 DUP9 DUP2 SLOAD DUP2 LT PUSH2 0xC5D JUMPI PUSH2 0xC5D PUSH2 0x2354 JUMP JUMPDEST SWAP1 PUSH1 0x0 MSTORE PUSH1 0x20 PUSH1 0x0 KECCAK256 SWAP1 PUSH1 0xC MUL ADD PUSH1 0x8 ADD DUP2 SWAP1 SSTORE POP DUP2 PUSH1 0x7 DUP9 DUP2 SLOAD DUP2 LT PUSH2 0xC86 JUMPI PUSH2 0xC86 PUSH2 0x2354 JUMP JUMPDEST SWAP1 PUSH1 0x0 MSTORE PUSH1 0x20 PUSH1 0x0 KECCAK256 SWAP1 PUSH1 0xC MUL ADD PUSH1 0xB ADD SWAP1 DUP1 MLOAD SWAP1 PUSH1 0x20 ADD SWAP1 PUSH2 0xCAA SWAP3 SWAP2 SWAP1 PUSH2 0x1E03 JUMP JUMPDEST POP PUSH1 0x40 DUP1 MLOAD DUP9 DUP2 MSTORE PUSH1 0x60 PUSH1 0x20 DUP3 ADD DUP2 SWAP1 MSTORE PUSH1 0xF SWAP1 DUP3 ADD MSTORE PUSH15 0x141493D29150D50815541110551151 PUSH1 0x8A SHL PUSH1 0x80 DUP3 ADD MSTORE TIMESTAMP DUP2 DUP4 ADD MSTORE SWAP1 MLOAD CALLER SWAP2 PUSH1 0x0 DUP1 MLOAD PUSH1 0x20 PUSH2 0x242B DUP4 CODECOPY DUP2 MLOAD SWAP2 MSTORE SWAP2 SWAP1 DUP2 SWAP1 SUB PUSH1 0xA0 ADD SWAP1 LOG2 POP PUSH1 0x1 SWAP7 SWAP6 POP POP POP POP POP POP JUMP JUMPDEST PUSH1 0x0 DUP1 CALLVALUE GT PUSH2 0xD59 JUMPI PUSH1 0x40 MLOAD PUSH3 0x461BCD PUSH1 0xE5 SHL DUP2 MSTORE PUSH1 0x20 PUSH1 0x4 DUP3 ADD MSTORE PUSH1 0x1F PUSH1 0x24 DUP3 ADD MSTORE PUSH32 0x4574686572206D7573742062652067726561746572207468616E207A65726F00 PUSH1 0x44 DUP3 ADD MSTORE PUSH1 0x64 ADD PUSH2 0x396 JUMP JUMPDEST PUSH1 0x0 DUP3 DUP2 MSTORE PUSH1 0xA PUSH1 0x20 MSTORE PUSH1 0x40 SWAP1 KECCAK256 SLOAD PUSH1 0xFF AND PUSH2 0xDAB JUMPI PUSH1 0x40 MLOAD PUSH3 0x461BCD PUSH1 0xE5 SHL DUP2 MSTORE PUSH1 0x20 PUSH1 0x4 DUP3 ADD MSTORE PUSH1 0x11 PUSH1 0x24 DUP3 ADD MSTORE PUSH17 0x141C9BDA9958DD081B9BDD08199BDD5B99 PUSH1 0x7A SHL PUSH1 0x44 DUP3 ADD MSTORE PUSH1 0x64 ADD PUSH2 0x396 JUMP JUMPDEST PUSH1 0x0 PUSH1 0x7 DUP4 DUP2 SLOAD DUP2 LT PUSH2 0xDC0 JUMPI PUSH2 0xDC0 PUSH2 0x2354 JUMP JUMPDEST PUSH1 0x0 SWAP2 DUP3 MSTORE PUSH1 0x20 SWAP1 SWAP2 KECCAK256 PUSH1 0xA PUSH1 0xC SWAP1 SWAP3 MUL ADD ADD SLOAD PUSH1 0xFF AND PUSH1 0x4 DUP2 GT ISZERO PUSH2 0xDE8 JUMPI PUSH2 0xDE8 PUSH2 0x2178 JUMP JUMPDEST EQ PUSH2 0xE30 JUMPI PUSH1 0x40 MLOAD PUSH3 0x461BCD PUSH1 0xE5 SHL DUP2 MSTORE PUSH1 0x20 PUSH1 0x4 DUP3 ADD MSTORE PUSH1 0x18 PUSH1 0x24 DUP3 ADD MSTORE PUSH24 0x141C9BDA9958DD081B9BC81B1BDB99D95C881BDC195B9959 PUSH1 0x42 SHL PUSH1 0x44 DUP3 ADD MSTORE PUSH1 0x64 ADD PUSH2 0x396 JUMP JUMPDEST PUSH1 0x1 PUSH1 0x4 PUSH1 0x1 ADD PUSH1 0x0 DUP3 DUP3 SLOAD PUSH2 0xE46 SWAP2 SWAP1 PUSH2 0x2321 JUMP JUMPDEST SWAP1 SWAP2 SSTORE POP POP PUSH1 0x6 DUP1 SLOAD CALLVALUE SWAP2 SWAP1 PUSH1 0x0 SWAP1 PUSH2 0xE60 SWAP1 DUP5 SWAP1 PUSH2 0x2321 JUMP JUMPDEST SWAP3 POP POP DUP2 SWAP1 SSTORE POP CALLVALUE PUSH1 0x7 DUP4 DUP2 SLOAD DUP2 LT PUSH2 0xE7B JUMPI PUSH2 0xE7B PUSH2 0x2354 JUMP JUMPDEST SWAP1 PUSH1 0x0 MSTORE PUSH1 0x20 PUSH1 0x0 KECCAK256 SWAP1 PUSH1 0xC MUL ADD PUSH1 0x6 ADD PUSH1 0x0 DUP3 DUP3 SLOAD PUSH2 0xE9B SWAP2 SWAP1 PUSH2 0x2321 JUMP JUMPDEST SWAP3 POP POP DUP2 SWAP1 SSTORE POP PUSH1 0x1 PUSH1 0x7 DUP4 DUP2 SLOAD DUP2 LT PUSH2 0xEB7 JUMPI PUSH2 0xEB7 PUSH2 0x2354 JUMP JUMPDEST SWAP1 PUSH1 0x0 MSTORE PUSH1 0x20 PUSH1 0x0 KECCAK256 SWAP1 PUSH1 0xC MUL ADD PUSH1 0x9 ADD PUSH1 0x0 DUP3 DUP3 SLOAD PUSH2 0xED7 SWAP2 SWAP1 PUSH2 0x2321 JUMP JUMPDEST SWAP1 SWAP2 SSTORE POP POP PUSH1 0x0 DUP3 DUP2 MSTORE PUSH1 0x9 PUSH1 0x20 SWAP1 DUP2 MSTORE PUSH1 0x40 DUP1 DUP4 KECCAK256 DUP2 MLOAD PUSH1 0x80 DUP1 DUP3 ADD DUP5 MSTORE CALLER DUP1 DUP4 MSTORE CALLVALUE DUP4 DUP8 ADD SWAP1 DUP2 MSTORE TIMESTAMP DUP5 DUP8 ADD DUP2 DUP2 MSTORE PUSH1 0x60 DUP1 DUP8 ADD DUP12 DUP2 MSTORE DUP9 SLOAD PUSH1 0x1 DUP1 DUP3 ADD DUP12 SSTORE SWAP10 DUP14 MSTORE SWAP12 DUP12 SWAP1 KECCAK256 SWAP8 MLOAD PUSH1 0x4 SWAP1 SWAP13 MUL SWAP1 SWAP8 ADD DUP1 SLOAD PUSH1 0x1 PUSH1 0x1 PUSH1 0xA0 SHL SUB NOT AND PUSH1 0x1 PUSH1 0x1 PUSH1 0xA0 SHL SUB SWAP1 SWAP13 AND SWAP12 SWAP1 SWAP12 OR DUP12 SSTORE SWAP3 MLOAD SWAP7 DUP11 ADD SWAP7 SWAP1 SWAP7 SSTORE SWAP5 MLOAD PUSH1 0x2 DUP10 ADD SSTORE SWAP3 MLOAD PUSH1 0x3 SWAP1 SWAP8 ADD DUP1 SLOAD PUSH1 0xFF NOT AND SWAP8 ISZERO ISZERO SWAP8 SWAP1 SWAP8 OR SWAP1 SWAP7 SSTORE DUP4 MLOAD DUP9 DUP2 MSTORE SWAP5 DUP6 ADD DUP3 SWAP1 MSTORE PUSH1 0xE SWAP2 DUP6 ADD SWAP2 SWAP1 SWAP2 MSTORE PUSH14 0x141493D29150D508109050D2D151 PUSH1 0x92 SHL SWAP1 DUP5 ADD MSTORE SWAP1 DUP3 ADD MSTORE PUSH1 0x0 DUP1 MLOAD PUSH1 0x20 PUSH2 0x242B DUP4 CODECOPY DUP2 MLOAD SWAP2 MSTORE SWAP1 PUSH1 0xA0 ADD PUSH1 0x40 MLOAD DUP1 SWAP2 SUB SWAP1 LOG2 PUSH1 0x7 DUP3 DUP2 SLOAD DUP2 LT PUSH2 0xFCA JUMPI PUSH2 0xFCA PUSH2 0x2354 JUMP JUMPDEST SWAP1 PUSH1 0x0 MSTORE PUSH1 0x20 PUSH1 0x0 KECCAK256 SWAP1 PUSH1 0xC MUL ADD PUSH1 0x5 ADD SLOAD PUSH1 0x7 DUP4 DUP2 SLOAD DUP2 LT PUSH2 0xFEF JUMPI PUSH2 0xFEF PUSH2 0x2354 JUMP JUMPDEST SWAP1 PUSH1 0x0 MSTORE PUSH1 0x20 PUSH1 0x0 KECCAK256 SWAP1 PUSH1 0xC MUL ADD PUSH1 0x6 ADD SLOAD LT PUSH2 0x109A JUMPI PUSH1 0x1 PUSH1 0x7 DUP4 DUP2 SLOAD DUP2 LT PUSH2 0x101B JUMPI PUSH2 0x101B PUSH2 0x2354 JUMP JUMPDEST PUSH1 0x0 SWAP2 DUP3 MSTORE PUSH1 0x20 SWAP1 SWAP2 KECCAK256 PUSH1 0xA PUSH1 0xC SWAP1 SWAP3 MUL ADD ADD DUP1 SLOAD PUSH1 0xFF NOT AND PUSH1 0x1 DUP4 PUSH1 0x4 DUP2 GT ISZERO PUSH2 0x1048 JUMPI PUSH2 0x1048 PUSH2 0x2178 JUMP JUMPDEST MUL OR SWAP1 SSTORE POP PUSH1 0x7 DUP3 DUP2 SLOAD DUP2 LT PUSH2 0x1060 JUMPI PUSH2 0x1060 PUSH2 0x2354 JUMP JUMPDEST SWAP1 PUSH1 0x0 MSTORE PUSH1 0x20 PUSH1 0x0 KECCAK256 SWAP1 PUSH1 0xC MUL ADD PUSH1 0x6 ADD SLOAD PUSH1 0x3 PUSH1 0x0 DUP3 DUP3 SLOAD PUSH2 0x1083 SWAP2 SWAP1 PUSH2 0x2321 JUMP JUMPDEST SWAP1 SWAP2 SSTORE POP PUSH2 0x1092 SWAP1 POP DUP3 PUSH2 0x1BAC JUMP JUMPDEST POP PUSH1 0x1 SWAP2 SWAP1 POP JUMP JUMPDEST PUSH1 0x7 DUP3 DUP2 SLOAD DUP2 LT PUSH2 0x10AD JUMPI PUSH2 0x10AD PUSH2 0x2354 JUMP JUMPDEST SWAP1 PUSH1 0x0 MSTORE PUSH1 0x20 PUSH1 0x0 KECCAK256 SWAP1 PUSH1 0xC MUL ADD PUSH1 0x8 ADD SLOAD TIMESTAMP LT PUSH2 0x1092 JUMPI PUSH1 0x2 PUSH1 0x7 DUP4 DUP2 SLOAD DUP2 LT PUSH2 0x10DA JUMPI PUSH2 0x10DA PUSH2 0x2354 JUMP JUMPDEST PUSH1 0x0 SWAP2 DUP3 MSTORE PUSH1 0x20 SWAP1 SWAP2 KECCAK256 PUSH1 0xA PUSH1 0xC SWAP1 SWAP3 MUL ADD ADD DUP1 SLOAD PUSH1 0xFF NOT AND PUSH1 0x1 DUP4 PUSH1 0x4 DUP2 GT ISZERO PUSH2 0x1107 JUMPI PUSH2 0x1107 PUSH2 0x2178 JUMP JUMPDEST MUL OR SWAP1 SSTORE POP PUSH2 0x1092 DUP3 PUSH2 0x1A3E JUMP JUMPDEST PUSH1 0x0 PUSH1 0x2 PUSH1 0x7 DUP4 DUP2 SLOAD DUP2 LT PUSH2 0x112C JUMPI PUSH2 0x112C PUSH2 0x2354 JUMP JUMPDEST PUSH1 0x0 SWAP2 DUP3 MSTORE PUSH1 0x20 SWAP1 SWAP2 KECCAK256 PUSH1 0xA PUSH1 0xC SWAP1 SWAP3 MUL ADD ADD SLOAD PUSH1 0xFF AND PUSH1 0x4 DUP2 GT ISZERO PUSH2 0x1154 JUMPI PUSH2 0x1154 PUSH2 0x2178 JUMP JUMPDEST EQ ISZERO DUP1 PUSH2 0x119C JUMPI POP PUSH1 0x3 PUSH1 0x7 DUP4 DUP2 SLOAD DUP2 LT PUSH2 0x1171 JUMPI PUSH2 0x1171 PUSH2 0x2354 JUMP JUMPDEST PUSH1 0x0 SWAP2 DUP3 MSTORE PUSH1 0x20 SWAP1 SWAP2 KECCAK256 PUSH1 0xA PUSH1 0xC SWAP1 SWAP3 MUL ADD ADD SLOAD PUSH1 0xFF AND PUSH1 0x4 DUP2 GT ISZERO PUSH2 0x1199 JUMPI PUSH2 0x1199 PUSH2 0x2178 JUMP JUMPDEST EQ ISZERO JUMPDEST PUSH2 0x11F7 JUMPI PUSH1 0x40 MLOAD PUSH3 0x461BCD PUSH1 0xE5 SHL DUP2 MSTORE PUSH1 0x20 PUSH1 0x4 DUP3 ADD MSTORE PUSH1 0x26 PUSH1 0x24 DUP3 ADD MSTORE PUSH32 0x50726F6A656374206E6F74206D61726B656420617320726576657274206F7220 PUSH1 0x44 DUP3 ADD MSTORE PUSH6 0x64656C657465 PUSH1 0xD0 SHL PUSH1 0x64 DUP3 ADD MSTORE PUSH1 0x84 ADD PUSH2 0x396 JUMP JUMPDEST PUSH1 0x2 PUSH1 0x7 DUP4 DUP2 SLOAD DUP2 LT PUSH2 0x10DA JUMPI PUSH2 0x10DA PUSH2 0x2354 JUMP JUMPDEST PUSH1 0x0 PUSH1 0x1 PUSH1 0x7 DUP4 DUP2 SLOAD DUP2 LT PUSH2 0x1223 JUMPI PUSH2 0x1223 PUSH2 0x2354 JUMP JUMPDEST PUSH1 0x0 SWAP2 DUP3 MSTORE PUSH1 0x20 SWAP1 SWAP2 KECCAK256 PUSH1 0xA PUSH1 0xC SWAP1 SWAP3 MUL ADD ADD SLOAD PUSH1 0xFF AND PUSH1 0x4 DUP2 GT ISZERO PUSH2 0x124B JUMPI PUSH2 0x124B PUSH2 0x2178 JUMP JUMPDEST EQ PUSH2 0x128F JUMPI PUSH1 0x40 MLOAD PUSH3 0x461BCD PUSH1 0xE5 SHL DUP2 MSTORE PUSH1 0x20 PUSH1 0x4 DUP3 ADD MSTORE PUSH1 0x14 PUSH1 0x24 DUP3 ADD MSTORE PUSH20 0x141C9BDA9958DD081B9BDD081054141493D59151 PUSH1 0x62 SHL PUSH1 0x44 DUP3 ADD MSTORE PUSH1 0x64 ADD PUSH2 0x396 JUMP JUMPDEST PUSH1 0x7 DUP3 DUP2 SLOAD DUP2 LT PUSH2 0x12A2 JUMPI PUSH2 0x12A2 PUSH2 0x2354 JUMP JUMPDEST PUSH1 0x0 SWAP2 DUP3 MSTORE PUSH1 0x20 SWAP1 SWAP2 KECCAK256 PUSH1 0xC SWAP1 SWAP2 MUL ADD PUSH1 0x1 ADD SLOAD PUSH1 0x1 PUSH1 0x1 PUSH1 0xA0 SHL SUB AND CALLER EQ DUP1 PUSH2 0x12D6 JUMPI POP PUSH1 0x0 SLOAD PUSH1 0x1 PUSH1 0x1 PUSH1 0xA0 SHL SUB AND CALLER EQ JUMPDEST PUSH2 0x12F2 JUMPI PUSH1 0x40 MLOAD PUSH3 0x461BCD PUSH1 0xE5 SHL DUP2 MSTORE PUSH1 0x4 ADD PUSH2 0x396 SWAP1 PUSH2 0x236A JUMP JUMPDEST PUSH2 0x1092 DUP3 PUSH2 0x1BAC JUMP JUMPDEST PUSH1 0x60 PUSH1 0x9 PUSH1 0x0 DUP4 DUP2 MSTORE PUSH1 0x20 ADD SWAP1 DUP2 MSTORE PUSH1 0x20 ADD PUSH1 0x0 KECCAK256 DUP1 SLOAD DUP1 PUSH1 0x20 MUL PUSH1 0x20 ADD PUSH1 0x40 MLOAD SWAP1 DUP2 ADD PUSH1 0x40 MSTORE DUP1 SWAP3 SWAP2 SWAP1 DUP2 DUP2 MSTORE PUSH1 0x20 ADD PUSH1 0x0 SWAP1 JUMPDEST DUP3 DUP3 LT ISZERO PUSH2 0x1392 JUMPI PUSH1 0x0 DUP5 DUP2 MSTORE PUSH1 0x20 SWAP1 DUP2 SWAP1 KECCAK256 PUSH1 0x40 DUP1 MLOAD PUSH1 0x80 DUP2 ADD DUP3 MSTORE PUSH1 0x4 DUP7 MUL SWAP1 SWAP3 ADD DUP1 SLOAD PUSH1 0x1 PUSH1 0x1 PUSH1 0xA0 SHL SUB AND DUP4 MSTORE PUSH1 0x1 DUP1 DUP3 ADD SLOAD DUP5 DUP7 ADD MSTORE PUSH1 0x2 DUP3 ADD SLOAD SWAP3 DUP5 ADD SWAP3 SWAP1 SWAP3 MSTORE PUSH1 0x3 ADD SLOAD PUSH1 0xFF AND ISZERO ISZERO PUSH1 0x60 DUP4 ADD MSTORE SWAP1 DUP4 MSTORE SWAP1 SWAP3 ADD SWAP2 ADD PUSH2 0x1330 JUMP JUMPDEST POP POP POP POP SWAP1 POP SWAP2 SWAP1 POP JUMP JUMPDEST PUSH1 0x60 PUSH1 0x7 DUP1 SLOAD DUP1 PUSH1 0x20 MUL PUSH1 0x20 ADD PUSH1 0x40 MLOAD SWAP1 DUP2 ADD PUSH1 0x40 MSTORE DUP1 SWAP3 SWAP2 SWAP1 DUP2 DUP2 MSTORE PUSH1 0x20 ADD PUSH1 0x0 SWAP1 JUMPDEST DUP3 DUP3 LT ISZERO PUSH2 0x16C1 JUMPI PUSH1 0x0 DUP5 DUP2 MSTORE PUSH1 0x20 SWAP1 DUP2 SWAP1 KECCAK256 PUSH1 0x40 DUP1 MLOAD PUSH2 0x180 DUP2 ADD DUP3 MSTORE PUSH1 0xC DUP7 MUL SWAP1 SWAP3 ADD DUP1 SLOAD DUP4 MSTORE PUSH1 0x1 DUP2 ADD SLOAD PUSH1 0x1 PUSH1 0x1 PUSH1 0xA0 SHL SUB AND SWAP4 DUP4 ADD SWAP4 SWAP1 SWAP4 MSTORE PUSH1 0x2 DUP4 ADD DUP1 SLOAD SWAP3 SWAP4 SWAP3 SWAP2 DUP5 ADD SWAP2 PUSH2 0x1415 SWAP1 PUSH2 0x2397 JUMP JUMPDEST DUP1 PUSH1 0x1F ADD PUSH1 0x20 DUP1 SWAP2 DIV MUL PUSH1 0x20 ADD PUSH1 0x40 MLOAD SWAP1 DUP2 ADD PUSH1 0x40 MSTORE DUP1 SWAP3 SWAP2 SWAP1 DUP2 DUP2 MSTORE PUSH1 0x20 ADD DUP3 DUP1 SLOAD PUSH2 0x1441 SWAP1 PUSH2 0x2397 JUMP JUMPDEST DUP1 ISZERO PUSH2 0x148E JUMPI DUP1 PUSH1 0x1F LT PUSH2 0x1463 JUMPI PUSH2 0x100 DUP1 DUP4 SLOAD DIV MUL DUP4 MSTORE SWAP2 PUSH1 0x20 ADD SWAP2 PUSH2 0x148E JUMP JUMPDEST DUP3 ADD SWAP2 SWAP1 PUSH1 0x0 MSTORE PUSH1 0x20 PUSH1 0x0 KECCAK256 SWAP1 JUMPDEST DUP2 SLOAD DUP2 MSTORE SWAP1 PUSH1 0x1 ADD SWAP1 PUSH1 0x20 ADD DUP1 DUP4 GT PUSH2 0x1471 JUMPI DUP3 SWAP1 SUB PUSH1 0x1F AND DUP3 ADD SWAP2 JUMPDEST POP POP POP POP POP DUP2 MSTORE PUSH1 0x20 ADD PUSH1 0x3 DUP3 ADD DUP1 SLOAD PUSH2 0x14A7 SWAP1 PUSH2 0x2397 JUMP JUMPDEST DUP1 PUSH1 0x1F ADD PUSH1 0x20 DUP1 SWAP2 DIV MUL PUSH1 0x20 ADD PUSH1 0x40 MLOAD SWAP1 DUP2 ADD PUSH1 0x40 MSTORE DUP1 SWAP3 SWAP2 SWAP1 DUP2 DUP2 MSTORE PUSH1 0x20 ADD DUP3 DUP1 SLOAD PUSH2 0x14D3 SWAP1 PUSH2 0x2397 JUMP JUMPDEST DUP1 ISZERO PUSH2 0x1520 JUMPI DUP1 PUSH1 0x1F LT PUSH2 0x14F5 JUMPI PUSH2 0x100 DUP1 DUP4 SLOAD DIV MUL DUP4 MSTORE SWAP2 PUSH1 0x20 ADD SWAP2 PUSH2 0x1520 JUMP JUMPDEST DUP3 ADD SWAP2 SWAP1 PUSH1 0x0 MSTORE PUSH1 0x20 PUSH1 0x0 KECCAK256 SWAP1 JUMPDEST DUP2 SLOAD DUP2 MSTORE SWAP1 PUSH1 0x1 ADD SWAP1 PUSH1 0x20 ADD DUP1 DUP4 GT PUSH2 0x1503 JUMPI DUP3 SWAP1 SUB PUSH1 0x1F AND DUP3 ADD SWAP2 JUMPDEST POP POP POP POP POP DUP2 MSTORE PUSH1 0x20 ADD PUSH1 0x4 DUP3 ADD DUP1 SLOAD PUSH2 0x1539 SWAP1 PUSH2 0x2397 JUMP JUMPDEST DUP1 PUSH1 0x1F ADD PUSH1 0x20 DUP1 SWAP2 DIV MUL PUSH1 0x20 ADD PUSH1 0x40 MLOAD SWAP1 DUP2 ADD PUSH1 0x40 MSTORE DUP1 SWAP3 SWAP2 SWAP1 DUP2 DUP2 MSTORE PUSH1 0x20 ADD DUP3 DUP1 SLOAD PUSH2 0x1565 SWAP1 PUSH2 0x2397 JUMP JUMPDEST DUP1 ISZERO PUSH2 0x15B2 JUMPI DUP1 PUSH1 0x1F LT PUSH2 0x1587 JUMPI PUSH2 0x100 DUP1 DUP4 SLOAD DIV MUL DUP4 MSTORE SWAP2 PUSH1 0x20 ADD SWAP2 PUSH2 0x15B2 JUMP JUMPDEST DUP3 ADD SWAP2 SWAP1 PUSH1 0x0 MSTORE PUSH1 0x20 PUSH1 0x0 KECCAK256 SWAP1 JUMPDEST DUP2 SLOAD DUP2 MSTORE SWAP1 PUSH1 0x1 ADD SWAP1 PUSH1 0x20 ADD DUP1 DUP4 GT PUSH2 0x1595 JUMPI DUP3 SWAP1 SUB PUSH1 0x1F AND DUP3 ADD SWAP2 JUMPDEST POP POP POP SWAP2 DUP4 MSTORE POP POP PUSH1 0x5 DUP3 ADD SLOAD PUSH1 0x20 DUP3 ADD MSTORE PUSH1 0x6 DUP3 ADD SLOAD PUSH1 0x40 DUP3 ADD MSTORE PUSH1 0x7 DUP3 ADD SLOAD PUSH1 0x60 DUP3 ADD MSTORE PUSH1 0x8 DUP3 ADD SLOAD PUSH1 0x80 DUP3 ADD MSTORE PUSH1 0x9 DUP3 ADD SLOAD PUSH1 0xA0 DUP3 ADD MSTORE PUSH1 0xA DUP3 ADD SLOAD PUSH1 0xC0 SWAP1 SWAP2 ADD SWAP1 PUSH1 0xFF AND PUSH1 0x4 DUP2 GT ISZERO PUSH2 0x160B JUMPI PUSH2 0x160B PUSH2 0x2178 JUMP JUMPDEST PUSH1 0x4 DUP2 GT ISZERO PUSH2 0x161C JUMPI PUSH2 0x161C PUSH2 0x2178 JUMP JUMPDEST DUP2 MSTORE PUSH1 0x20 ADD PUSH1 0xB DUP3 ADD DUP1 SLOAD PUSH2 0x1630 SWAP1 PUSH2 0x2397 JUMP JUMPDEST DUP1 PUSH1 0x1F ADD PUSH1 0x20 DUP1 SWAP2 DIV MUL PUSH1 0x20 ADD PUSH1 0x40 MLOAD SWAP1 DUP2 ADD PUSH1 0x40 MSTORE DUP1 SWAP3 SWAP2 SWAP1 DUP2 DUP2 MSTORE PUSH1 0x20 ADD DUP3 DUP1 SLOAD PUSH2 0x165C SWAP1 PUSH2 0x2397 JUMP JUMPDEST DUP1 ISZERO PUSH2 0x16A9 JUMPI DUP1 PUSH1 0x1F LT PUSH2 0x167E JUMPI PUSH2 0x100 DUP1 DUP4 SLOAD DIV MUL DUP4 MSTORE SWAP2 PUSH1 0x20 ADD SWAP2 PUSH2 0x16A9 JUMP JUMPDEST DUP3 ADD SWAP2 SWAP1 PUSH1 0x0 MSTORE PUSH1 0x20 PUSH1 0x0 KECCAK256 SWAP1 JUMPDEST DUP2 SLOAD DUP2 MSTORE SWAP1 PUSH1 0x1 ADD SWAP1 PUSH1 0x20 ADD DUP1 DUP4 GT PUSH2 0x168C JUMPI DUP3 SWAP1 SUB PUSH1 0x1F AND DUP3 ADD SWAP2 JUMPDEST POP POP POP POP POP DUP2 MSTORE POP POP DUP2 MSTORE PUSH1 0x20 ADD SWAP1 PUSH1 0x1 ADD SWAP1 PUSH2 0x13C1 JUMP JUMPDEST POP POP POP POP SWAP1 POP SWAP1 JUMP JUMPDEST PUSH2 0x16D2 PUSH2 0x1D88 JUMP JUMPDEST PUSH1 0x0 DUP3 DUP2 MSTORE PUSH1 0xA PUSH1 0x20 MSTORE PUSH1 0x40 SWAP1 KECCAK256 SLOAD PUSH1 0xFF AND PUSH2 0x1724 JUMPI PUSH1 0x40 MLOAD PUSH3 0x461BCD PUSH1 0xE5 SHL DUP2 MSTORE PUSH1 0x20 PUSH1 0x4 DUP3 ADD MSTORE PUSH1 0x11 PUSH1 0x24 DUP3 ADD MSTORE PUSH17 0x141C9BDA9958DD081B9BDD08199BDD5B99 PUSH1 0x7A SHL PUSH1 0x44 DUP3 ADD MSTORE PUSH1 0x64 ADD PUSH2 0x396 JUMP JUMPDEST PUSH1 0x7 DUP3 DUP2 SLOAD DUP2 LT PUSH2 0x1737 JUMPI PUSH2 0x1737 PUSH2 0x2354 JUMP JUMPDEST SWAP1 PUSH1 0x0 MSTORE PUSH1 0x20 PUSH1 0x0 KECCAK256 SWAP1 PUSH1 0xC MUL ADD PUSH1 0x40 MLOAD DUP1 PUSH2 0x180 ADD PUSH1 0x40 MSTORE SWAP1 DUP2 PUSH1 0x0 DUP3 ADD SLOAD DUP2 MSTORE PUSH1 0x20 ADD PUSH1 0x1 DUP3 ADD PUSH1 0x0 SWAP1 SLOAD SWAP1 PUSH2 0x100 EXP SWAP1 DIV PUSH1 0x1 PUSH1 0x1 PUSH1 0xA0 SHL SUB AND PUSH1 0x1 PUSH1 0x1 PUSH1 0xA0 SHL SUB AND PUSH1 0x1 PUSH1 0x1 PUSH1 0xA0 SHL SUB AND DUP2 MSTORE PUSH1 0x20 ADD PUSH1 0x2 DUP3 ADD DUP1 SLOAD PUSH2 0x179A SWAP1 PUSH2 0x2397 JUMP JUMPDEST DUP1 PUSH1 0x1F ADD PUSH1 0x20 DUP1 SWAP2 DIV MUL PUSH1 0x20 ADD PUSH1 0x40 MLOAD SWAP1 DUP2 ADD PUSH1 0x40 MSTORE DUP1 SWAP3 SWAP2 SWAP1 DUP2 DUP2 MSTORE PUSH1 0x20 ADD DUP3 DUP1 SLOAD PUSH2 0x17C6 SWAP1 PUSH2 0x2397 JUMP JUMPDEST DUP1 ISZERO PUSH2 0x1813 JUMPI DUP1 PUSH1 0x1F LT PUSH2 0x17E8 JUMPI PUSH2 0x100 DUP1 DUP4 SLOAD DIV MUL DUP4 MSTORE SWAP2 PUSH1 0x20 ADD SWAP2 PUSH2 0x1813 JUMP JUMPDEST DUP3 ADD SWAP2 SWAP1 PUSH1 0x0 MSTORE PUSH1 0x20 PUSH1 0x0 KECCAK256 SWAP1 JUMPDEST DUP2 SLOAD DUP2 MSTORE SWAP1 PUSH1 0x1 ADD SWAP1 PUSH1 0x20 ADD DUP1 DUP4 GT PUSH2 0x17F6 JUMPI DUP3 SWAP1 SUB PUSH1 0x1F AND DUP3 ADD SWAP2 JUMPDEST POP POP POP POP POP DUP2 MSTORE PUSH1 0x20 ADD PUSH1 0x3 DUP3 ADD DUP1 SLOAD PUSH2 0x182C SWAP1 PUSH2 0x2397 JUMP JUMPDEST DUP1 PUSH1 0x1F ADD PUSH1 0x20 DUP1 SWAP2 DIV MUL PUSH1 0x20 ADD PUSH1 0x40 MLOAD SWAP1 DUP2 ADD PUSH1 0x40 MSTORE DUP1 SWAP3 SWAP2 SWAP1 DUP2 DUP2 MSTORE PUSH1 0x20 ADD DUP3 DUP1 SLOAD PUSH2 0x1858 SWAP1 PUSH2 0x2397 JUMP JUMPDEST DUP1 ISZERO PUSH2 0x18A5 JUMPI DUP1 PUSH1 0x1F LT PUSH2 0x187A JUMPI PUSH2 0x100 DUP1 DUP4 SLOAD DIV MUL DUP4 MSTORE SWAP2 PUSH1 0x20 ADD SWAP2 PUSH2 0x18A5 JUMP JUMPDEST DUP3 ADD SWAP2 SWAP1 PUSH1 0x0 MSTORE PUSH1 0x20 PUSH1 0x0 KECCAK256 SWAP1 JUMPDEST DUP2 SLOAD DUP2 MSTORE SWAP1 PUSH1 0x1 ADD SWAP1 PUSH1 0x20 ADD DUP1 DUP4 GT PUSH2 0x1888 JUMPI DUP3 SWAP1 SUB PUSH1 0x1F AND DUP3 ADD SWAP2 JUMPDEST POP POP POP POP POP DUP2 MSTORE PUSH1 0x20 ADD PUSH1 0x4 DUP3 ADD DUP1 SLOAD PUSH2 0x18BE SWAP1 PUSH2 0x2397 JUMP JUMPDEST DUP1 PUSH1 0x1F ADD PUSH1 0x20 DUP1 SWAP2 DIV MUL PUSH1 0x20 ADD PUSH1 0x40 MLOAD SWAP1 DUP2 ADD PUSH1 0x40 MSTORE DUP1 SWAP3 SWAP2 SWAP1 DUP2 DUP2 MSTORE PUSH1 0x20 ADD DUP3 DUP1 SLOAD PUSH2 0x18EA SWAP1 PUSH2 0x2397 JUMP JUMPDEST DUP1 ISZERO PUSH2 0x1937 JUMPI DUP1 PUSH1 0x1F LT PUSH2 0x190C JUMPI PUSH2 0x100 DUP1 DUP4 SLOAD DIV MUL DUP4 MSTORE SWAP2 PUSH1 0x20 ADD SWAP2 PUSH2 0x1937 JUMP JUMPDEST DUP3 ADD SWAP2 SWAP1 PUSH1 0x0 MSTORE PUSH1 0x20 PUSH1 0x0 KECCAK256 SWAP1 JUMPDEST DUP2 SLOAD DUP2 MSTORE SWAP1 PUSH1 0x1 ADD SWAP1 PUSH1 0x20 ADD DUP1 DUP4 GT PUSH2 0x191A JUMPI DUP3 SWAP1 SUB PUSH1 0x1F AND DUP3 ADD SWAP2 JUMPDEST POP POP POP SWAP2 DUP4 MSTORE POP POP PUSH1 0x5 DUP3 ADD SLOAD PUSH1 0x20 DUP3 ADD MSTORE PUSH1 0x6 DUP3 ADD SLOAD PUSH1 0x40 DUP3 ADD MSTORE PUSH1 0x7 DUP3 ADD SLOAD PUSH1 0x60 DUP3 ADD MSTORE PUSH1 0x8 DUP3 ADD SLOAD PUSH1 0x80 DUP3 ADD MSTORE PUSH1 0x9 DUP3 ADD SLOAD PUSH1 0xA0 DUP3 ADD MSTORE PUSH1 0xA DUP3 ADD SLOAD PUSH1 0xC0 SWAP1 SWAP2 ADD SWAP1 PUSH1 0xFF AND PUSH1 0x4 DUP2 GT ISZERO PUSH2 0x1990 JUMPI PUSH2 0x1990 PUSH2 0x2178 JUMP JUMPDEST PUSH1 0x4 DUP2 GT ISZERO PUSH2 0x19A1 JUMPI PUSH2 0x19A1 PUSH2 0x2178 JUMP JUMPDEST DUP2 MSTORE PUSH1 0x20 ADD PUSH1 0xB DUP3 ADD DUP1 SLOAD PUSH2 0x19B5 SWAP1 PUSH2 0x2397 JUMP JUMPDEST DUP1 PUSH1 0x1F ADD PUSH1 0x20 DUP1 SWAP2 DIV MUL PUSH1 0x20 ADD PUSH1 0x40 MLOAD SWAP1 DUP2 ADD PUSH1 0x40 MSTORE DUP1 SWAP3 SWAP2 SWAP1 DUP2 DUP2 MSTORE PUSH1 0x20 ADD DUP3 DUP1 SLOAD PUSH2 0x19E1 SWAP1 PUSH2 0x2397 JUMP JUMPDEST DUP1 ISZERO PUSH2 0x1A2E JUMPI DUP1 PUSH1 0x1F LT PUSH2 0x1A03 JUMPI PUSH2 0x100 DUP1 DUP4 SLOAD DIV MUL DUP4 MSTORE SWAP2 PUSH1 0x20 ADD SWAP2 PUSH2 0x1A2E JUMP JUMPDEST DUP3 ADD SWAP2 SWAP1 PUSH1 0x0 MSTORE PUSH1 0x20 PUSH1 0x0 KECCAK256 SWAP1 JUMPDEST DUP2 SLOAD DUP2 MSTORE SWAP1 PUSH1 0x1 ADD SWAP1 PUSH1 0x20 ADD DUP1 DUP4 GT PUSH2 0x1A11 JUMPI DUP3 SWAP1 SUB PUSH1 0x1F AND DUP3 ADD SWAP2 JUMPDEST POP POP POP POP POP DUP2 MSTORE POP POP SWAP1 POP SWAP2 SWAP1 POP JUMP JUMPDEST PUSH1 0x0 JUMPDEST PUSH1 0x0 DUP3 DUP2 MSTORE PUSH1 0x9 PUSH1 0x20 MSTORE PUSH1 0x40 SWAP1 KECCAK256 SLOAD DUP2 LT ISZERO PUSH2 0x1BA8 JUMPI PUSH1 0x0 DUP3 DUP2 MSTORE PUSH1 0x9 PUSH1 0x20 MSTORE PUSH1 0x40 DUP2 KECCAK256 DUP1 SLOAD DUP4 SWAP1 DUP2 LT PUSH2 0x1A77 JUMPI PUSH2 0x1A77 PUSH2 0x2354 JUMP JUMPDEST PUSH1 0x0 SWAP2 DUP3 MSTORE PUSH1 0x20 DUP1 DUP4 KECCAK256 PUSH1 0x4 SWAP1 SWAP3 MUL SWAP1 SWAP2 ADD SLOAD DUP6 DUP4 MSTORE PUSH1 0x9 SWAP1 SWAP2 MSTORE PUSH1 0x40 DUP3 KECCAK256 DUP1 SLOAD PUSH1 0x1 PUSH1 0x1 PUSH1 0xA0 SHL SUB SWAP1 SWAP3 AND SWAP4 POP SWAP1 DUP5 SWAP1 DUP2 LT PUSH2 0x1AB6 JUMPI PUSH2 0x1AB6 PUSH2 0x2354 JUMP JUMPDEST SWAP1 PUSH1 0x0 MSTORE PUSH1 0x20 PUSH1 0x0 KECCAK256 SWAP1 PUSH1 0x4 MUL ADD PUSH1 0x1 ADD SLOAD SWAP1 POP PUSH1 0x1 PUSH1 0x9 PUSH1 0x0 DUP7 DUP2 MSTORE PUSH1 0x20 ADD SWAP1 DUP2 MSTORE PUSH1 0x20 ADD PUSH1 0x0 KECCAK256 DUP5 DUP2 SLOAD DUP2 LT PUSH2 0x1AF0 JUMPI PUSH2 0x1AF0 PUSH2 0x2354 JUMP JUMPDEST SWAP1 PUSH1 0x0 MSTORE PUSH1 0x20 PUSH1 0x0 KECCAK256 SWAP1 PUSH1 0x4 MUL ADD PUSH1 0x3 ADD PUSH1 0x0 PUSH2 0x100 EXP DUP2 SLOAD DUP2 PUSH1 0xFF MUL NOT AND SWAP1 DUP4 ISZERO ISZERO MUL OR SWAP1 SSTORE POP TIMESTAMP PUSH1 0x9 PUSH1 0x0 DUP7 DUP2 MSTORE PUSH1 0x20 ADD SWAP1 DUP2 MSTORE PUSH1 0x20 ADD PUSH1 0x0 KECCAK256 DUP5 DUP2 SLOAD DUP2 LT PUSH2 0x1B3D JUMPI PUSH2 0x1B3D PUSH2 0x2354 JUMP JUMPDEST SWAP1 PUSH1 0x0 MSTORE PUSH1 0x20 PUSH1 0x0 KECCAK256 SWAP1 PUSH1 0x4 MUL ADD PUSH1 0x2 ADD DUP2 SWAP1 SSTORE POP PUSH2 0x1B5C DUP3 DUP3 PUSH2 0x1D23 JUMP JUMPDEST PUSH1 0x1 PUSH1 0x4 PUSH1 0x1 ADD PUSH1 0x0 DUP3 DUP3 SLOAD PUSH2 0x1B72 SWAP2 SWAP1 PUSH2 0x23D2 JUMP JUMPDEST SWAP1 SWAP2 SSTORE POP POP PUSH1 0x6 DUP1 SLOAD DUP3 SWAP2 SWAP1 PUSH1 0x0 SWAP1 PUSH2 0x1B8C SWAP1 DUP5 SWAP1 PUSH2 0x23D2 JUMP JUMPDEST SWAP3 POP POP DUP2 SWAP1 SSTORE POP POP POP DUP1 DUP1 PUSH2 0x1BA0 SWAP1 PUSH2 0x2339 JUMP JUMPDEST SWAP2 POP POP PUSH2 0x1A41 JUMP JUMPDEST POP POP JUMP JUMPDEST PUSH1 0x0 PUSH1 0x7 DUP3 DUP2 SLOAD DUP2 LT PUSH2 0x1BC1 JUMPI PUSH2 0x1BC1 PUSH2 0x2354 JUMP JUMPDEST SWAP1 PUSH1 0x0 MSTORE PUSH1 0x20 PUSH1 0x0 KECCAK256 SWAP1 PUSH1 0xC MUL ADD PUSH1 0x6 ADD SLOAD SWAP1 POP PUSH1 0x0 PUSH1 0x64 PUSH1 0x1 SLOAD DUP4 PUSH2 0x1BE7 SWAP2 SWAP1 PUSH2 0x23E9 JUMP JUMPDEST PUSH2 0x1BF1 SWAP2 SWAP1 PUSH2 0x2408 JUMP JUMPDEST SWAP1 POP PUSH1 0x4 PUSH1 0x7 DUP5 DUP2 SLOAD DUP2 LT PUSH2 0x1C08 JUMPI PUSH2 0x1C08 PUSH2 0x2354 JUMP JUMPDEST PUSH1 0x0 SWAP2 DUP3 MSTORE PUSH1 0x20 SWAP1 SWAP2 KECCAK256 PUSH1 0xA PUSH1 0xC SWAP1 SWAP3 MUL ADD ADD DUP1 SLOAD PUSH1 0xFF NOT AND PUSH1 0x1 DUP4 PUSH1 0x4 DUP2 GT ISZERO PUSH2 0x1C35 JUMPI PUSH2 0x1C35 PUSH2 0x2178 JUMP JUMPDEST MUL OR SWAP1 SSTORE POP PUSH2 0x1C7C PUSH1 0x7 DUP5 DUP2 SLOAD DUP2 LT PUSH2 0x1C50 JUMPI PUSH2 0x1C50 PUSH2 0x2354 JUMP JUMPDEST PUSH1 0x0 SWAP2 DUP3 MSTORE PUSH1 0x20 SWAP1 SWAP2 KECCAK256 PUSH1 0x1 PUSH1 0xC SWAP1 SWAP3 MUL ADD ADD SLOAD PUSH1 0x1 PUSH1 0x1 PUSH1 0xA0 SHL SUB AND PUSH2 0x1C77 DUP4 DUP6 PUSH2 0x23D2 JUMP JUMPDEST PUSH2 0x1D23 JUMP JUMPDEST PUSH1 0x0 SLOAD PUSH2 0x1C92 SWAP1 PUSH1 0x1 PUSH1 0x1 PUSH1 0xA0 SHL SUB AND DUP3 PUSH2 0x1D23 JUMP JUMPDEST PUSH1 0x7 DUP4 DUP2 SLOAD DUP2 LT PUSH2 0x1CA5 JUMPI PUSH2 0x1CA5 PUSH2 0x2354 JUMP JUMPDEST SWAP1 PUSH1 0x0 MSTORE PUSH1 0x20 PUSH1 0x0 KECCAK256 SWAP1 PUSH1 0xC MUL ADD PUSH1 0x6 ADD SLOAD PUSH1 0x3 PUSH1 0x0 DUP3 DUP3 SLOAD PUSH2 0x1CC8 SWAP2 SWAP1 PUSH2 0x23D2 JUMP JUMPDEST SWAP1 SWAP2 SSTORE POP POP PUSH1 0x40 DUP1 MLOAD DUP5 DUP2 MSTORE PUSH1 0x60 PUSH1 0x20 DUP3 ADD DUP2 SWAP1 MSTORE PUSH1 0x10 SWAP1 DUP3 ADD MSTORE PUSH16 0x141493D29150D508141052510813D555 PUSH1 0x82 SHL PUSH1 0x80 DUP3 ADD MSTORE TIMESTAMP DUP2 DUP4 ADD MSTORE SWAP1 MLOAD CALLER SWAP2 PUSH1 0x0 DUP1 MLOAD PUSH1 0x20 PUSH2 0x242B DUP4 CODECOPY DUP2 MLOAD SWAP2 MSTORE SWAP2 SWAP1 DUP2 SWAP1 SUB PUSH1 0xA0 ADD SWAP1 LOG2 POP POP POP JUMP JUMPDEST PUSH1 0x0 DUP3 PUSH1 0x1 PUSH1 0x1 PUSH1 0xA0 SHL SUB AND DUP3 PUSH1 0x40 MLOAD PUSH1 0x0 PUSH1 0x40 MLOAD DUP1 DUP4 SUB DUP2 DUP6 DUP8 GAS CALL SWAP3 POP POP POP RETURNDATASIZE DUP1 PUSH1 0x0 DUP2 EQ PUSH2 0x1D70 JUMPI PUSH1 0x40 MLOAD SWAP2 POP PUSH1 0x1F NOT PUSH1 0x3F RETURNDATASIZE ADD AND DUP3 ADD PUSH1 0x40 MSTORE RETURNDATASIZE DUP3 MSTORE RETURNDATASIZE PUSH1 0x0 PUSH1 0x20 DUP5 ADD RETURNDATACOPY PUSH2 0x1D75 JUMP JUMPDEST PUSH1 0x60 SWAP2 POP JUMPDEST POP POP SWAP1 POP DUP1 PUSH2 0x1D83 JUMPI PUSH1 0x0 DUP1 REVERT JUMPDEST POP POP POP JUMP JUMPDEST PUSH1 0x40 MLOAD DUP1 PUSH2 0x180 ADD PUSH1 0x40 MSTORE DUP1 PUSH1 0x0 DUP2 MSTORE PUSH1 0x20 ADD PUSH1 0x0 PUSH1 0x1 PUSH1 0x1 PUSH1 0xA0 SHL SUB AND DUP2 MSTORE PUSH1 0x20 ADD PUSH1 0x60 DUP2 MSTORE PUSH1 0x20 ADD PUSH1 0x60 DUP2 MSTORE PUSH1 0x20 ADD PUSH1 0x60 DUP2 MSTORE PUSH1 0x20 ADD PUSH1 0x0 DUP2 MSTORE PUSH1 0x20 ADD PUSH1 0x0 DUP2 MSTORE PUSH1 0x20 ADD PUSH1 0x0 DUP2 MSTORE PUSH1 0x20 ADD PUSH1 0x0 DUP2 MSTORE PUSH1 0x20 ADD PUSH1 0x0 DUP2 MSTORE PUSH1 0x20 ADD PUSH1 0x0 PUSH1 0x4 DUP2 GT ISZERO PUSH2 0x1DF6 JUMPI PUSH2 0x1DF6 PUSH2 0x2178 JUMP JUMPDEST DUP2 MSTORE PUSH1 0x20 ADD PUSH1 0x60 DUP2 MSTORE POP SWAP1 JUMP JUMPDEST DUP3 DUP1 SLOAD PUSH2 0x1E0F SWAP1 PUSH2 0x2397 JUMP JUMPDEST SWAP1 PUSH1 0x0 MSTORE PUSH1 0x20 PUSH1 0x0 KECCAK256 SWAP1 PUSH1 0x1F ADD PUSH1 0x20 SWAP1 DIV DUP2 ADD SWAP3 DUP3 PUSH2 0x1E31 JUMPI PUSH1 0x0 DUP6 SSTORE PUSH2 0x1E77 JUMP JUMPDEST DUP3 PUSH1 0x1F LT PUSH2 0x1E4A JUMPI DUP1 MLOAD PUSH1 0xFF NOT AND DUP4 DUP1 ADD OR DUP6 SSTORE PUSH2 0x1E77 JUMP JUMPDEST DUP3 DUP1 ADD PUSH1 0x1 ADD DUP6 SSTORE DUP3 ISZERO PUSH2 0x1E77 JUMPI SWAP2 DUP3 ADD JUMPDEST DUP3 DUP2 GT ISZERO PUSH2 0x1E77 JUMPI DUP3 MLOAD DUP3 SSTORE SWAP2 PUSH1 0x20 ADD SWAP2 SWAP1 PUSH1 0x1 ADD SWAP1 PUSH2 0x1E5C JUMP JUMPDEST POP PUSH2 0x1E83 SWAP3 SWAP2 POP PUSH2 0x1E87 JUMP JUMPDEST POP SWAP1 JUMP JUMPDEST JUMPDEST DUP1 DUP3 GT ISZERO PUSH2 0x1E83 JUMPI PUSH1 0x0 DUP2 SSTORE PUSH1 0x1 ADD PUSH2 0x1E88 JUMP JUMPDEST PUSH4 0x4E487B71 PUSH1 0xE0 SHL PUSH1 0x0 MSTORE PUSH1 0x41 PUSH1 0x4 MSTORE PUSH1 0x24 PUSH1 0x0 REVERT JUMPDEST PUSH1 0x0 DUP3 PUSH1 0x1F DUP4 ADD SLT PUSH2 0x1EC3 JUMPI PUSH1 0x0 DUP1 REVERT JUMPDEST DUP2 CALLDATALOAD PUSH8 0xFFFFFFFFFFFFFFFF DUP1 DUP3 GT ISZERO PUSH2 0x1EDE JUMPI PUSH2 0x1EDE PUSH2 0x1E9C JUMP JUMPDEST PUSH1 0x40 MLOAD PUSH1 0x1F DUP4 ADD PUSH1 0x1F NOT SWAP1 DUP2 AND PUSH1 0x3F ADD AND DUP2 ADD SWAP1 DUP3 DUP3 GT DUP2 DUP4 LT OR ISZERO PUSH2 0x1F06 JUMPI PUSH2 0x1F06 PUSH2 0x1E9C JUMP JUMPDEST DUP2 PUSH1 0x40 MSTORE DUP4 DUP2 MSTORE DUP7 PUSH1 0x20 DUP6 DUP9 ADD ADD GT ISZERO PUSH2 0x1F1F JUMPI PUSH1 0x0 DUP1 REVERT JUMPDEST DUP4 PUSH1 0x20 DUP8 ADD PUSH1 0x20 DUP4 ADD CALLDATACOPY PUSH1 0x0 PUSH1 0x20 DUP6 DUP4 ADD ADD MSTORE DUP1 SWAP5 POP POP POP POP POP SWAP3 SWAP2 POP POP JUMP JUMPDEST PUSH1 0x0 DUP1 PUSH1 0x0 DUP1 PUSH1 0x0 DUP1 PUSH1 0xC0 DUP8 DUP10 SUB SLT ISZERO PUSH2 0x1F58 JUMPI PUSH1 0x0 DUP1 REVERT JUMPDEST DUP7 CALLDATALOAD PUSH8 0xFFFFFFFFFFFFFFFF DUP1 DUP3 GT ISZERO PUSH2 0x1F70 JUMPI PUSH1 0x0 DUP1 REVERT JUMPDEST PUSH2 0x1F7C DUP11 DUP4 DUP12 ADD PUSH2 0x1EB2 JUMP JUMPDEST SWAP8 POP PUSH1 0x20 DUP10 ADD CALLDATALOAD SWAP2 POP DUP1 DUP3 GT ISZERO PUSH2 0x1F92 JUMPI PUSH1 0x0 DUP1 REVERT JUMPDEST PUSH2 0x1F9E DUP11 DUP4 DUP12 ADD PUSH2 0x1EB2 JUMP JUMPDEST SWAP7 POP PUSH1 0x40 DUP10 ADD CALLDATALOAD SWAP2 POP DUP1 DUP3 GT ISZERO PUSH2 0x1FB4 JUMPI PUSH1 0x0 DUP1 REVERT JUMPDEST PUSH2 0x1FC0 DUP11 DUP4 DUP12 ADD PUSH2 0x1EB2 JUMP JUMPDEST SWAP6 POP PUSH1 0x60 DUP10 ADD CALLDATALOAD SWAP5 POP PUSH1 0x80 DUP10 ADD CALLDATALOAD SWAP4 POP PUSH1 0xA0 DUP10 ADD CALLDATALOAD SWAP2 POP DUP1 DUP3 GT ISZERO PUSH2 0x1FE4 JUMPI PUSH1 0x0 DUP1 REVERT JUMPDEST POP PUSH2 0x1FF1 DUP10 DUP3 DUP11 ADD PUSH2 0x1EB2 JUMP JUMPDEST SWAP2 POP POP SWAP3 SWAP6 POP SWAP3 SWAP6 POP SWAP3 SWAP6 JUMP JUMPDEST PUSH1 0x0 PUSH1 0x20 DUP3 DUP5 SUB SLT ISZERO PUSH2 0x2010 JUMPI PUSH1 0x0 DUP1 REVERT JUMPDEST POP CALLDATALOAD SWAP2 SWAP1 POP JUMP JUMPDEST PUSH1 0x0 DUP1 PUSH1 0x0 DUP1 PUSH1 0x0 DUP1 PUSH1 0xC0 DUP8 DUP10 SUB SLT ISZERO PUSH2 0x2030 JUMPI PUSH1 0x0 DUP1 REVERT JUMPDEST DUP7 CALLDATALOAD SWAP6 POP PUSH1 0x20 DUP8 ADD CALLDATALOAD PUSH8 0xFFFFFFFFFFFFFFFF DUP1 DUP3 GT ISZERO PUSH2 0x204F JUMPI PUSH1 0x0 DUP1 REVERT JUMPDEST PUSH2 0x205B DUP11 DUP4 DUP12 ADD PUSH2 0x1EB2 JUMP JUMPDEST SWAP7 POP PUSH1 0x40 DUP10 ADD CALLDATALOAD SWAP2 POP DUP1 DUP3 GT ISZERO PUSH2 0x2071 JUMPI PUSH1 0x0 DUP1 REVERT JUMPDEST PUSH2 0x207D DUP11 DUP4 DUP12 ADD PUSH2 0x1EB2 JUMP JUMPDEST SWAP6 POP PUSH1 0x60 DUP10 ADD CALLDATALOAD SWAP2 POP DUP1 DUP3 GT ISZERO PUSH2 0x2093 JUMPI PUSH1 0x0 DUP1 REVERT JUMPDEST PUSH2 0x209F DUP11 DUP4 DUP12 ADD PUSH2 0x1EB2 JUMP JUMPDEST SWAP5 POP PUSH1 0x80 DUP10 ADD CALLDATALOAD SWAP4 POP PUSH1 0xA0 DUP10 ADD CALLDATALOAD SWAP2 POP DUP1 DUP3 GT ISZERO PUSH2 0x1FE4 JUMPI PUSH1 0x0 DUP1 REVERT JUMPDEST PUSH1 0x20 DUP1 DUP3 MSTORE DUP3 MLOAD DUP3 DUP3 ADD DUP2 SWAP1 MSTORE PUSH1 0x0 SWAP2 SWAP1 PUSH1 0x40 SWAP1 DUP2 DUP6 ADD SWAP1 DUP7 DUP5 ADD DUP6 JUMPDEST DUP3 DUP2 LT ISZERO PUSH2 0x211E JUMPI DUP2 MLOAD DUP1 MLOAD PUSH1 0x1 PUSH1 0x1 PUSH1 0xA0 SHL SUB AND DUP6 MSTORE DUP7 DUP2 ADD MLOAD DUP8 DUP7 ADD MSTORE DUP6 DUP2 ADD MLOAD DUP7 DUP7 ADD MSTORE PUSH1 0x60 SWAP1 DUP2 ADD MLOAD ISZERO ISZERO SWAP1 DUP6 ADD MSTORE PUSH1 0x80 SWAP1 SWAP4 ADD SWAP3 SWAP1 DUP6 ADD SWAP1 PUSH1 0x1 ADD PUSH2 0x20D9 JUMP JUMPDEST POP SWAP2 SWAP8 SWAP7 POP POP POP POP POP POP POP JUMP JUMPDEST PUSH1 0x0 DUP2 MLOAD DUP1 DUP5 MSTORE PUSH1 0x0 JUMPDEST DUP2 DUP2 LT ISZERO PUSH2 0x2151 JUMPI PUSH1 0x20 DUP2 DUP6 ADD DUP2 ADD MLOAD DUP7 DUP4 ADD DUP3 ADD MSTORE ADD PUSH2 0x2135 JUMP JUMPDEST DUP2 DUP2 GT ISZERO PUSH2 0x2163 JUMPI PUSH1 0x0 PUSH1 0x20 DUP4 DUP8 ADD ADD MSTORE JUMPDEST POP PUSH1 0x1F ADD PUSH1 0x1F NOT AND SWAP3 SWAP1 SWAP3 ADD PUSH1 0x20 ADD SWAP3 SWAP2 POP POP JUMP JUMPDEST PUSH4 0x4E487B71 PUSH1 0xE0 SHL PUSH1 0x0 MSTORE PUSH1 0x21 PUSH1 0x4 MSTORE PUSH1 0x24 PUSH1 0x0 REVERT JUMPDEST PUSH1 0x5 DUP2 LT PUSH2 0x21AC JUMPI PUSH4 0x4E487B71 PUSH1 0xE0 SHL PUSH1 0x0 MSTORE PUSH1 0x21 PUSH1 0x4 MSTORE PUSH1 0x24 PUSH1 0x0 REVERT JUMPDEST SWAP1 MSTORE JUMP JUMPDEST PUSH1 0x0 PUSH2 0x180 DUP3 MLOAD DUP5 MSTORE PUSH1 0x20 DUP4 ADD MLOAD PUSH2 0x21D3 PUSH1 0x20 DUP7 ADD DUP3 PUSH1 0x1 PUSH1 0x1 PUSH1 0xA0 SHL SUB AND SWAP1 MSTORE JUMP JUMPDEST POP PUSH1 0x40 DUP4 ADD MLOAD DUP2 PUSH1 0x40 DUP7 ADD MSTORE PUSH2 0x21EB DUP3 DUP7 ADD DUP3 PUSH2 0x212B JUMP JUMPDEST SWAP2 POP POP PUSH1 0x60 DUP4 ADD MLOAD DUP5 DUP3 SUB PUSH1 0x60 DUP7 ADD MSTORE PUSH2 0x2205 DUP3 DUP3 PUSH2 0x212B JUMP JUMPDEST SWAP2 POP POP PUSH1 0x80 DUP4 ADD MLOAD DUP5 DUP3 SUB PUSH1 0x80 DUP7 ADD MSTORE PUSH2 0x221F DUP3 DUP3 PUSH2 0x212B JUMP JUMPDEST SWAP2 POP POP PUSH1 0xA0 DUP4 ADD MLOAD PUSH1 0xA0 DUP6 ADD MSTORE PUSH1 0xC0 DUP4 ADD MLOAD PUSH1 0xC0 DUP6 ADD MSTORE PUSH1 0xE0 DUP4 ADD MLOAD PUSH1 0xE0 DUP6 ADD MSTORE PUSH2 0x100 DUP1 DUP5 ADD MLOAD DUP2 DUP7 ADD MSTORE POP PUSH2 0x120 DUP1 DUP5 ADD MLOAD DUP2 DUP7 ADD MSTORE POP PUSH2 0x140 DUP1 DUP5 ADD MLOAD PUSH2 0x226B DUP3 DUP8 ADD DUP3 PUSH2 0x218E JUMP JUMPDEST POP POP PUSH2 0x160 DUP1 DUP5 ADD MLOAD DUP6 DUP4 SUB DUP3 DUP8 ADD MSTORE PUSH2 0x2285 DUP4 DUP3 PUSH2 0x212B JUMP JUMPDEST SWAP7 SWAP6 POP POP POP POP POP POP JUMP JUMPDEST PUSH1 0x0 PUSH1 0x20 DUP1 DUP4 ADD DUP2 DUP5 MSTORE DUP1 DUP6 MLOAD DUP1 DUP4 MSTORE PUSH1 0x40 DUP7 ADD SWAP2 POP PUSH1 0x40 DUP2 PUSH1 0x5 SHL DUP8 ADD ADD SWAP3 POP DUP4 DUP8 ADD PUSH1 0x0 JUMPDEST DUP3 DUP2 LT ISZERO PUSH2 0x22E4 JUMPI PUSH1 0x3F NOT DUP9 DUP7 SUB ADD DUP5 MSTORE PUSH2 0x22D2 DUP6 DUP4 MLOAD PUSH2 0x21B0 JUMP JUMPDEST SWAP5 POP SWAP3 DUP6 ADD SWAP3 SWAP1 DUP6 ADD SWAP1 PUSH1 0x1 ADD PUSH2 0x22B6 JUMP JUMPDEST POP SWAP3 SWAP8 SWAP7 POP POP POP POP POP POP POP JUMP JUMPDEST PUSH1 0x20 DUP2 MSTORE PUSH1 0x0 PUSH2 0x2304 PUSH1 0x20 DUP4 ADD DUP5 PUSH2 0x21B0 JUMP JUMPDEST SWAP4 SWAP3 POP POP POP JUMP JUMPDEST PUSH4 0x4E487B71 PUSH1 0xE0 SHL PUSH1 0x0 MSTORE PUSH1 0x11 PUSH1 0x4 MSTORE PUSH1 0x24 PUSH1 0x0 REVERT JUMPDEST PUSH1 0x0 DUP3 NOT DUP3 GT ISZERO PUSH2 0x2334 JUMPI PUSH2 0x2334 PUSH2 0x230B JUMP JUMPDEST POP ADD SWAP1 JUMP JUMPDEST PUSH1 0x0 PUSH1 0x0 NOT DUP3 EQ ISZERO PUSH2 0x234D JUMPI PUSH2 0x234D PUSH2 0x230B JUMP JUMPDEST POP PUSH1 0x1 ADD SWAP1 JUMP JUMPDEST PUSH4 0x4E487B71 PUSH1 0xE0 SHL PUSH1 0x0 MSTORE PUSH1 0x32 PUSH1 0x4 MSTORE PUSH1 0x24 PUSH1 0x0 REVERT JUMPDEST PUSH1 0x20 DUP1 DUP3 MSTORE PUSH1 0x13 SWAP1 DUP3 ADD MSTORE PUSH19 0x556E617574686F72697A656420456E74697479 PUSH1 0x68 SHL PUSH1 0x40 DUP3 ADD MSTORE PUSH1 0x60 ADD SWAP1 JUMP JUMPDEST PUSH1 0x1 DUP2 DUP2 SHR SWAP1 DUP3 AND DUP1 PUSH2 0x23AB JUMPI PUSH1 0x7F DUP3 AND SWAP2 POP JUMPDEST PUSH1 0x20 DUP3 LT DUP2 EQ ISZERO PUSH2 0x23CC JUMPI PUSH4 0x4E487B71 PUSH1 0xE0 SHL PUSH1 0x0 MSTORE PUSH1 0x22 PUSH1 0x4 MSTORE PUSH1 0x24 PUSH1 0x0 REVERT JUMPDEST POP SWAP2 SWAP1 POP JUMP JUMPDEST PUSH1 0x0 DUP3 DUP3 LT ISZERO PUSH2 0x23E4 JUMPI PUSH2 0x23E4 PUSH2 0x230B JUMP JUMPDEST POP SUB SWAP1 JUMP JUMPDEST PUSH1 0x0 DUP2 PUSH1 0x0 NOT DIV DUP4 GT DUP3 ISZERO ISZERO AND ISZERO PUSH2 0x2403 JUMPI PUSH2 0x2403 PUSH2 0x230B JUMP JUMPDEST POP MUL SWAP1 JUMP JUMPDEST PUSH1 0x0 DUP3 PUSH2 0x2425 JUMPI PUSH4 0x4E487B71 PUSH1 0xE0 SHL PUSH1 0x0 MSTORE PUSH1 0x12 PUSH1 0x4 MSTORE PUSH1 0x24 PUSH1 0x0 REVERT JUMPDEST POP DIV SWAP1 JUMP INVALID 0xAE 0xE8 0xE5 0xD3 0xBB 0xB2 0xF7 BYTE SWAP6 SHL JUMP ORIGIN 0xCE 0xE2 0xF PUSH27 0xC487B9F8AB4F66A236F7694B13AF7C6AA264697066735822122058 SWAP8 0xC8 0x5C LOG0 0x21 0x5E 0xEA BYTE PUSH18 0xBACE7394FBE570AC3B839B4F1D196FA9BE94 PUSH10 0x62554E64736F6C634300 ADDMOD SIGNEXTEND STOP CALLER "},"methodIdentifiers":{"backProject(uint256)":"9f39a194","balance()":"b69ef8a8","changeTax(uint256)":"3e45c8af","createProject(string,string,string,uint256,uint256,string)":"1fb49712","deleteProject(uint256)":"4cd0cb28","getBackers(uint256)":"c9168b72","getProject(uint256)":"f0f3f2c8","getProjects()":"dcc60128","owner()":"8da5cb5b","payOutProject(uint256)":"b531dcba","projectCount()":"36fbad26","projectExist(uint256)":"8593054b","projectTax()":"d24cd3ec","requestRefund(uint256)":"a4b2409e","stats()":"d80528ae","updateProject(uint256,string,string,string,uint256,string)":"50fc6d76"}}}}}