{
  "_format": "hh-sol-artifact-1",
  "contractName": "Genesis",
  "sourceName": "src/contracts/Genesis.sol",
  "abi": [
    {
      "inputs": [
        {
          "internalType": "uint256",
          "name": "_projectTax",
          "type": "uint256"
        }
      ],
      "stateMutability": "nonpayable",
      "type": "constructor"
    },
    {
      "anonymous": false,
      "inputs": [
        {
          "indexed": false,
          "internalType": "uint256",
          "name": "id",
          "type": "uint256"
        },
        {
          "indexed": false,
          "internalType": "string",
          "name": "actionType",
          "type": "string"
        },
        {
          "indexed": true,
          "internalType": "address",
          "name": "executor",
          "type": "address"
        },
        {
          "indexed": false,
          "internalType": "uint256",
          "name": "timestamp",
          "type": "uint256"
        }
      ],
      "name": "Action",
      "type": "event"
    },
    {
      "inputs": [
        {
          "internalType": "uint256",
          "name": "id",
          "type": "uint256"
        }
      ],
      "name": "backProject",
      "outputs": [
        {
          "internalType": "bool",
          "name": "",
          "type": "bool"
        }
      ],
      "stateMutability": "payable",
      "type": "function"
    },
    {
      "inputs": [],
      "name": "balance",
      "outputs": [
        {
          "internalType": "uint256",
          "name": "",
          "type": "uint256"
        }
      ],
      "stateMutability": "view",
      "type": "function"
    },
    {
      "inputs": [
        {
          "internalType": "uint256",
          "name": "_taxPct",
          "type": "uint256"
        }
      ],
      "name": "changeTax",
      "outputs": [],
      "stateMutability": "nonpayable",
      "type": "function"
    },
    {
      "inputs": [
        {
          "internalType": "string",
          "name": "title",
          "type": "string"
        },
        {
          "internalType": "string",
          "name": "description",
          "type": "string"
        },
        {
          "internalType": "string",
          "name": "imageURL",
          "type": "string"
        },
        {
          "internalType": "uint256",
          "name": "cost",
          "type": "uint256"
        },
        {
          "internalType": "uint256",
          "name": "expiresAt",
          "type": "uint256"
        },
        {
          "internalType": "string",
          "name": "TtdURL",
          "type": "string"
        },
        {
          "internalType": "string",
          "name": "Syarat",
          "type": "string"
        }
      ],
      "name": "createProject",
      "outputs": [
        {
          "internalType": "bool",
          "name": "",
          "type": "bool"
        }
      ],
      "stateMutability": "nonpayable",
      "type": "function"
    },
    {
      "inputs": [
        {
          "internalType": "uint256",
          "name": "id",
          "type": "uint256"
        }
      ],
      "name": "deleteProject",
      "outputs": [
        {
          "internalType": "bool",
          "name": "",
          "type": "bool"
        }
      ],
      "stateMutability": "nonpayable",
      "type": "function"
    },
    {
      "inputs": [
        {
          "internalType": "uint256",
          "name": "id",
          "type": "uint256"
        }
      ],
      "name": "getBackers",
      "outputs": [
        {
          "components": [
            {
              "internalType": "address",
              "name": "owner",
              "type": "address"
            },
            {
              "internalType": "uint256",
              "name": "contribution",
              "type": "uint256"
            },
            {
              "internalType": "uint256",
              "name": "timestamp",
              "type": "uint256"
            },
            {
              "internalType": "bool",
              "name": "refunded",
              "type": "bool"
            }
          ],
          "internalType": "struct Genesis.backerStruct[]",
          "name": "",
          "type": "tuple[]"
        }
      ],
      "stateMutability": "view",
      "type": "function"
    },
    {
      "inputs": [
        {
          "internalType": "uint256",
          "name": "id",
          "type": "uint256"
        }
      ],
      "name": "getProject",
      "outputs": [
        {
          "components": [
            {
              "internalType": "uint256",
              "name": "id",
              "type": "uint256"
            },
            {
              "internalType": "address",
              "name": "owner",
              "type": "address"
            },
            {
              "internalType": "string",
              "name": "title",
              "type": "string"
            },
            {
              "internalType": "string",
              "name": "description",
              "type": "string"
            },
            {
              "internalType": "string",
              "name": "imageURL",
              "type": "string"
            },
            {
              "internalType": "uint256",
              "name": "cost",
              "type": "uint256"
            },
            {
              "internalType": "uint256",
              "name": "raised",
              "type": "uint256"
            },
            {
              "internalType": "uint256",
              "name": "timestamp",
              "type": "uint256"
            },
            {
              "internalType": "uint256",
              "name": "expiresAt",
              "type": "uint256"
            },
            {
              "internalType": "uint256",
              "name": "backers",
              "type": "uint256"
            },
            {
              "internalType": "enum Genesis.statusEnum",
              "name": "status",
              "type": "uint8"
            },
            {
              "internalType": "string",
              "name": "TtdURL",
              "type": "string"
            },
            {
              "internalType": "string",
              "name": "Syarat",
              "type": "string"
            }
          ],
          "internalType": "struct Genesis.projectStruct",
          "name": "",
          "type": "tuple"
        }
      ],
      "stateMutability": "view",
      "type": "function"
    },
    {
      "inputs": [],
      "name": "getProjects",
      "outputs": [
        {
          "components": [
            {
              "internalType": "uint256",
              "name": "id",
              "type": "uint256"
            },
            {
              "internalType": "address",
              "name": "owner",
              "type": "address"
            },
            {
              "internalType": "string",
              "name": "title",
              "type": "string"
            },
            {
              "internalType": "string",
              "name": "description",
              "type": "string"
            },
            {
              "internalType": "string",
              "name": "imageURL",
              "type": "string"
            },
            {
              "internalType": "uint256",
              "name": "cost",
              "type": "uint256"
            },
            {
              "internalType": "uint256",
              "name": "raised",
              "type": "uint256"
            },
            {
              "internalType": "uint256",
              "name": "timestamp",
              "type": "uint256"
            },
            {
              "internalType": "uint256",
              "name": "expiresAt",
              "type": "uint256"
            },
            {
              "internalType": "uint256",
              "name": "backers",
              "type": "uint256"
            },
            {
              "internalType": "enum Genesis.statusEnum",
              "name": "status",
              "type": "uint8"
            },
            {
              "internalType": "string",
              "name": "TtdURL",
              "type": "string"
            },
            {
              "internalType": "string",
              "name": "Syarat",
              "type": "string"
            }
          ],
          "internalType": "struct Genesis.projectStruct[]",
          "name": "",
          "type": "tuple[]"
        }
      ],
      "stateMutability": "view",
      "type": "function"
    },
    {
      "inputs": [],
      "name": "owner",
      "outputs": [
        {
          "internalType": "address",
          "name": "",
          "type": "address"
        }
      ],
      "stateMutability": "view",
      "type": "function"
    },
    {
      "inputs": [
        {
          "internalType": "uint256",
          "name": "id",
          "type": "uint256"
        }
      ],
      "name": "payOutProject",
      "outputs": [
        {
          "internalType": "bool",
          "name": "",
          "type": "bool"
        }
      ],
      "stateMutability": "nonpayable",
      "type": "function"
    },
    {
      "inputs": [],
      "name": "projectCount",
      "outputs": [
        {
          "internalType": "uint256",
          "name": "",
          "type": "uint256"
        }
      ],
      "stateMutability": "view",
      "type": "function"
    },
    {
      "inputs": [
        {
          "internalType": "uint256",
          "name": "",
          "type": "uint256"
        }
      ],
      "name": "projectExist",
      "outputs": [
        {
          "internalType": "bool",
          "name": "",
          "type": "bool"
        }
      ],
      "stateMutability": "view",
      "type": "function"
    },
    {
      "inputs": [],
      "name": "projectTax",
      "outputs": [
        {
          "internalType": "uint256",
          "name": "",
          "type": "uint256"
        }
      ],
      "stateMutability": "view",
      "type": "function"
    },
    {
      "inputs": [
        {
          "internalType": "uint256",
          "name": "id",
          "type": "uint256"
        }
      ],
      "name": "requestRefund",
      "outputs": [
        {
          "internalType": "bool",
          "name": "",
          "type": "bool"
        }
      ],
      "stateMutability": "nonpayable",
      "type": "function"
    },
    {
      "inputs": [],
      "name": "stats",
      "outputs": [
        {
          "internalType": "uint256",
          "name": "totalProjects",
          "type": "uint256"
        },
        {
          "internalType": "uint256",
          "name": "totalBacking",
          "type": "uint256"
        },
        {
          "internalType": "uint256",
          "name": "totalDonations",
          "type": "uint256"
        }
      ],
      "stateMutability": "view",
      "type": "function"
    },
    {
      "inputs": [
        {
          "internalType": "uint256",
          "name": "id",
          "type": "uint256"
        },
        {
          "internalType": "string",
          "name": "title",
          "type": "string"
        },
        {
          "internalType": "string",
          "name": "description",
          "type": "string"
        },
        {
          "internalType": "string",
          "name": "imageURL",
          "type": "string"
        },
        {
          "internalType": "uint256",
          "name": "expiresAt",
          "type": "uint256"
        },
        {
          "internalType": "string",
          "name": "TtdURL",
          "type": "string"
        },
        {
          "internalType": "string",
          "name": "Syarat",
          "type": "string"
        }
      ],
      "name": "updateProject",
      "outputs": [
        {
          "internalType": "bool",
          "name": "",
          "type": "bool"
        }
      ],
      "stateMutability": "nonpayable",
      "type": "function"
    }
  ],
  "bytecode": "0x608060405234801561001057600080fd5b5060405162002782380380620027828339810160408190526100319161004b565b600080546001600160a01b03191633179055600155610064565b60006020828403121561005d57600080fd5b5051919050565b61270e80620000746000396000f3fe6080604052600436106100f35760003560e01c8063a4b2409e1161008a578063d24cd3ec11610059578063d24cd3ec146102b1578063d80528ae146102c7578063dcc6012814610301578063f0f3f2c81461032357600080fd5b8063a4b2409e1461022e578063b531dcba1461024e578063b69ef8a81461026e578063c9168b721461028457600080fd5b806384144a44116100c657806384144a44146101935780638593054b146101b35780638da5cb5b146101e35780639f39a1941461021b57600080fd5b806336fbad26146100f85780633e45c8af146101215780634cd0cb28146101435780635bc2c66114610173575b600080fd5b34801561010457600080fd5b5061010e60025481565b6040519081526020015b60405180910390f35b34801561012d57600080fd5b5061014161013c3660046120e6565b610350565b005b34801561014f57600080fd5b5061016361015e3660046120e6565b6103aa565b6040519015158152602001610118565b34801561017f57600080fd5b5061016361018e3660046121a2565b610526565b34801561019f57600080fd5b506101636101ae366004612287565b61089b565b3480156101bf57600080fd5b506101636101ce3660046120e6565b600a6020526000908152604090205460ff1681565b3480156101ef57600080fd5b50600054610203906001600160a01b031681565b6040516001600160a01b039091168152602001610118565b6101636102293660046120e6565b610e27565b34801561023a57600080fd5b506101636102493660046120e6565b611234565b34801561025a57600080fd5b506101636102693660046120e6565b61132b565b34801561027a57600080fd5b5061010e60035481565b34801561029057600080fd5b506102a461029f3660046120e6565b61141a565b604051610118919061232e565b3480156102bd57600080fd5b5061010e60015481565b3480156102d357600080fd5b506004546005546006546102e692919083565b60408051938452602084019290925290820152606001610118565b34801561030d57600080fd5b506103166114bc565b604051610118919061251d565b34801561032f57600080fd5b5061034361033e3660046120e6565b61187b565b604051610118919061257f565b6000546001600160a01b031633146103a55760405162461bcd60e51b81526020600482015260136024820152724f776e6572207265736572766564206f6e6c7960681b60448201526064015b60405180910390fd5b600155565b600080600783815481106103c0576103c0612599565b60009182526020909120600a600d90920201015460ff1660048111156103e8576103e86123ea565b146104305760405162461bcd60e51b8152602060048201526018602482015277141c9bda9958dd081b9bc81b1bdb99d95c881bdc195b995960421b604482015260640161039c565b6007828154811061044357610443612599565b60009182526020909120600d90910201600101546001600160a01b0316331461047e5760405162461bcd60e51b815260040161039c906125af565b60036007838154811061049357610493612599565b60009182526020909120600a600d9092020101805460ff191660018360048111156104c0576104c06123ea565b02179055506104ce82611c81565b60408051838152606060208201819052600f908201526e141493d29150d50811115311551151608a1b60808201524281830152905133916000805160206126b9833981519152919081900360a00190a2506001919050565b60006007888154811061053b5761053b612599565b60009182526020909120600d90910201600101546001600160a01b031633146105765760405162461bcd60e51b815260040161039c906125af565b60008751116105bf5760405162461bcd60e51b81526020600482015260156024820152745469746c652063616e6e6f7420626520656d70747960581b604482015260640161039c565b60008651116106105760405162461bcd60e51b815260206004820152601b60248201527f4465736372697074696f6e2063616e6e6f7420626520656d7074790000000000604482015260640161039c565b600085511161065c5760405162461bcd60e51b8152602060048201526018602482015277496d61676555524c2063616e6e6f7420626520656d70747960401b604482015260640161039c565b60008351116106ad5760405162461bcd60e51b815260206004820152601760248201527f5454442055524c2063616e6e6f7420626520656d707479000000000000000000604482015260640161039c565b60008251116106f75760405162461bcd60e51b81526020600482015260166024820152755379617261742063616e6e6f7420626520656d70747960501b604482015260640161039c565b866007898154811061070b5761070b612599565b90600052602060002090600d0201600201908051906020019061072f929190611fcb565b50856007898154811061074457610744612599565b90600052602060002090600d02016003019080519060200190610768929190611fcb565b50846007898154811061077d5761077d612599565b90600052602060002090600d020160040190805190602001906107a1929190611fcb565b5083600789815481106107b6576107b6612599565b90600052602060002090600d02016008018190555082600789815481106107df576107df612599565b90600052602060002090600d0201600b019080519060200190610803929190611fcb565b50816007898154811061081857610818612599565b90600052602060002090600d0201600c01908051906020019061083c929190611fcb565b5060408051898152606060208201819052600f908201526e141493d29150d50815541110551151608a1b60808201524281830152905133916000805160206126b9833981519152919081900360a00190a2506001979650505050505050565b6000808851116108e55760405162461bcd60e51b81526020600482015260156024820152745469746c652063616e6e6f7420626520656d70747960581b604482015260640161039c565b60008751116109365760405162461bcd60e51b815260206004820152601b60248201527f4465736372697074696f6e2063616e6e6f7420626520656d7074790000000000604482015260640161039c565b60008651116109825760405162461bcd60e51b8152602060048201526018602482015277496d61676555524c2063616e6e6f7420626520656d70747960401b604482015260640161039c565b600085116109c85760405162461bcd60e51b8152602060048201526013602482015272436f73742063616e6e6f74206265207a65726f60681b604482015260640161039c565b6000835111610a195760405162461bcd60e51b815260206004820152601760248201527f5474642055524c2063616e6e6f7420626520656d707479000000000000000000604482015260640161039c565b6000825111610a6a5760405162461bcd60e51b815260206004820152601a60248201527f5379617261742055524c2063616e6e6f7420626520656d707479000000000000604482015260640161039c565b610a7261204f565b6002548152336020808301918252604083018b8152606084018b9052608084018a905260a084018990524260e08501526101008401889052610160840187905261018084018690526007805460018101825560009190915284517fa66cc928b5edb82af9bd49922954155ab7b0942694bea4ce44661d9a8736c688600d90920291820190815593517fa66cc928b5edb82af9bd49922954155ab7b0942694bea4ce44661d9a8736c689820180546001600160a01b0319166001600160a01b0390921691909117905590518051859493610b6f937fa66cc928b5edb82af9bd49922954155ab7b0942694bea4ce44661d9a8736c68a01920190611fcb565b5060608201518051610b8b916003840191602090910190611fcb565b5060808201518051610ba7916004840191602090910190611fcb565b5060a0820151600582015560c0820151600682015560e0820151600782015561010082015160088201556101208201516009820155610140820151600a8201805460ff19166001836004811115610c0057610c006123ea565b02179055506101608201518051610c2191600b840191602090910190611fcb565b506101808201518051610c3e91600c840191602090910190611fcb565b5050600280546000908152600a602090815260408083208054600160ff1990911681179091553384526008835281842080548083018255908552938390208751600d909502019384558683015190840180546001600160a01b0319166001600160a01b0390921691909117905585015180518695509293610cc793908501929190910190611fcb565b5060608201518051610ce3916003840191602090910190611fcb565b5060808201518051610cff916004840191602090910190611fcb565b5060a0820151600582015560c0820151600682015560e0820151600782015561010082015160088201556101208201516009820155610140820151600a8201805460ff19166001836004811115610d5857610d586123ea565b02179055506101608201518051610d7991600b840191602090910190611fcb565b506101808201518051610d9691600c840191602090910190611fcb565b505050600160046000016000828254610daf91906125f2565b90915550506002805433916000805160206126b983398151915291906000610dd68361260a565b9091555060408051918252606060208301819052600f908301526e141493d29150d50810d49150551151608a1b6080830152429082015260a00160405180910390a250600198975050505050505050565b6000803411610e785760405162461bcd60e51b815260206004820152601f60248201527f4574686572206d7573742062652067726561746572207468616e207a65726f00604482015260640161039c565b6000828152600a602052604090205460ff16610eca5760405162461bcd60e51b8152602060048201526011602482015270141c9bda9958dd081b9bdd08199bdd5b99607a1b604482015260640161039c565b600060078381548110610edf57610edf612599565b60009182526020909120600a600d90920201015460ff166004811115610f0757610f076123ea565b14610f4f5760405162461bcd60e51b8152602060048201526018602482015277141c9bda9958dd081b9bc81b1bdb99d95c881bdc195b995960421b604482015260640161039c565b600160046001016000828254610f6591906125f2565b909155505060068054349190600090610f7f9084906125f2565b925050819055503460078381548110610f9a57610f9a612599565b90600052602060002090600d02016006016000828254610fba91906125f2565b92505081905550600160078381548110610fd657610fd6612599565b90600052602060002090600d02016009016000828254610ff691906125f2565b9091555050600082815260096020908152604080832081516080808201845233808352348387019081524284870181815260608087018b8152885460018082018b55998d529b8b902097516004909c0290970180546001600160a01b0319166001600160a01b03909c169b909b178b559251968a01969096559451600289015592516003909701805460ff1916971515979097179096558351888152948501829052600e918501919091526d141493d29150d508109050d2d15160921b90840152908201526000805160206126b98339815191529060a00160405180910390a2600782815481106110e9576110e9612599565b90600052602060002090600d0201600501546007838154811061110e5761110e612599565b90600052602060002090600d020160060154106111b95760016007838154811061113a5761113a612599565b60009182526020909120600a600d9092020101805460ff19166001836004811115611167576111676123ea565b02179055506007828154811061117f5761117f612599565b90600052602060002090600d020160060154600360008282546111a291906125f2565b909155506111b1905082611def565b506001919050565b600782815481106111cc576111cc612599565b90600052602060002090600d02016008015442106111b1576002600783815481106111f9576111f9612599565b60009182526020909120600a600d9092020101805460ff19166001836004811115611226576112266123ea565b02179055506111b182611c81565b600060026007838154811061124b5761124b612599565b60009182526020909120600a600d90920201015460ff166004811115611273576112736123ea565b1415806112bb575060036007838154811061129057611290612599565b60009182526020909120600a600d90920201015460ff1660048111156112b8576112b86123ea565b14155b6113165760405162461bcd60e51b815260206004820152602660248201527f50726f6a656374206e6f74206d61726b656420617320726576657274206f722060448201526564656c65746560d01b606482015260840161039c565b6002600783815481106111f9576111f9612599565b600060016007838154811061134257611342612599565b60009182526020909120600a600d90920201015460ff16600481111561136a5761136a6123ea565b146113ae5760405162461bcd60e51b8152602060048201526014602482015273141c9bda9958dd081b9bdd081054141493d5915160621b604482015260640161039c565b600782815481106113c1576113c1612599565b60009182526020909120600d90910201600101546001600160a01b03163314806113f557506000546001600160a01b031633145b6114115760405162461bcd60e51b815260040161039c906125af565b6111b182611def565b606060096000838152602001908152602001600020805480602002602001604051908101604052809291908181526020016000905b828210156114b1576000848152602090819020604080516080810182526004860290920180546001600160a01b03168352600180820154848601526002820154928401929092526003015460ff1615156060830152908352909201910161144f565b505050509050919050565b60606007805480602002602001604051908101604052809291908181526020016000905b82821015611872576000848152602090819020604080516101a081018252600d86029092018054835260018101546001600160a01b0316938301939093526002830180549293929184019161153490612625565b80601f016020809104026020016040519081016040528092919081815260200182805461156090612625565b80156115ad5780601f10611582576101008083540402835291602001916115ad565b820191906000526020600020905b81548152906001019060200180831161159057829003601f168201915b505050505081526020016003820180546115c690612625565b80601f01602080910402602001604051908101604052809291908181526020018280546115f290612625565b801561163f5780601f106116145761010080835404028352916020019161163f565b820191906000526020600020905b81548152906001019060200180831161162257829003601f168201915b5050505050815260200160048201805461165890612625565b80601f016020809104026020016040519081016040528092919081815260200182805461168490612625565b80156116d15780601f106116a6576101008083540402835291602001916116d1565b820191906000526020600020905b8154815290600101906020018083116116b457829003601f168201915b505050918352505060058201546020820152600682015460408201526007820154606082015260088201546080820152600982015460a0820152600a82015460c09091019060ff16600481111561172a5761172a6123ea565b600481111561173b5761173b6123ea565b8152602001600b8201805461174f90612625565b80601f016020809104026020016040519081016040528092919081815260200182805461177b90612625565b80156117c85780601f1061179d576101008083540402835291602001916117c8565b820191906000526020600020905b8154815290600101906020018083116117ab57829003601f168201915b50505050508152602001600c820180546117e190612625565b80601f016020809104026020016040519081016040528092919081815260200182805461180d90612625565b801561185a5780601f1061182f5761010080835404028352916020019161185a565b820191906000526020600020905b81548152906001019060200180831161183d57829003601f168201915b505050505081525050815260200190600101906114e0565b50505050905090565b61188361204f565b6000828152600a602052604090205460ff166118d55760405162461bcd60e51b8152602060048201526011602482015270141c9bda9958dd081b9bdd08199bdd5b99607a1b604482015260640161039c565b600782815481106118e8576118e8612599565b90600052602060002090600d0201604051806101a0016040529081600082015481526020016001820160009054906101000a90046001600160a01b03166001600160a01b03166001600160a01b0316815260200160028201805461194b90612625565b80601f016020809104026020016040519081016040528092919081815260200182805461197790612625565b80156119c45780601f10611999576101008083540402835291602001916119c4565b820191906000526020600020905b8154815290600101906020018083116119a757829003601f168201915b505050505081526020016003820180546119dd90612625565b80601f0160208091040260200160405190810160405280929190818152602001828054611a0990612625565b8015611a565780601f10611a2b57610100808354040283529160200191611a56565b820191906000526020600020905b815481529060010190602001808311611a3957829003601f168201915b50505050508152602001600482018054611a6f90612625565b80601f0160208091040260200160405190810160405280929190818152602001828054611a9b90612625565b8015611ae85780601f10611abd57610100808354040283529160200191611ae8565b820191906000526020600020905b815481529060010190602001808311611acb57829003601f168201915b505050918352505060058201546020820152600682015460408201526007820154606082015260088201546080820152600982015460a0820152600a82015460c09091019060ff166004811115611b4157611b416123ea565b6004811115611b5257611b526123ea565b8152602001600b82018054611b6690612625565b80601f0160208091040260200160405190810160405280929190818152602001828054611b9290612625565b8015611bdf5780601f10611bb457610100808354040283529160200191611bdf565b820191906000526020600020905b815481529060010190602001808311611bc257829003601f168201915b50505050508152602001600c82018054611bf890612625565b80601f0160208091040260200160405190810160405280929190818152602001828054611c2490612625565b8015611c715780601f10611c4657610100808354040283529160200191611c71565b820191906000526020600020905b815481529060010190602001808311611c5457829003601f168201915b5050505050815250509050919050565b60005b600082815260096020526040902054811015611deb576000828152600960205260408120805483908110611cba57611cba612599565b6000918252602080832060049092029091015485835260099091526040822080546001600160a01b0390921693509084908110611cf957611cf9612599565b90600052602060002090600402016001015490506001600960008681526020019081526020016000208481548110611d3357611d33612599565b906000526020600020906004020160030160006101000a81548160ff02191690831515021790555042600960008681526020019081526020016000208481548110611d8057611d80612599565b906000526020600020906004020160020181905550611d9f8282611f66565b600160046001016000828254611db59190612660565b909155505060068054829190600090611dcf908490612660565b9250508190555050508080611de39061260a565b915050611c84565b5050565b600060078281548110611e0457611e04612599565b90600052602060002090600d02016006015490506000606460015483611e2a9190612677565b611e349190612696565b9050600460078481548110611e4b57611e4b612599565b60009182526020909120600a600d9092020101805460ff19166001836004811115611e7857611e786123ea565b0217905550611ebf60078481548110611e9357611e93612599565b600091825260209091206001600d9092020101546001600160a01b0316611eba8385612660565b611f66565b600054611ed5906001600160a01b031682611f66565b60078381548110611ee857611ee8612599565b90600052602060002090600d02016006015460036000828254611f0b9190612660565b9091555050604080518481526060602082018190526010908201526f141493d29150d508141052510813d55560821b60808201524281830152905133916000805160206126b9833981519152919081900360a00190a2505050565b6000826001600160a01b03168260405160006040518083038185875af1925050503d8060008114611fb3576040519150601f19603f3d011682016040523d82523d6000602084013e611fb8565b606091505b5050905080611fc657600080fd5b505050565b828054611fd790612625565b90600052602060002090601f016020900481019282611ff9576000855561203f565b82601f1061201257805160ff191683800117855561203f565b8280016001018555821561203f579182015b8281111561203f578251825591602001919060010190612024565b5061204b9291506120d1565b5090565b604051806101a001604052806000815260200160006001600160a01b031681526020016060815260200160608152602001606081526020016000815260200160008152602001600081526020016000815260200160008152602001600060048111156120bd576120bd6123ea565b815260200160608152602001606081525090565b5b8082111561204b57600081556001016120d2565b6000602082840312156120f857600080fd5b5035919050565b634e487b7160e01b600052604160045260246000fd5b600082601f83011261212657600080fd5b813567ffffffffffffffff80821115612141576121416120ff565b604051601f8301601f19908116603f01168101908282118183101715612169576121696120ff565b8160405283815286602085880101111561218257600080fd5b836020870160208301376000602085830101528094505050505092915050565b600080600080600080600060e0888a0312156121bd57600080fd5b87359650602088013567ffffffffffffffff808211156121dc57600080fd5b6121e88b838c01612115565b975060408a01359150808211156121fe57600080fd5b61220a8b838c01612115565b965060608a013591508082111561222057600080fd5b61222c8b838c01612115565b955060808a0135945060a08a013591508082111561224957600080fd5b6122558b838c01612115565b935060c08a013591508082111561226b57600080fd5b506122788a828b01612115565b91505092959891949750929550565b600080600080600080600060e0888a0312156122a257600080fd5b873567ffffffffffffffff808211156122ba57600080fd5b6122c68b838c01612115565b985060208a01359150808211156122dc57600080fd5b6122e88b838c01612115565b975060408a01359150808211156122fe57600080fd5b61230a8b838c01612115565b965060608a0135955060808a0135945060a08a013591508082111561224957600080fd5b602080825282518282018190526000919060409081850190868401855b8281101561239057815180516001600160a01b03168552868101518786015285810151868601526060908101511515908501526080909301929085019060010161234b565b5091979650505050505050565b6000815180845260005b818110156123c3576020818501810151868301820152016123a7565b818111156123d5576000602083870101525b50601f01601f19169290920160200192915050565b634e487b7160e01b600052602160045260246000fd5b6005811061241e57634e487b7160e01b600052602160045260246000fd5b9052565b60006101a082518452602083015161244560208601826001600160a01b03169052565b50604083015181604086015261245d8286018261239d565b91505060608301518482036060860152612477828261239d565b91505060808301518482036080860152612491828261239d565b91505060a083015160a085015260c083015160c085015260e083015160e0850152610100808401518186015250610120808401518186015250610140808401516124dd82870182612400565b505061016080840151858303828701526124f7838261239d565b925050506101808084015185830382870152612513838261239d565b9695505050505050565b6000602080830181845280855180835260408601915060408160051b870101925083870160005b8281101561257257603f19888603018452612560858351612422565b94509285019290850190600101612544565b5092979650505050505050565b6020815260006125926020830184612422565b9392505050565b634e487b7160e01b600052603260045260246000fd5b602080825260139082015272556e617574686f72697a656420456e7469747960681b604082015260600190565b634e487b7160e01b600052601160045260246000fd5b60008219821115612605576126056125dc565b500190565b600060001982141561261e5761261e6125dc565b5060010190565b600181811c9082168061263957607f821691505b6020821081141561265a57634e487b7160e01b600052602260045260246000fd5b50919050565b600082821015612672576126726125dc565b500390565b6000816000190483118215151615612691576126916125dc565b500290565b6000826126b357634e487b7160e01b600052601260045260246000fd5b50049056feaee8e5d3bbb2f71a951b5632cee20f7ac487b9f8ab4f66a236f7694b13af7c6aa264697066735822122084cbd58e412b2d1fb2fb193af93401fd837b7c2347b1f61ff2f61097cd53d71664736f6c634300080b0033",
  "linkReferences": {},
  "deployedLinkReferences": {}
}