{
  "_format": "hh-sol-artifact-1",
  "contractName": "Genesis",
  "sourceName": "src/contracts/Genesis.sol",
  "abi": [
    {
      "inputs": [
        {
          "internalType": "uint256",
          "name": "_projectTax",
          "type": "uint256"
        }
      ],
      "stateMutability": "nonpayable",
      "type": "constructor"
    },
    {
      "anonymous": false,
      "inputs": [
        {
          "indexed": false,
          "internalType": "uint256",
          "name": "id",
          "type": "uint256"
        },
        {
          "indexed": false,
          "internalType": "string",
          "name": "actionType",
          "type": "string"
        },
        {
          "indexed": true,
          "internalType": "address",
          "name": "executor",
          "type": "address"
        },
        {
          "indexed": false,
          "internalType": "uint256",
          "name": "timestamp",
          "type": "uint256"
        }
      ],
      "name": "Action",
      "type": "event"
    },
    {
      "inputs": [
        {
          "internalType": "address",
          "name": "newValidator",
          "type": "address"
        }
      ],
      "name": "addValidator",
      "outputs": [],
      "stateMutability": "nonpayable",
      "type": "function"
    },
    {
      "inputs": [
        {
          "internalType": "uint256",
          "name": "id",
          "type": "uint256"
        },
        {
          "internalType": "bytes",
          "name": "validatorSignature",
          "type": "bytes"
        }
      ],
      "name": "approveProject",
      "outputs": [
        {
          "internalType": "bool",
          "name": "",
          "type": "bool"
        }
      ],
      "stateMutability": "nonpayable",
      "type": "function"
    },
    {
      "inputs": [
        {
          "internalType": "uint256",
          "name": "id",
          "type": "uint256"
        }
      ],
      "name": "backProject",
      "outputs": [
        {
          "internalType": "bool",
          "name": "",
          "type": "bool"
        }
      ],
      "stateMutability": "payable",
      "type": "function"
    },
    {
      "inputs": [],
      "name": "balance",
      "outputs": [
        {
          "internalType": "uint256",
          "name": "",
          "type": "uint256"
        }
      ],
      "stateMutability": "view",
      "type": "function"
    },
    {
      "inputs": [
        {
          "internalType": "uint256",
          "name": "_taxPct",
          "type": "uint256"
        }
      ],
      "name": "changeTax",
      "outputs": [],
      "stateMutability": "nonpayable",
      "type": "function"
    },
    {
      "inputs": [
        {
          "internalType": "string",
          "name": "title",
          "type": "string"
        },
        {
          "internalType": "string",
          "name": "description",
          "type": "string"
        },
        {
          "internalType": "string",
          "name": "imageURL",
          "type": "string"
        },
        {
          "internalType": "uint256",
          "name": "cost",
          "type": "uint256"
        },
        {
          "internalType": "uint256",
          "name": "expiresAt",
          "type": "uint256"
        },
        {
          "internalType": "string",
          "name": "Syarat",
          "type": "string"
        }
      ],
      "name": "createProject",
      "outputs": [
        {
          "internalType": "bool",
          "name": "",
          "type": "bool"
        }
      ],
      "stateMutability": "nonpayable",
      "type": "function"
    },
    {
      "inputs": [
        {
          "internalType": "uint256",
          "name": "id",
          "type": "uint256"
        }
      ],
      "name": "deleteProject",
      "outputs": [
        {
          "internalType": "bool",
          "name": "",
          "type": "bool"
        }
      ],
      "stateMutability": "nonpayable",
      "type": "function"
    },
    {
      "inputs": [
        {
          "internalType": "uint256",
          "name": "id",
          "type": "uint256"
        }
      ],
      "name": "getBackers",
      "outputs": [
        {
          "components": [
            {
              "internalType": "address",
              "name": "owner",
              "type": "address"
            },
            {
              "internalType": "uint256",
              "name": "contribution",
              "type": "uint256"
            },
            {
              "internalType": "uint256",
              "name": "timestamp",
              "type": "uint256"
            },
            {
              "internalType": "bool",
              "name": "refunded",
              "type": "bool"
            }
          ],
          "internalType": "struct Genesis.backerStruct[]",
          "name": "",
          "type": "tuple[]"
        }
      ],
      "stateMutability": "view",
      "type": "function"
    },
    {
      "inputs": [
        {
          "internalType": "uint256",
          "name": "id",
          "type": "uint256"
        }
      ],
      "name": "getProject",
      "outputs": [
        {
          "components": [
            {
              "internalType": "uint256",
              "name": "id",
              "type": "uint256"
            },
            {
              "internalType": "address",
              "name": "owner",
              "type": "address"
            },
            {
              "internalType": "string",
              "name": "title",
              "type": "string"
            },
            {
              "internalType": "string",
              "name": "description",
              "type": "string"
            },
            {
              "internalType": "string",
              "name": "imageURL",
              "type": "string"
            },
            {
              "internalType": "uint256",
              "name": "cost",
              "type": "uint256"
            },
            {
              "internalType": "uint256",
              "name": "raised",
              "type": "uint256"
            },
            {
              "internalType": "uint256",
              "name": "timestamp",
              "type": "uint256"
            },
            {
              "internalType": "uint256",
              "name": "expiresAt",
              "type": "uint256"
            },
            {
              "internalType": "uint256",
              "name": "backers",
              "type": "uint256"
            },
            {
              "internalType": "enum Genesis.statusEnum",
              "name": "status",
              "type": "uint8"
            },
            {
              "internalType": "string",
              "name": "Syarat",
              "type": "string"
            }
          ],
          "internalType": "struct Genesis.projectStruct",
          "name": "",
          "type": "tuple"
        }
      ],
      "stateMutability": "view",
      "type": "function"
    },
    {
      "inputs": [],
      "name": "getProjects",
      "outputs": [
        {
          "components": [
            {
              "internalType": "uint256",
              "name": "id",
              "type": "uint256"
            },
            {
              "internalType": "address",
              "name": "owner",
              "type": "address"
            },
            {
              "internalType": "string",
              "name": "title",
              "type": "string"
            },
            {
              "internalType": "string",
              "name": "description",
              "type": "string"
            },
            {
              "internalType": "string",
              "name": "imageURL",
              "type": "string"
            },
            {
              "internalType": "uint256",
              "name": "cost",
              "type": "uint256"
            },
            {
              "internalType": "uint256",
              "name": "raised",
              "type": "uint256"
            },
            {
              "internalType": "uint256",
              "name": "timestamp",
              "type": "uint256"
            },
            {
              "internalType": "uint256",
              "name": "expiresAt",
              "type": "uint256"
            },
            {
              "internalType": "uint256",
              "name": "backers",
              "type": "uint256"
            },
            {
              "internalType": "enum Genesis.statusEnum",
              "name": "status",
              "type": "uint8"
            },
            {
              "internalType": "string",
              "name": "Syarat",
              "type": "string"
            }
          ],
          "internalType": "struct Genesis.projectStruct[]",
          "name": "",
          "type": "tuple[]"
        }
      ],
      "stateMutability": "view",
      "type": "function"
    },
    {
      "inputs": [
        {
          "internalType": "address",
          "name": "account",
          "type": "address"
        }
      ],
      "name": "isValidator",
      "outputs": [
        {
          "internalType": "bool",
          "name": "",
          "type": "bool"
        }
      ],
      "stateMutability": "view",
      "type": "function"
    },
    {
      "inputs": [],
      "name": "owner",
      "outputs": [
        {
          "internalType": "address",
          "name": "",
          "type": "address"
        }
      ],
      "stateMutability": "view",
      "type": "function"
    },
    {
      "inputs": [
        {
          "internalType": "uint256",
          "name": "id",
          "type": "uint256"
        }
      ],
      "name": "payOutProject",
      "outputs": [
        {
          "internalType": "bool",
          "name": "",
          "type": "bool"
        }
      ],
      "stateMutability": "nonpayable",
      "type": "function"
    },
    {
      "inputs": [],
      "name": "projectCount",
      "outputs": [
        {
          "internalType": "uint256",
          "name": "",
          "type": "uint256"
        }
      ],
      "stateMutability": "view",
      "type": "function"
    },
    {
      "inputs": [
        {
          "internalType": "uint256",
          "name": "",
          "type": "uint256"
        }
      ],
      "name": "projectExist",
      "outputs": [
        {
          "internalType": "bool",
          "name": "",
          "type": "bool"
        }
      ],
      "stateMutability": "view",
      "type": "function"
    },
    {
      "inputs": [],
      "name": "projectTax",
      "outputs": [
        {
          "internalType": "uint256",
          "name": "",
          "type": "uint256"
        }
      ],
      "stateMutability": "view",
      "type": "function"
    },
    {
      "inputs": [
        {
          "internalType": "uint256",
          "name": "id",
          "type": "uint256"
        }
      ],
      "name": "requestRefund",
      "outputs": [
        {
          "internalType": "bool",
          "name": "",
          "type": "bool"
        }
      ],
      "stateMutability": "nonpayable",
      "type": "function"
    },
    {
      "inputs": [],
      "name": "stats",
      "outputs": [
        {
          "internalType": "uint256",
          "name": "totalProjects",
          "type": "uint256"
        },
        {
          "internalType": "uint256",
          "name": "totalBacking",
          "type": "uint256"
        },
        {
          "internalType": "uint256",
          "name": "totalDonations",
          "type": "uint256"
        }
      ],
      "stateMutability": "view",
      "type": "function"
    },
    {
      "inputs": [
        {
          "internalType": "uint256",
          "name": "id",
          "type": "uint256"
        },
        {
          "internalType": "string",
          "name": "title",
          "type": "string"
        },
        {
          "internalType": "string",
          "name": "description",
          "type": "string"
        },
        {
          "internalType": "string",
          "name": "imageURL",
          "type": "string"
        },
        {
          "internalType": "uint256",
          "name": "expiresAt",
          "type": "uint256"
        },
        {
          "internalType": "string",
          "name": "Syarat",
          "type": "string"
        }
      ],
      "name": "updateProject",
      "outputs": [
        {
          "internalType": "bool",
          "name": "",
          "type": "bool"
        }
      ],
      "stateMutability": "nonpayable",
      "type": "function"
    },
    {
      "inputs": [
        {
          "internalType": "uint256",
          "name": "",
          "type": "uint256"
        }
      ],
      "name": "validators",
      "outputs": [
        {
          "internalType": "address",
          "name": "",
          "type": "address"
        }
      ],
      "stateMutability": "view",
      "type": "function"
    }
  ],
  "bytecode": "0x608060405234801561001057600080fd5b5060405162002ae438038062002ae48339810160408190526100319161004b565b600080546001600160a01b03191633179055600155610064565b60006020828403121561005d57600080fd5b5051919050565b612a7080620000746000396000f3fe60806040526004361061011f5760003560e01c80639f39a194116100a0578063d24cd3ec11610064578063d24cd3ec1461033d578063d80528ae14610353578063dcc601281461038d578063f0f3f2c8146103af578063facd743b146103dc57600080fd5b80639f39a194146102a7578063a4b2409e146102ba578063b531dcba146102da578063b69ef8a8146102fa578063c9168b721461031057600080fd5b80634cd0cb28116100e75780634cd0cb28146101f75780634d238c8e1461021757806350fc6d76146102375780638593054b146102575780638da5cb5b1461028757600080fd5b80631fb497121461012457806335aa2e441461015957806336fbad26146101915780633cbd218e146101b55780633e45c8af146101d5575b600080fd5b34801561013057600080fd5b5061014461013f3660046124b2565b6103fc565b60405190151581526020015b60405180910390f35b34801561016557600080fd5b50610179610174366004612571565b61090d565b6040516001600160a01b039091168152602001610150565b34801561019d57600080fd5b506101a760025481565b604051908152602001610150565b3480156101c157600080fd5b506101446101d036600461258a565b610937565b3480156101e157600080fd5b506101f56101f0366004612571565b610b6c565b005b34801561020357600080fd5b50610144610212366004612571565b610bc1565b34801561022357600080fd5b506101f56102323660046125e5565b610d3e565b34801561024357600080fd5b5061014461025236600461260e565b610e36565b34801561026357600080fd5b50610144610272366004612571565b600b6020526000908152604090205460ff1681565b34801561029357600080fd5b50600054610179906001600160a01b031681565b6101446102b5366004612571565b611120565b3480156102c657600080fd5b506101446102d5366004612571565b61152d565b3480156102e657600080fd5b506101446102f5366004612571565b611624565b34801561030657600080fd5b506101a760035481565b34801561031c57600080fd5b5061033061032b366004612571565b611713565b60405161015091906126b3565b34801561034957600080fd5b506101a760015481565b34801561035f57600080fd5b5060045460055460065461037292919083565b60408051938452602084019290925290820152606001610150565b34801561039957600080fd5b506103a26117b5565b6040516101509190612886565b3480156103bb57600080fd5b506103cf6103ca366004612571565b611ae2565b60405161015091906128e8565b3480156103e857600080fd5b506101446103f73660046125e5565b611e56565b60008087511161044b5760405162461bcd60e51b81526020600482015260156024820152745469746c652063616e6e6f7420626520656d70747960581b60448201526064015b60405180910390fd5b600086511161049c5760405162461bcd60e51b815260206004820152601b60248201527f4465736372697074696f6e2063616e6e6f7420626520656d70747900000000006044820152606401610442565b60008551116104e85760405162461bcd60e51b8152602060048201526018602482015277496d61676555524c2063616e6e6f7420626520656d70747960401b6044820152606401610442565b6000841161052e5760405162461bcd60e51b8152602060048201526013602482015272436f73742063616e6e6f74206265207a65726f60681b6044820152606401610442565b600082511161057f5760405162461bcd60e51b815260206004820152601a60248201527f5379617261742055524c2063616e6e6f7420626520656d7074790000000000006044820152606401610442565b6105876122eb565b6002548152336020808301918252604083018a8152606084018a90526080840189905260a084018890524260e0850152610100840187905261016084018690526000610140850181905260078054600181018255915284517fa66cc928b5edb82af9bd49922954155ab7b0942694bea4ce44661d9a8736c688600c90920291820190815593517fa66cc928b5edb82af9bd49922954155ab7b0942694bea4ce44661d9a8736c689820180546001600160a01b0319166001600160a01b0390921691909117905590518051859493610682937fa66cc928b5edb82af9bd49922954155ab7b0942694bea4ce44661d9a8736c68a01920190612366565b506060820151805161069e916003840191602090910190612366565b50608082015180516106ba916004840191602090910190612366565b5060a0820151816005015560c0820151816006015560e082015181600701556101008201518160080155610120820151816009015561014082015181600a0160006101000a81548160ff0219169083600581111561071a5761071a61276f565b0217905550610160820151805161073b91600b840191602090910190612366565b5050600280546000908152600b602090815260408083208054600160ff1990911681179091553384526009835281842080548083018255908552938390208751600c909502019384558683015190840180546001600160a01b0319166001600160a01b03909216919091179055850151805186955092936107c493908501929190910190612366565b50606082015180516107e0916003840191602090910190612366565b50608082015180516107fc916004840191602090910190612366565b5060a0820151816005015560c0820151816006015560e082015181600701556101008201518160080155610120820151816009015561014082015181600a0160006101000a81548160ff0219169083600581111561085c5761085c61276f565b0217905550610160820151805161087d91600b840191602090910190612366565b5050506001600460000160008282546108969190612911565b9091555050600280543391600080516020612a1b833981519152919060006108bd83612929565b9091555060408051918252606060208301819052600f908301526e141493d29150d50810d49150551151608a1b6080830152429082015260a00160405180910390a2506001979650505050505050565b6008818154811061091d57600080fd5b6000918252602090912001546001600160a01b0316905081565b600061094233611e56565b61097f5760405162461bcd60e51b815260206004820152600e60248201526d56616c696461746f72206f6e6c7960901b6044820152606401610442565b6000838152600b602052604090205460ff166109d65760405162461bcd60e51b8152602060048201526016602482015275283937bcb2b5903a34b230b5903234ba32b6bab5b0b760511b6044820152606401610442565b6000600784815481106109eb576109eb612944565b60009182526020909120600a600c90920201015460ff166005811115610a1357610a1361276f565b14610a6a5760405162461bcd60e51b815260206004820152602160248201527f50726f79656b2062756b616e2064616c616d207374617475732050454e44494e6044820152604760f81b6064820152608401610442565b610a748383611ec0565b610acb5760405162461bcd60e51b815260206004820152602260248201527f54616e64612074616e67616e2076616c696461746f7220746964616b2076616c6044820152611a5960f21b6064820152608401610442565b600160078481548110610ae057610ae0612944565b60009182526020909120600a600c9092020101805460ff19166001836005811115610b0d57610b0d61276f565b0217905550604080518481526060602082018190526010908201526f50524f59454b204449534554554a554960801b6080820152428183015290513391600080516020612a1b833981519152919081900360a00190a250600192915050565b6000546001600160a01b03163314610bbc5760405162461bcd60e51b81526020600482015260136024820152724f776e6572207265736572766564206f6e6c7960681b6044820152606401610442565b600155565b6000600160078381548110610bd857610bd8612944565b60009182526020909120600a600c90920201015460ff166005811115610c0057610c0061276f565b14610c485760405162461bcd60e51b8152602060048201526018602482015277141c9bda9958dd081b9bc81b1bdb99d95c881bdc195b995960421b6044820152606401610442565b60078281548110610c5b57610c5b612944565b60009182526020909120600c90910201600101546001600160a01b03163314610c965760405162461bcd60e51b81526004016104429061295a565b600460078381548110610cab57610cab612944565b60009182526020909120600a600c9092020101805460ff19166001836005811115610cd857610cd861276f565b0217905550610ce682611f29565b60408051838152606060208201819052600f908201526e141493d29150d50811115311551151608a1b6080820152428183015290513391600080516020612a1b833981519152919081900360a00190a2506001919050565b6000546001600160a01b03163314610d8e5760405162461bcd60e51b81526020600482015260136024820152724f776e6572207265736572766564206f6e6c7960681b6044820152606401610442565b610d9781611e56565b15610de45760405162461bcd60e51b815260206004820152601860248201527f56616c696461746f7220616c72656164792065786973747300000000000000006044820152606401610442565b600880546001810182556000919091527ff3f7a9fe364faab93b216da50a3214154f22a0a2b415b23a84c8169e8b636ee30180546001600160a01b0319166001600160a01b0392909216919091179055565b600060078781548110610e4b57610e4b612944565b60009182526020909120600c90910201600101546001600160a01b03163314610e865760405162461bcd60e51b81526004016104429061295a565b6000865111610ecf5760405162461bcd60e51b81526020600482015260156024820152745469746c652063616e6e6f7420626520656d70747960581b6044820152606401610442565b6000855111610f205760405162461bcd60e51b815260206004820152601b60248201527f4465736372697074696f6e2063616e6e6f7420626520656d70747900000000006044820152606401610442565b6000845111610f6c5760405162461bcd60e51b8152602060048201526018602482015277496d61676555524c2063616e6e6f7420626520656d70747960401b6044820152606401610442565b6000825111610fb65760405162461bcd60e51b81526020600482015260166024820152755379617261742063616e6e6f7420626520656d70747960501b6044820152606401610442565b8560078881548110610fca57610fca612944565b90600052602060002090600c02016002019080519060200190610fee929190612366565b50846007888154811061100357611003612944565b90600052602060002090600c02016003019080519060200190611027929190612366565b50836007888154811061103c5761103c612944565b90600052602060002090600c02016004019080519060200190611060929190612366565b50826007888154811061107557611075612944565b90600052602060002090600c020160080181905550816007888154811061109e5761109e612944565b90600052602060002090600c0201600b0190805190602001906110c2929190612366565b5060408051888152606060208201819052600f908201526e141493d29150d50815541110551151608a1b6080820152428183015290513391600080516020612a1b833981519152919081900360a00190a25060019695505050505050565b60008034116111715760405162461bcd60e51b815260206004820152601f60248201527f4574686572206d7573742062652067726561746572207468616e207a65726f006044820152606401610442565b6000828152600b602052604090205460ff166111c35760405162461bcd60e51b8152602060048201526011602482015270141c9bda9958dd081b9bdd08199bdd5b99607a1b6044820152606401610442565b6001600783815481106111d8576111d8612944565b60009182526020909120600a600c90920201015460ff1660058111156112005761120061276f565b146112485760405162461bcd60e51b8152602060048201526018602482015277141c9bda9958dd081b9bc81b1bdb99d95c881bdc195b995960421b6044820152606401610442565b60016004600101600082825461125e9190612911565b909155505060068054349190600090611278908490612911565b92505081905550346007838154811061129357611293612944565b90600052602060002090600c020160060160008282546112b39190612911565b925050819055506001600783815481106112cf576112cf612944565b90600052602060002090600c020160090160008282546112ef9190612911565b90915550506000828152600a6020908152604080832081516080808201845233808352348387019081524284870181815260608087018b8152885460018082018b55998d529b8b902097516004909c0290970180546001600160a01b0319166001600160a01b03909c169b909b178b559251968a01969096559451600289015592516003909701805460ff1916971515979097179096558351888152948501829052600e918501919091526d141493d29150d508109050d2d15160921b9084015290820152600080516020612a1b8339815191529060a00160405180910390a2600782815481106113e2576113e2612944565b90600052602060002090600c0201600501546007838154811061140757611407612944565b90600052602060002090600c020160060154106114b25760026007838154811061143357611433612944565b60009182526020909120600a600c9092020101805460ff191660018360058111156114605761146061276f565b02179055506007828154811061147857611478612944565b90600052602060002090600c0201600601546003600082825461149b9190612911565b909155506114aa905082612097565b506001919050565b600782815481106114c5576114c5612944565b90600052602060002090600c02016008015442106114aa576003600783815481106114f2576114f2612944565b60009182526020909120600a600c9092020101805460ff1916600183600581111561151f5761151f61276f565b02179055506114aa82611f29565b600060036007838154811061154457611544612944565b60009182526020909120600a600c90920201015460ff16600581111561156c5761156c61276f565b1415806115b4575060046007838154811061158957611589612944565b60009182526020909120600a600c90920201015460ff1660058111156115b1576115b161276f565b14155b61160f5760405162461bcd60e51b815260206004820152602660248201527f50726f6a656374206e6f74206d61726b656420617320726576657274206f722060448201526564656c65746560d01b6064820152608401610442565b6003600783815481106114f2576114f2612944565b600060026007838154811061163b5761163b612944565b60009182526020909120600a600c90920201015460ff1660058111156116635761166361276f565b146116a75760405162461bcd60e51b8152602060048201526014602482015273141c9bda9958dd081b9bdd081054141493d5915160621b6044820152606401610442565b600782815481106116ba576116ba612944565b60009182526020909120600c90910201600101546001600160a01b03163314806116ee57506000546001600160a01b031633145b61170a5760405162461bcd60e51b81526004016104429061295a565b6114aa82612097565b6060600a6000838152602001908152602001600020805480602002602001604051908101604052809291908181526020016000905b828210156117aa576000848152602090819020604080516080810182526004860290920180546001600160a01b03168352600180820154848601526002820154928401929092526003015460ff16151560608301529083529092019101611748565b505050509050919050565b60606007805480602002602001604051908101604052809291908181526020016000905b82821015611ad95760008481526020908190206040805161018081018252600c86029092018054835260018101546001600160a01b0316938301939093526002830180549293929184019161182d90612987565b80601f016020809104026020016040519081016040528092919081815260200182805461185990612987565b80156118a65780601f1061187b576101008083540402835291602001916118a6565b820191906000526020600020905b81548152906001019060200180831161188957829003601f168201915b505050505081526020016003820180546118bf90612987565b80601f01602080910402602001604051908101604052809291908181526020018280546118eb90612987565b80156119385780601f1061190d57610100808354040283529160200191611938565b820191906000526020600020905b81548152906001019060200180831161191b57829003601f168201915b5050505050815260200160048201805461195190612987565b80601f016020809104026020016040519081016040528092919081815260200182805461197d90612987565b80156119ca5780601f1061199f576101008083540402835291602001916119ca565b820191906000526020600020905b8154815290600101906020018083116119ad57829003601f168201915b50505091835250506005828101546020830152600683015460408301526007830154606083015260088301546080830152600983015460a0830152600a83015460c09092019160ff1690811115611a2357611a2361276f565b6005811115611a3457611a3461276f565b8152602001600b82018054611a4890612987565b80601f0160208091040260200160405190810160405280929190818152602001828054611a7490612987565b8015611ac15780601f10611a9657610100808354040283529160200191611ac1565b820191906000526020600020905b815481529060010190602001808311611aa457829003601f168201915b505050505081525050815260200190600101906117d9565b50505050905090565b611aea6122eb565b6000828152600b602052604090205460ff16611b3c5760405162461bcd60e51b8152602060048201526011602482015270141c9bda9958dd081b9bdd08199bdd5b99607a1b6044820152606401610442565b60078281548110611b4f57611b4f612944565b90600052602060002090600c020160405180610180016040529081600082015481526020016001820160009054906101000a90046001600160a01b03166001600160a01b03166001600160a01b03168152602001600282018054611bb290612987565b80601f0160208091040260200160405190810160405280929190818152602001828054611bde90612987565b8015611c2b5780601f10611c0057610100808354040283529160200191611c2b565b820191906000526020600020905b815481529060010190602001808311611c0e57829003601f168201915b50505050508152602001600382018054611c4490612987565b80601f0160208091040260200160405190810160405280929190818152602001828054611c7090612987565b8015611cbd5780601f10611c9257610100808354040283529160200191611cbd565b820191906000526020600020905b815481529060010190602001808311611ca057829003601f168201915b50505050508152602001600482018054611cd690612987565b80601f0160208091040260200160405190810160405280929190818152602001828054611d0290612987565b8015611d4f5780601f10611d2457610100808354040283529160200191611d4f565b820191906000526020600020905b815481529060010190602001808311611d3257829003601f168201915b50505091835250506005828101546020830152600683015460408301526007830154606083015260088301546080830152600983015460a0830152600a83015460c09092019160ff1690811115611da857611da861276f565b6005811115611db957611db961276f565b8152602001600b82018054611dcd90612987565b80601f0160208091040260200160405190810160405280929190818152602001828054611df990612987565b8015611e465780601f10611e1b57610100808354040283529160200191611e46565b820191906000526020600020905b815481529060010190602001808311611e2957829003601f168201915b5050505050815250509050919050565b6000805b600854811015611eb757826001600160a01b031660088281548110611e8157611e81612944565b6000918252602090912001546001600160a01b03161415611ea55750600192915050565b80611eaf81612929565b915050611e5a565b50600092915050565b6000808333604051602001611ef192919091825260601b6bffffffffffffffffffffffff1916602082015260340190565b6040516020818303038152906040528051906020012090506000611f15828561220e565b9050611f2081611e56565b95945050505050565b60005b6000828152600a6020526040902054811015612093576000828152600a60205260408120805483908110611f6257611f62612944565b60009182526020808320600490920290910154858352600a9091526040822080546001600160a01b0390921693509084908110611fa157611fa1612944565b90600052602060002090600402016001015490506001600a60008681526020019081526020016000208481548110611fdb57611fdb612944565b906000526020600020906004020160030160006101000a81548160ff02191690831515021790555042600a6000868152602001908152602001600020848154811061202857612028612944565b9060005260206000209060040201600201819055506120478282612286565b60016004600101600082825461205d91906129c2565b9091555050600680548291906000906120779084906129c2565b925050819055505050808061208b90612929565b915050611f2c565b5050565b6000600782815481106120ac576120ac612944565b90600052602060002090600c020160060154905060006064600154836120d291906129d9565b6120dc91906129f8565b90506005600784815481106120f3576120f3612944565b60009182526020909120600a600c9092020101805460ff191660018360058111156121205761212061276f565b02179055506121676007848154811061213b5761213b612944565b600091825260209091206001600c9092020101546001600160a01b031661216283856129c2565b612286565b60005461217d906001600160a01b031682612286565b6007838154811061219057612190612944565b90600052602060002090600c020160060154600360008282546121b391906129c2565b9091555050604080518481526060602082018190526010908201526f141493d29150d508141052510813d55560821b6080820152428183015290513391600080516020612a1b833981519152919081900360a00190a2505050565b6020818101516040808401516060808601518351600080825296810180865289905290861a9381018490529081018490526080810182905290919060019060a0016020604051602081039080840390855afa158015612271573d6000803e3d6000fd5b5050604051601f190151979650505050505050565b6000826001600160a01b03168260405160006040518083038185875af1925050503d80600081146122d3576040519150601f19603f3d011682016040523d82523d6000602084013e6122d8565b606091505b50509050806122e657600080fd5b505050565b6040518061018001604052806000815260200160006001600160a01b031681526020016060815260200160608152602001606081526020016000815260200160008152602001600081526020016000815260200160008152602001600060058111156123595761235961276f565b8152602001606081525090565b82805461237290612987565b90600052602060002090601f01602090048101928261239457600085556123da565b82601f106123ad57805160ff19168380011785556123da565b828001600101855582156123da579182015b828111156123da5782518255916020019190600101906123bf565b506123e69291506123ea565b5090565b5b808211156123e657600081556001016123eb565b634e487b7160e01b600052604160045260246000fd5b600067ffffffffffffffff80841115612430576124306123ff565b604051601f8501601f19908116603f01168101908282118183101715612458576124586123ff565b8160405280935085815286868601111561247157600080fd5b858560208301376000602087830101525050509392505050565b600082601f83011261249c57600080fd5b6124ab83833560208501612415565b9392505050565b60008060008060008060c087890312156124cb57600080fd5b863567ffffffffffffffff808211156124e357600080fd5b6124ef8a838b0161248b565b9750602089013591508082111561250557600080fd5b6125118a838b0161248b565b9650604089013591508082111561252757600080fd5b6125338a838b0161248b565b9550606089013594506080890135935060a089013591508082111561255757600080fd5b5061256489828a0161248b565b9150509295509295509295565b60006020828403121561258357600080fd5b5035919050565b6000806040838503121561259d57600080fd5b82359150602083013567ffffffffffffffff8111156125bb57600080fd5b8301601f810185136125cc57600080fd5b6125db85823560208401612415565b9150509250929050565b6000602082840312156125f757600080fd5b81356001600160a01b03811681146124ab57600080fd5b60008060008060008060c0878903121561262757600080fd5b86359550602087013567ffffffffffffffff8082111561264657600080fd5b6126528a838b0161248b565b9650604089013591508082111561266857600080fd5b6126748a838b0161248b565b9550606089013591508082111561268a57600080fd5b6126968a838b0161248b565b94506080890135935060a089013591508082111561255757600080fd5b602080825282518282018190526000919060409081850190868401855b8281101561271557815180516001600160a01b0316855286810151878601528581015186860152606090810151151590850152608090930192908501906001016126d0565b5091979650505050505050565b6000815180845260005b818110156127485760208185018101518683018201520161272c565b8181111561275a576000602083870101525b50601f01601f19169290920160200192915050565b634e487b7160e01b600052602160045260246000fd5b600681106127a357634e487b7160e01b600052602160045260246000fd5b9052565b60006101808251845260208301516127ca60208601826001600160a01b03169052565b5060408301518160408601526127e282860182612722565b915050606083015184820360608601526127fc8282612722565b915050608083015184820360808601526128168282612722565b91505060a083015160a085015260c083015160c085015260e083015160e08501526101008084015181860152506101208084015181860152506101408084015161286282870182612785565b5050610160808401518583038287015261287c8382612722565b9695505050505050565b6000602080830181845280855180835260408601915060408160051b870101925083870160005b828110156128db57603f198886030184526128c98583516127a7565b945092850192908501906001016128ad565b5092979650505050505050565b6020815260006124ab60208301846127a7565b634e487b7160e01b600052601160045260246000fd5b60008219821115612924576129246128fb565b500190565b600060001982141561293d5761293d6128fb565b5060010190565b634e487b7160e01b600052603260045260246000fd5b602080825260139082015272556e617574686f72697a656420456e7469747960681b604082015260600190565b600181811c9082168061299b57607f821691505b602082108114156129bc57634e487b7160e01b600052602260045260246000fd5b50919050565b6000828210156129d4576129d46128fb565b500390565b60008160001904831182151516156129f3576129f36128fb565b500290565b600082612a1557634e487b7160e01b600052601260045260246000fd5b50049056feaee8e5d3bbb2f71a951b5632cee20f7ac487b9f8ab4f66a236f7694b13af7c6aa2646970667358221220d3ba00d3006d295598734d2386de24b4b99b2f7ce982cb2981ed11922b488e4164736f6c634300080b0033",
  "linkReferences": {},
  "deployedLinkReferences": {}
}