{
  "_format": "hh-sol-artifact-1",
  "contractName": "Genesis",
  "sourceName": "src/contracts/Genesis.sol",
  "abi": [
    {
      "inputs": [
        {
          "internalType": "uint256",
          "name": "_projectTax",
          "type": "uint256"
        }
      ],
      "stateMutability": "nonpayable",
      "type": "constructor"
    },
    {
      "anonymous": false,
      "inputs": [
        {
          "indexed": false,
          "internalType": "uint256",
          "name": "id",
          "type": "uint256"
        },
        {
          "indexed": false,
          "internalType": "string",
          "name": "actionType",
          "type": "string"
        },
        {
          "indexed": true,
          "internalType": "address",
          "name": "executor",
          "type": "address"
        },
        {
          "indexed": false,
          "internalType": "uint256",
          "name": "timestamp",
          "type": "uint256"
        }
      ],
      "name": "Action",
      "type": "event"
    },
    {
      "inputs": [
        {
          "internalType": "uint256",
          "name": "id",
          "type": "uint256"
        }
      ],
      "name": "backProject",
      "outputs": [
        {
          "internalType": "bool",
          "name": "",
          "type": "bool"
        }
      ],
      "stateMutability": "payable",
      "type": "function"
    },
    {
      "inputs": [],
      "name": "balance",
      "outputs": [
        {
          "internalType": "uint256",
          "name": "",
          "type": "uint256"
        }
      ],
      "stateMutability": "view",
      "type": "function"
    },
    {
      "inputs": [
        {
          "internalType": "uint256",
          "name": "_taxPct",
          "type": "uint256"
        }
      ],
      "name": "changeTax",
      "outputs": [],
      "stateMutability": "nonpayable",
      "type": "function"
    },
    {
      "inputs": [
        {
          "internalType": "string",
          "name": "title",
          "type": "string"
        },
        {
          "internalType": "string",
          "name": "description",
          "type": "string"
        },
        {
          "internalType": "string",
          "name": "imageURL",
          "type": "string"
        },
        {
          "internalType": "uint256",
          "name": "cost",
          "type": "uint256"
        },
        {
          "internalType": "uint256",
          "name": "expiresAt",
          "type": "uint256"
        },
        {
          "internalType": "string",
          "name": "Syarat",
          "type": "string"
        }
      ],
      "name": "createProject",
      "outputs": [
        {
          "internalType": "bool",
          "name": "",
          "type": "bool"
        }
      ],
      "stateMutability": "nonpayable",
      "type": "function"
    },
    {
      "inputs": [
        {
          "internalType": "uint256",
          "name": "id",
          "type": "uint256"
        }
      ],
      "name": "deleteProject",
      "outputs": [
        {
          "internalType": "bool",
          "name": "",
          "type": "bool"
        }
      ],
      "stateMutability": "nonpayable",
      "type": "function"
    },
    {
      "inputs": [
        {
          "internalType": "uint256",
          "name": "id",
          "type": "uint256"
        }
      ],
      "name": "getBackers",
      "outputs": [
        {
          "components": [
            {
              "internalType": "address",
              "name": "owner",
              "type": "address"
            },
            {
              "internalType": "uint256",
              "name": "contribution",
              "type": "uint256"
            },
            {
              "internalType": "uint256",
              "name": "timestamp",
              "type": "uint256"
            },
            {
              "internalType": "bool",
              "name": "refunded",
              "type": "bool"
            }
          ],
          "internalType": "struct Genesis.backerStruct[]",
          "name": "",
          "type": "tuple[]"
        }
      ],
      "stateMutability": "view",
      "type": "function"
    },
    {
      "inputs": [
        {
          "internalType": "uint256",
          "name": "id",
          "type": "uint256"
        }
      ],
      "name": "getProject",
      "outputs": [
        {
          "components": [
            {
              "internalType": "uint256",
              "name": "id",
              "type": "uint256"
            },
            {
              "internalType": "address",
              "name": "owner",
              "type": "address"
            },
            {
              "internalType": "string",
              "name": "title",
              "type": "string"
            },
            {
              "internalType": "string",
              "name": "description",
              "type": "string"
            },
            {
              "internalType": "string",
              "name": "imageURL",
              "type": "string"
            },
            {
              "internalType": "uint256",
              "name": "cost",
              "type": "uint256"
            },
            {
              "internalType": "uint256",
              "name": "raised",
              "type": "uint256"
            },
            {
              "internalType": "uint256",
              "name": "timestamp",
              "type": "uint256"
            },
            {
              "internalType": "uint256",
              "name": "expiresAt",
              "type": "uint256"
            },
            {
              "internalType": "uint256",
              "name": "backers",
              "type": "uint256"
            },
            {
              "internalType": "enum Genesis.statusEnum",
              "name": "status",
              "type": "uint8"
            },
            {
              "internalType": "string",
              "name": "Syarat",
              "type": "string"
            }
          ],
          "internalType": "struct Genesis.projectStruct",
          "name": "",
          "type": "tuple"
        }
      ],
      "stateMutability": "view",
      "type": "function"
    },
    {
      "inputs": [],
      "name": "getProjects",
      "outputs": [
        {
          "components": [
            {
              "internalType": "uint256",
              "name": "id",
              "type": "uint256"
            },
            {
              "internalType": "address",
              "name": "owner",
              "type": "address"
            },
            {
              "internalType": "string",
              "name": "title",
              "type": "string"
            },
            {
              "internalType": "string",
              "name": "description",
              "type": "string"
            },
            {
              "internalType": "string",
              "name": "imageURL",
              "type": "string"
            },
            {
              "internalType": "uint256",
              "name": "cost",
              "type": "uint256"
            },
            {
              "internalType": "uint256",
              "name": "raised",
              "type": "uint256"
            },
            {
              "internalType": "uint256",
              "name": "timestamp",
              "type": "uint256"
            },
            {
              "internalType": "uint256",
              "name": "expiresAt",
              "type": "uint256"
            },
            {
              "internalType": "uint256",
              "name": "backers",
              "type": "uint256"
            },
            {
              "internalType": "enum Genesis.statusEnum",
              "name": "status",
              "type": "uint8"
            },
            {
              "internalType": "string",
              "name": "Syarat",
              "type": "string"
            }
          ],
          "internalType": "struct Genesis.projectStruct[]",
          "name": "",
          "type": "tuple[]"
        }
      ],
      "stateMutability": "view",
      "type": "function"
    },
    {
      "inputs": [],
      "name": "owner",
      "outputs": [
        {
          "internalType": "address",
          "name": "",
          "type": "address"
        }
      ],
      "stateMutability": "view",
      "type": "function"
    },
    {
      "inputs": [
        {
          "internalType": "uint256",
          "name": "id",
          "type": "uint256"
        }
      ],
      "name": "payOutProject",
      "outputs": [
        {
          "internalType": "bool",
          "name": "",
          "type": "bool"
        }
      ],
      "stateMutability": "nonpayable",
      "type": "function"
    },
    {
      "inputs": [],
      "name": "projectCount",
      "outputs": [
        {
          "internalType": "uint256",
          "name": "",
          "type": "uint256"
        }
      ],
      "stateMutability": "view",
      "type": "function"
    },
    {
      "inputs": [
        {
          "internalType": "uint256",
          "name": "",
          "type": "uint256"
        }
      ],
      "name": "projectExist",
      "outputs": [
        {
          "internalType": "bool",
          "name": "",
          "type": "bool"
        }
      ],
      "stateMutability": "view",
      "type": "function"
    },
    {
      "inputs": [],
      "name": "projectTax",
      "outputs": [
        {
          "internalType": "uint256",
          "name": "",
          "type": "uint256"
        }
      ],
      "stateMutability": "view",
      "type": "function"
    },
    {
      "inputs": [
        {
          "internalType": "uint256",
          "name": "id",
          "type": "uint256"
        }
      ],
      "name": "requestRefund",
      "outputs": [
        {
          "internalType": "bool",
          "name": "",
          "type": "bool"
        }
      ],
      "stateMutability": "nonpayable",
      "type": "function"
    },
    {
      "inputs": [],
      "name": "stats",
      "outputs": [
        {
          "internalType": "uint256",
          "name": "totalProjects",
          "type": "uint256"
        },
        {
          "internalType": "uint256",
          "name": "totalBacking",
          "type": "uint256"
        },
        {
          "internalType": "uint256",
          "name": "totalDonations",
          "type": "uint256"
        }
      ],
      "stateMutability": "view",
      "type": "function"
    },
    {
      "inputs": [
        {
          "internalType": "uint256",
          "name": "id",
          "type": "uint256"
        },
        {
          "internalType": "string",
          "name": "title",
          "type": "string"
        },
        {
          "internalType": "string",
          "name": "description",
          "type": "string"
        },
        {
          "internalType": "string",
          "name": "imageURL",
          "type": "string"
        },
        {
          "internalType": "uint256",
          "name": "expiresAt",
          "type": "uint256"
        },
        {
          "internalType": "string",
          "name": "Syarat",
          "type": "string"
        }
      ],
      "name": "updateProject",
      "outputs": [
        {
          "internalType": "bool",
          "name": "",
          "type": "bool"
        }
      ],
      "stateMutability": "nonpayable",
      "type": "function"
    }
  ],
  "bytecode": "0x608060405234801561001057600080fd5b506040516124f13803806124f183398101604081905261002f91610049565b600080546001600160a01b03191633179055600155610062565b60006020828403121561005b57600080fd5b5051919050565b612480806100716000396000f3fe6080604052600436106100f35760003560e01c8063a4b2409e1161008a578063d24cd3ec11610059578063d24cd3ec146102b1578063d80528ae146102c7578063dcc6012814610301578063f0f3f2c81461032357600080fd5b8063a4b2409e1461022e578063b531dcba1461024e578063b69ef8a81461026e578063c9168b721461028457600080fd5b806350fc6d76116100c657806350fc6d76146101935780638593054b146101b35780638da5cb5b146101e35780639f39a1941461021b57600080fd5b80631fb49712146100f857806336fbad261461012d5780633e45c8af146101515780634cd0cb2814610173575b600080fd5b34801561010457600080fd5b50610118610113366004611f3f565b610350565b60405190151581526020015b60405180910390f35b34801561013957600080fd5b5061014360025481565b604051908152602001610124565b34801561015d57600080fd5b5061017161016c366004611ffe565b61084d565b005b34801561017f57600080fd5b5061011861018e366004611ffe565b6108a2565b34801561019f57600080fd5b506101186101ae366004612017565b610a1e565b3480156101bf57600080fd5b506101186101ce366004611ffe565b600a6020526000908152604090205460ff1681565b3480156101ef57600080fd5b50600054610203906001600160a01b031681565b6040516001600160a01b039091168152602001610124565b610118610229366004611ffe565b610d08565b34801561023a57600080fd5b50610118610249366004611ffe565b611115565b34801561025a57600080fd5b50610118610269366004611ffe565b61120c565b34801561027a57600080fd5b5061014360035481565b34801561029057600080fd5b506102a461029f366004611ffe565b6112fb565b60405161012491906120bc565b3480156102bd57600080fd5b5061014360015481565b3480156102d357600080fd5b506004546005546006546102e692919083565b60408051938452602084019290925290820152606001610124565b34801561030d57600080fd5b5061031661139d565b604051610124919061228f565b34801561032f57600080fd5b5061034361033e366004611ffe565b6116ca565b60405161012491906122f1565b60008087511161039f5760405162461bcd60e51b81526020600482015260156024820152745469746c652063616e6e6f7420626520656d70747960581b60448201526064015b60405180910390fd5b60008651116103f05760405162461bcd60e51b815260206004820152601b60248201527f4465736372697074696f6e2063616e6e6f7420626520656d70747900000000006044820152606401610396565b600085511161043c5760405162461bcd60e51b8152602060048201526018602482015277496d61676555524c2063616e6e6f7420626520656d70747960401b6044820152606401610396565b600084116104825760405162461bcd60e51b8152602060048201526013602482015272436f73742063616e6e6f74206265207a65726f60681b6044820152606401610396565b60008251116104d35760405162461bcd60e51b815260206004820152601a60248201527f5379617261742055524c2063616e6e6f7420626520656d7074790000000000006044820152606401610396565b6104db611d88565b6002548152336020808301918252604083018a8152606084018a90526080840189905260a084018890524260e0850152610100840187905261016084018690526007805460018101825560009190915284517fa66cc928b5edb82af9bd49922954155ab7b0942694bea4ce44661d9a8736c688600c90920291820190815593517fa66cc928b5edb82af9bd49922954155ab7b0942694bea4ce44661d9a8736c689820180546001600160a01b0319166001600160a01b03909216919091179055905180518594936105d0937fa66cc928b5edb82af9bd49922954155ab7b0942694bea4ce44661d9a8736c68a01920190611e03565b50606082015180516105ec916003840191602090910190611e03565b5060808201518051610608916004840191602090910190611e03565b5060a0820151600582015560c0820151600682015560e0820151600782015561010082015160088201556101208201516009820155610140820151600a8201805460ff1916600183600481111561066157610661612178565b0217905550610160820151805161068291600b840191602090910190611e03565b5050600280546000908152600a602090815260408083208054600160ff1990911681179091553384526008835281842080548083018255908552938390208751600c909502019384558683015190840180546001600160a01b0319166001600160a01b039092169190911790558501518051869550929361070b93908501929190910190611e03565b5060608201518051610727916003840191602090910190611e03565b5060808201518051610743916004840191602090910190611e03565b5060a0820151600582015560c0820151600682015560e0820151600782015561010082015160088201556101208201516009820155610140820151600a8201805460ff1916600183600481111561079c5761079c612178565b021790555061016082015180516107bd91600b840191602090910190611e03565b5050506001600460000160008282546107d69190612321565b909155505060028054339160008051602061242b833981519152919060006107fd83612339565b9091555060408051918252606060208301819052600f908301526e141493d29150d50810d49150551151608a1b6080830152429082015260a00160405180910390a2506001979650505050505050565b6000546001600160a01b0316331461089d5760405162461bcd60e51b81526020600482015260136024820152724f776e6572207265736572766564206f6e6c7960681b6044820152606401610396565b600155565b600080600783815481106108b8576108b8612354565b60009182526020909120600a600c90920201015460ff1660048111156108e0576108e0612178565b146109285760405162461bcd60e51b8152602060048201526018602482015277141c9bda9958dd081b9bc81b1bdb99d95c881bdc195b995960421b6044820152606401610396565b6007828154811061093b5761093b612354565b60009182526020909120600c90910201600101546001600160a01b031633146109765760405162461bcd60e51b81526004016103969061236a565b60036007838154811061098b5761098b612354565b60009182526020909120600a600c9092020101805460ff191660018360048111156109b8576109b8612178565b02179055506109c682611a3e565b60408051838152606060208201819052600f908201526e141493d29150d50811115311551151608a1b608082015242818301529051339160008051602061242b833981519152919081900360a00190a2506001919050565b600060078781548110610a3357610a33612354565b60009182526020909120600c90910201600101546001600160a01b03163314610a6e5760405162461bcd60e51b81526004016103969061236a565b6000865111610ab75760405162461bcd60e51b81526020600482015260156024820152745469746c652063616e6e6f7420626520656d70747960581b6044820152606401610396565b6000855111610b085760405162461bcd60e51b815260206004820152601b60248201527f4465736372697074696f6e2063616e6e6f7420626520656d70747900000000006044820152606401610396565b6000845111610b545760405162461bcd60e51b8152602060048201526018602482015277496d61676555524c2063616e6e6f7420626520656d70747960401b6044820152606401610396565b6000825111610b9e5760405162461bcd60e51b81526020600482015260166024820152755379617261742063616e6e6f7420626520656d70747960501b6044820152606401610396565b8560078881548110610bb257610bb2612354565b90600052602060002090600c02016002019080519060200190610bd6929190611e03565b508460078881548110610beb57610beb612354565b90600052602060002090600c02016003019080519060200190610c0f929190611e03565b508360078881548110610c2457610c24612354565b90600052602060002090600c02016004019080519060200190610c48929190611e03565b508260078881548110610c5d57610c5d612354565b90600052602060002090600c0201600801819055508160078881548110610c8657610c86612354565b90600052602060002090600c0201600b019080519060200190610caa929190611e03565b5060408051888152606060208201819052600f908201526e141493d29150d50815541110551151608a1b608082015242818301529051339160008051602061242b833981519152919081900360a00190a25060019695505050505050565b6000803411610d595760405162461bcd60e51b815260206004820152601f60248201527f4574686572206d7573742062652067726561746572207468616e207a65726f006044820152606401610396565b6000828152600a602052604090205460ff16610dab5760405162461bcd60e51b8152602060048201526011602482015270141c9bda9958dd081b9bdd08199bdd5b99607a1b6044820152606401610396565b600060078381548110610dc057610dc0612354565b60009182526020909120600a600c90920201015460ff166004811115610de857610de8612178565b14610e305760405162461bcd60e51b8152602060048201526018602482015277141c9bda9958dd081b9bc81b1bdb99d95c881bdc195b995960421b6044820152606401610396565b600160046001016000828254610e469190612321565b909155505060068054349190600090610e60908490612321565b925050819055503460078381548110610e7b57610e7b612354565b90600052602060002090600c02016006016000828254610e9b9190612321565b92505081905550600160078381548110610eb757610eb7612354565b90600052602060002090600c02016009016000828254610ed79190612321565b9091555050600082815260096020908152604080832081516080808201845233808352348387019081524284870181815260608087018b8152885460018082018b55998d529b8b902097516004909c0290970180546001600160a01b0319166001600160a01b03909c169b909b178b559251968a01969096559451600289015592516003909701805460ff1916971515979097179096558351888152948501829052600e918501919091526d141493d29150d508109050d2d15160921b908401529082015260008051602061242b8339815191529060a00160405180910390a260078281548110610fca57610fca612354565b90600052602060002090600c02016005015460078381548110610fef57610fef612354565b90600052602060002090600c0201600601541061109a5760016007838154811061101b5761101b612354565b60009182526020909120600a600c9092020101805460ff1916600183600481111561104857611048612178565b02179055506007828154811061106057611060612354565b90600052602060002090600c020160060154600360008282546110839190612321565b90915550611092905082611bac565b506001919050565b600782815481106110ad576110ad612354565b90600052602060002090600c0201600801544210611092576002600783815481106110da576110da612354565b60009182526020909120600a600c9092020101805460ff1916600183600481111561110757611107612178565b021790555061109282611a3e565b600060026007838154811061112c5761112c612354565b60009182526020909120600a600c90920201015460ff16600481111561115457611154612178565b14158061119c575060036007838154811061117157611171612354565b60009182526020909120600a600c90920201015460ff16600481111561119957611199612178565b14155b6111f75760405162461bcd60e51b815260206004820152602660248201527f50726f6a656374206e6f74206d61726b656420617320726576657274206f722060448201526564656c65746560d01b6064820152608401610396565b6002600783815481106110da576110da612354565b600060016007838154811061122357611223612354565b60009182526020909120600a600c90920201015460ff16600481111561124b5761124b612178565b1461128f5760405162461bcd60e51b8152602060048201526014602482015273141c9bda9958dd081b9bdd081054141493d5915160621b6044820152606401610396565b600782815481106112a2576112a2612354565b60009182526020909120600c90910201600101546001600160a01b03163314806112d657506000546001600160a01b031633145b6112f25760405162461bcd60e51b81526004016103969061236a565b61109282611bac565b606060096000838152602001908152602001600020805480602002602001604051908101604052809291908181526020016000905b82821015611392576000848152602090819020604080516080810182526004860290920180546001600160a01b03168352600180820154848601526002820154928401929092526003015460ff16151560608301529083529092019101611330565b505050509050919050565b60606007805480602002602001604051908101604052809291908181526020016000905b828210156116c15760008481526020908190206040805161018081018252600c86029092018054835260018101546001600160a01b0316938301939093526002830180549293929184019161141590612397565b80601f016020809104026020016040519081016040528092919081815260200182805461144190612397565b801561148e5780601f106114635761010080835404028352916020019161148e565b820191906000526020600020905b81548152906001019060200180831161147157829003601f168201915b505050505081526020016003820180546114a790612397565b80601f01602080910402602001604051908101604052809291908181526020018280546114d390612397565b80156115205780601f106114f557610100808354040283529160200191611520565b820191906000526020600020905b81548152906001019060200180831161150357829003601f168201915b5050505050815260200160048201805461153990612397565b80601f016020809104026020016040519081016040528092919081815260200182805461156590612397565b80156115b25780601f10611587576101008083540402835291602001916115b2565b820191906000526020600020905b81548152906001019060200180831161159557829003601f168201915b505050918352505060058201546020820152600682015460408201526007820154606082015260088201546080820152600982015460a0820152600a82015460c09091019060ff16600481111561160b5761160b612178565b600481111561161c5761161c612178565b8152602001600b8201805461163090612397565b80601f016020809104026020016040519081016040528092919081815260200182805461165c90612397565b80156116a95780601f1061167e576101008083540402835291602001916116a9565b820191906000526020600020905b81548152906001019060200180831161168c57829003601f168201915b505050505081525050815260200190600101906113c1565b50505050905090565b6116d2611d88565b6000828152600a602052604090205460ff166117245760405162461bcd60e51b8152602060048201526011602482015270141c9bda9958dd081b9bdd08199bdd5b99607a1b6044820152606401610396565b6007828154811061173757611737612354565b90600052602060002090600c020160405180610180016040529081600082015481526020016001820160009054906101000a90046001600160a01b03166001600160a01b03166001600160a01b0316815260200160028201805461179a90612397565b80601f01602080910402602001604051908101604052809291908181526020018280546117c690612397565b80156118135780601f106117e857610100808354040283529160200191611813565b820191906000526020600020905b8154815290600101906020018083116117f657829003601f168201915b5050505050815260200160038201805461182c90612397565b80601f016020809104026020016040519081016040528092919081815260200182805461185890612397565b80156118a55780601f1061187a576101008083540402835291602001916118a5565b820191906000526020600020905b81548152906001019060200180831161188857829003601f168201915b505050505081526020016004820180546118be90612397565b80601f01602080910402602001604051908101604052809291908181526020018280546118ea90612397565b80156119375780601f1061190c57610100808354040283529160200191611937565b820191906000526020600020905b81548152906001019060200180831161191a57829003601f168201915b505050918352505060058201546020820152600682015460408201526007820154606082015260088201546080820152600982015460a0820152600a82015460c09091019060ff16600481111561199057611990612178565b60048111156119a1576119a1612178565b8152602001600b820180546119b590612397565b80601f01602080910402602001604051908101604052809291908181526020018280546119e190612397565b8015611a2e5780601f10611a0357610100808354040283529160200191611a2e565b820191906000526020600020905b815481529060010190602001808311611a1157829003601f168201915b5050505050815250509050919050565b60005b600082815260096020526040902054811015611ba8576000828152600960205260408120805483908110611a7757611a77612354565b6000918252602080832060049092029091015485835260099091526040822080546001600160a01b0390921693509084908110611ab657611ab6612354565b90600052602060002090600402016001015490506001600960008681526020019081526020016000208481548110611af057611af0612354565b906000526020600020906004020160030160006101000a81548160ff02191690831515021790555042600960008681526020019081526020016000208481548110611b3d57611b3d612354565b906000526020600020906004020160020181905550611b5c8282611d23565b600160046001016000828254611b7291906123d2565b909155505060068054829190600090611b8c9084906123d2565b9250508190555050508080611ba090612339565b915050611a41565b5050565b600060078281548110611bc157611bc1612354565b90600052602060002090600c02016006015490506000606460015483611be791906123e9565b611bf19190612408565b9050600460078481548110611c0857611c08612354565b60009182526020909120600a600c9092020101805460ff19166001836004811115611c3557611c35612178565b0217905550611c7c60078481548110611c5057611c50612354565b600091825260209091206001600c9092020101546001600160a01b0316611c7783856123d2565b611d23565b600054611c92906001600160a01b031682611d23565b60078381548110611ca557611ca5612354565b90600052602060002090600c02016006015460036000828254611cc891906123d2565b9091555050604080518481526060602082018190526010908201526f141493d29150d508141052510813d55560821b608082015242818301529051339160008051602061242b833981519152919081900360a00190a2505050565b6000826001600160a01b03168260405160006040518083038185875af1925050503d8060008114611d70576040519150601f19603f3d011682016040523d82523d6000602084013e611d75565b606091505b5050905080611d8357600080fd5b505050565b6040518061018001604052806000815260200160006001600160a01b03168152602001606081526020016060815260200160608152602001600081526020016000815260200160008152602001600081526020016000815260200160006004811115611df657611df6612178565b8152602001606081525090565b828054611e0f90612397565b90600052602060002090601f016020900481019282611e315760008555611e77565b82601f10611e4a57805160ff1916838001178555611e77565b82800160010185558215611e77579182015b82811115611e77578251825591602001919060010190611e5c565b50611e83929150611e87565b5090565b5b80821115611e835760008155600101611e88565b634e487b7160e01b600052604160045260246000fd5b600082601f830112611ec357600080fd5b813567ffffffffffffffff80821115611ede57611ede611e9c565b604051601f8301601f19908116603f01168101908282118183101715611f0657611f06611e9c565b81604052838152866020858801011115611f1f57600080fd5b836020870160208301376000602085830101528094505050505092915050565b60008060008060008060c08789031215611f5857600080fd5b863567ffffffffffffffff80821115611f7057600080fd5b611f7c8a838b01611eb2565b97506020890135915080821115611f9257600080fd5b611f9e8a838b01611eb2565b96506040890135915080821115611fb457600080fd5b611fc08a838b01611eb2565b9550606089013594506080890135935060a0890135915080821115611fe457600080fd5b50611ff189828a01611eb2565b9150509295509295509295565b60006020828403121561201057600080fd5b5035919050565b60008060008060008060c0878903121561203057600080fd5b86359550602087013567ffffffffffffffff8082111561204f57600080fd5b61205b8a838b01611eb2565b9650604089013591508082111561207157600080fd5b61207d8a838b01611eb2565b9550606089013591508082111561209357600080fd5b61209f8a838b01611eb2565b94506080890135935060a0890135915080821115611fe457600080fd5b602080825282518282018190526000919060409081850190868401855b8281101561211e57815180516001600160a01b0316855286810151878601528581015186860152606090810151151590850152608090930192908501906001016120d9565b5091979650505050505050565b6000815180845260005b8181101561215157602081850181015186830182015201612135565b81811115612163576000602083870101525b50601f01601f19169290920160200192915050565b634e487b7160e01b600052602160045260246000fd5b600581106121ac57634e487b7160e01b600052602160045260246000fd5b9052565b60006101808251845260208301516121d360208601826001600160a01b03169052565b5060408301518160408601526121eb8286018261212b565b91505060608301518482036060860152612205828261212b565b9150506080830151848203608086015261221f828261212b565b91505060a083015160a085015260c083015160c085015260e083015160e08501526101008084015181860152506101208084015181860152506101408084015161226b8287018261218e565b50506101608084015185830382870152612285838261212b565b9695505050505050565b6000602080830181845280855180835260408601915060408160051b870101925083870160005b828110156122e457603f198886030184526122d28583516121b0565b945092850192908501906001016122b6565b5092979650505050505050565b60208152600061230460208301846121b0565b9392505050565b634e487b7160e01b600052601160045260246000fd5b600082198211156123345761233461230b565b500190565b600060001982141561234d5761234d61230b565b5060010190565b634e487b7160e01b600052603260045260246000fd5b602080825260139082015272556e617574686f72697a656420456e7469747960681b604082015260600190565b600181811c908216806123ab57607f821691505b602082108114156123cc57634e487b7160e01b600052602260045260246000fd5b50919050565b6000828210156123e4576123e461230b565b500390565b60008160001904831182151516156124035761240361230b565b500290565b60008261242557634e487b7160e01b600052601260045260246000fd5b50049056feaee8e5d3bbb2f71a951b5632cee20f7ac487b9f8ab4f66a236f7694b13af7c6aa26469706673582212205897c85ca0215eea1a71bace7394fbe570ac3b839b4f1d196fa9be946962554e64736f6c634300080b0033",
  "linkReferences": {},
  "deployedLinkReferences": {}
}